{
  "_format": "hh-sol-artifact-1",
  "contractName": "ICORefferal",
  "sourceName": "contracts/ICORefferal.sol",
  "abi": [
    {
      "inputs": [
        {
          "internalType": "address",
          "name": "_treasuryAddress",
          "type": "address"
        },
        {
          "internalType": "contract IERC20",
          "name": "_withdrawToken",
          "type": "address"
        }
      ],
      "stateMutability": "nonpayable",
      "type": "constructor"
    },
    {
      "anonymous": false,
      "inputs": [
        {
          "indexed": false,
          "internalType": "address",
          "name": "user",
          "type": "address"
        },
        {
          "indexed": false,
          "internalType": "uint256",
          "name": "amount",
          "type": "uint256"
        }
      ],
      "name": "Withdraw",
      "type": "event"
    },
    {
      "inputs": [],
      "name": "currentTimestamp",
      "outputs": [
        {
          "internalType": "uint256",
          "name": "",
          "type": "uint256"
        }
      ],
      "stateMutability": "view",
      "type": "function"
    },
    {
      "inputs": [],
      "name": "name",
      "outputs": [
        {
          "internalType": "string",
          "name": "",
          "type": "string"
        }
      ],
      "stateMutability": "view",
      "type": "function"
    },
    {
      "inputs": [
        {
          "internalType": "address",
          "name": "",
          "type": "address"
        }
      ],
      "name": "nonce",
      "outputs": [
        {
          "internalType": "uint256",
          "name": "",
          "type": "uint256"
        }
      ],
      "stateMutability": "view",
      "type": "function"
    },
    {
      "inputs": [],
      "name": "owner",
      "outputs": [
        {
          "internalType": "address",
          "name": "",
          "type": "address"
        }
      ],
      "stateMutability": "view",
      "type": "function"
    },
    {
      "inputs": [],
      "name": "paused",
      "outputs": [
        {
          "internalType": "bool",
          "name": "",
          "type": "bool"
        }
      ],
      "stateMutability": "view",
      "type": "function"
    },
    {
      "inputs": [],
      "name": "setCurrentTimestamp",
      "outputs": [],
      "stateMutability": "nonpayable",
      "type": "function"
    },
    {
      "inputs": [
        {
          "internalType": "bool",
          "name": "_paused",
          "type": "bool"
        }
      ],
      "name": "setPause",
      "outputs": [],
      "stateMutability": "nonpayable",
      "type": "function"
    },
    {
      "inputs": [
        {
          "internalType": "address",
          "name": "_treasuryAddress",
          "type": "address"
        }
      ],
      "name": "setTreasuryAddress",
      "outputs": [],
      "stateMutability": "nonpayable",
      "type": "function"
    },
    {
      "inputs": [],
      "name": "treasuryAddress",
      "outputs": [
        {
          "internalType": "address",
          "name": "",
          "type": "address"
        }
      ],
      "stateMutability": "view",
      "type": "function"
    },
    {
      "inputs": [
        {
          "internalType": "uint256",
          "name": "_value",
          "type": "uint256"
        },
        {
          "internalType": "address",
          "name": "_sender",
          "type": "address"
        },
        {
          "internalType": "uint256",
          "name": "_timeout",
          "type": "uint256"
        },
        {
          "internalType": "uint8",
          "name": "_v",
          "type": "uint8"
        },
        {
          "internalType": "bytes32",
          "name": "_r",
          "type": "bytes32"
        },
        {
          "internalType": "bytes32",
          "name": "_s",
          "type": "bytes32"
        }
      ],
      "name": "verifyMessage",
      "outputs": [
        {
          "internalType": "bool",
          "name": "",
          "type": "bool"
        }
      ],
      "stateMutability": "nonpayable",
      "type": "function"
    },
    {
      "inputs": [
        {
          "internalType": "uint256",
          "name": "_amount",
          "type": "uint256"
        },
        {
          "internalType": "address",
          "name": "_address",
          "type": "address"
        },
        {
          "internalType": "uint256",
          "name": "_timeout",
          "type": "uint256"
        },
        {
          "internalType": "uint8",
          "name": "_v",
          "type": "uint8"
        },
        {
          "internalType": "bytes32",
          "name": "_r",
          "type": "bytes32"
        },
        {
          "internalType": "bytes32",
          "name": "_s",
          "type": "bytes32"
        }
      ],
      "name": "withdrawPermit",
      "outputs": [],
      "stateMutability": "nonpayable",
      "type": "function"
    },
    {
      "inputs": [
        {
          "internalType": "address",
          "name": "",
          "type": "address"
        }
      ],
      "name": "withdrawTokensWhitelist",
      "outputs": [
        {
          "internalType": "bool",
          "name": "",
          "type": "bool"
        }
      ],
      "stateMutability": "view",
      "type": "function"
    }
  ],
  "bytecode": "0x60806040526040518060400160405280600c81526020017f49434f20526566666572616c0000000000000000000000000000000000000000815250600090816200004a9190620003de565b503480156200005857600080fd5b506040516200189c3803806200189c83398181016040528101906200007e919062000574565b33600160006101000a81548173ffffffffffffffffffffffffffffffffffffffff021916908373ffffffffffffffffffffffffffffffffffffffff16021790555081600260006101000a81548173ffffffffffffffffffffffffffffffffffffffff021916908373ffffffffffffffffffffffffffffffffffffffff16021790555080600760006101000a81548173ffffffffffffffffffffffffffffffffffffffff021916908373ffffffffffffffffffffffffffffffffffffffff1602179055506000600560006101000a81548160ff0219169083151502179055505050620005bb565b600081519050919050565b7f4e487b7100000000000000000000000000000000000000000000000000000000600052604160045260246000fd5b7f4e487b7100000000000000000000000000000000000000000000000000000000600052602260045260246000fd5b60006002820490506001821680620001e657607f821691505b602082108103620001fc57620001fb6200019e565b5b50919050565b60008190508160005260206000209050919050565b60006020601f8301049050919050565b600082821b905092915050565b600060088302620002667fffffffffffffffffffffffffffffffffffffffffffffffffffffffffffffffff8262000227565b62000272868362000227565b95508019841693508086168417925050509392505050565b6000819050919050565b6000819050919050565b6000620002bf620002b9620002b3846200028a565b62000294565b6200028a565b9050919050565b6000819050919050565b620002db836200029e565b620002f3620002ea82620002c6565b84845462000234565b825550505050565b600090565b6200030a620002fb565b62000317818484620002d0565b505050565b5b818110156200033f576200033360008262000300565b6001810190506200031d565b5050565b601f8211156200038e57620003588162000202565b620003638462000217565b8101602085101562000373578190505b6200038b620003828562000217565b8301826200031c565b50505b505050565b600082821c905092915050565b6000620003b36000198460080262000393565b1980831691505092915050565b6000620003ce8383620003a0565b9150826002028217905092915050565b620003e98262000164565b67ffffffffffffffff8111156200040557620004046200016f565b5b620004118254620001cd565b6200041e82828562000343565b600060209050601f83116001811462000456576000841562000441578287015190505b6200044d8582620003c0565b865550620004bd565b601f198416620004668662000202565b60005b82811015620004905784890151825560018201915060208501945060208101905062000469565b86831015620004b05784890151620004ac601f891682620003a0565b8355505b6001600288020188555050505b505050505050565b600080fd5b600073ffffffffffffffffffffffffffffffffffffffff82169050919050565b6000620004f782620004ca565b9050919050565b6200050981620004ea565b81146200051557600080fd5b50565b6000815190506200052981620004fe565b92915050565b60006200053c82620004ea565b9050919050565b6200054e816200052f565b81146200055a57600080fd5b50565b6000815190506200056e8162000543565b92915050565b600080604083850312156200058e576200058d620004c5565b5b60006200059e8582860162000518565b9250506020620005b1858286016200055d565b9150509250929050565b6112d180620005cb6000396000f3fe608060405234801561001057600080fd5b50600436106100b45760003560e01c80638da5cb5b116100715780638da5cb5b146101695780639be0df4214610187578063bedb86fb146101a3578063c023134c146101bf578063c5f956af146101ef578063dd6de52f1461020d576100b4565b80630292eb64146100b957806306fdde03146100c35780631e2ff94f146100e15780635c975abb146100ff5780636605bfda1461011d57806370ae92d214610139575b600080fd5b6100c161023d565b005b6100cb610246565b6040516100d89190610a09565b60405180910390f35b6100e96102d4565b6040516100f69190610a44565b60405180910390f35b6101076102da565b6040516101149190610a7a565b60405180910390f35b61013760048036038101906101329190610af8565b6102ed565b005b610153600480360381019061014e9190610af8565b610430565b6040516101609190610a44565b60405180910390f35b610171610448565b60405161017e9190610b34565b60405180910390f35b6101a1600480360381019061019c9190610bea565b61046e565b005b6101bd60048036038101906101b89190610ca3565b6106e6565b005b6101d960048036038101906101d49190610af8565b610793565b6040516101e69190610a7a565b60405180910390f35b6101f76107b3565b6040516102049190610b34565b60405180910390f35b61022760048036038101906102229190610bea565b6107d9565b6040516102349190610a7a565b60405180910390f35b42600681905550565b6000805461025390610cff565b80601f016020809104026020016040519081016040528092919081815260200182805461027f90610cff565b80156102cc5780601f106102a1576101008083540402835291602001916102cc565b820191906000526020600020905b8154815290600101906020018083116102af57829003601f168201915b505050505081565b60065481565b600560009054906101000a900460ff1681565b600160009054906101000a900473ffffffffffffffffffffffffffffffffffffffff1673ffffffffffffffffffffffffffffffffffffffff163373ffffffffffffffffffffffffffffffffffffffff161461037d576040517f08c379a000000000000000000000000000000000000000000000000000000000815260040161037490610da2565b60405180910390fd5b600073ffffffffffffffffffffffffffffffffffffffff168173ffffffffffffffffffffffffffffffffffffffff16036103ec576040517f08c379a00000000000000000000000000000000000000000000000000000000081526004016103e390610e0e565b60405180910390fd5b80600260006101000a81548173ffffffffffffffffffffffffffffffffffffffff021916908373ffffffffffffffffffffffffffffffffffffffff16021790555050565b60046020528060005260406000206000915090505481565b600160009054906101000a900473ffffffffffffffffffffffffffffffffffffffff1681565b600560009054906101000a900460ff16156104be576040517f08c379a00000000000000000000000000000000000000000000000000000000081526004016104b590610e7a565b60405180910390fd5b60008611610501576040517f08c379a00000000000000000000000000000000000000000000000000000000081526004016104f890610ee6565b60405180910390fd5b834210610543576040517f08c379a000000000000000000000000000000000000000000000000000000000815260040161053a90610f52565b60405180910390fd5b6105518686868686866107d9565b610590576040517f08c379a000000000000000000000000000000000000000000000000000000000815260040161058790610fbe565b60405180910390fd5b600560009054906101000a900460ff16156105e0576040517f08c379a00000000000000000000000000000000000000000000000000000000081526004016105d79061102a565b60405180910390fd5b600760009054906101000a900473ffffffffffffffffffffffffffffffffffffffff1673ffffffffffffffffffffffffffffffffffffffff166323b872dd600260009054906101000a900473ffffffffffffffffffffffffffffffffffffffff1687896040518463ffffffff1660e01b81526004016106619392919061104a565b6020604051808303816000875af1158015610680573d6000803e3d6000fd5b505050506040513d601f19601f820116820180604052508101906106a49190611096565b507f884edad9ce6fa2440d8a54cc123490eb96d2768479d49ff9c7366125a942436433876040516106d69291906110c3565b60405180910390a1505050505050565b600160009054906101000a900473ffffffffffffffffffffffffffffffffffffffff1673ffffffffffffffffffffffffffffffffffffffff163373ffffffffffffffffffffffffffffffffffffffff1614610776576040517f08c379a000000000000000000000000000000000000000000000000000000000815260040161076d90610da2565b60405180910390fd5b80600560006101000a81548160ff02191690831515021790555050565b60036020528060005260406000206000915054906101000a900460ff1681565b600260009054906101000a900473ffffffffffffffffffffffffffffffffffffffff1681565b6000806040518060400160405280601c81526020017f19457468657265756d205369676e6564204d6573736167653a0a33320000000081525090506000888888600460008c73ffffffffffffffffffffffffffffffffffffffff1673ffffffffffffffffffffffffffffffffffffffff16815260200190815260200160002060008154809291906108699061111b565b919050556040516020016108809493929190611163565b604051602081830303815290604052805190602001209050600082826040516020016108ad929190611210565b6040516020818303038152906040528051906020012090506000600182898989604051600081526020016040526040516108ea9493929190611256565b6020604051602081039080840390855afa15801561090c573d6000803e3d6000fd5b505050602060405103519050600160009054906101000a900473ffffffffffffffffffffffffffffffffffffffff1673ffffffffffffffffffffffffffffffffffffffff168173ffffffffffffffffffffffffffffffffffffffff16149450505050509695505050505050565b600081519050919050565b600082825260208201905092915050565b60005b838110156109b3578082015181840152602081019050610998565b60008484015250505050565b6000601f19601f8301169050919050565b60006109db82610979565b6109e58185610984565b93506109f5818560208601610995565b6109fe816109bf565b840191505092915050565b60006020820190508181036000830152610a2381846109d0565b905092915050565b6000819050919050565b610a3e81610a2b565b82525050565b6000602082019050610a596000830184610a35565b92915050565b60008115159050919050565b610a7481610a5f565b82525050565b6000602082019050610a8f6000830184610a6b565b92915050565b600080fd5b600073ffffffffffffffffffffffffffffffffffffffff82169050919050565b6000610ac582610a9a565b9050919050565b610ad581610aba565b8114610ae057600080fd5b50565b600081359050610af281610acc565b92915050565b600060208284031215610b0e57610b0d610a95565b5b6000610b1c84828501610ae3565b91505092915050565b610b2e81610aba565b82525050565b6000602082019050610b496000830184610b25565b92915050565b610b5881610a2b565b8114610b6357600080fd5b50565b600081359050610b7581610b4f565b92915050565b600060ff82169050919050565b610b9181610b7b565b8114610b9c57600080fd5b50565b600081359050610bae81610b88565b92915050565b6000819050919050565b610bc781610bb4565b8114610bd257600080fd5b50565b600081359050610be481610bbe565b92915050565b60008060008060008060c08789031215610c0757610c06610a95565b5b6000610c1589828a01610b66565b9650506020610c2689828a01610ae3565b9550506040610c3789828a01610b66565b9450506060610c4889828a01610b9f565b9350506080610c5989828a01610bd5565b92505060a0610c6a89828a01610bd5565b9150509295509295509295565b610c8081610a5f565b8114610c8b57600080fd5b50565b600081359050610c9d81610c77565b92915050565b600060208284031215610cb957610cb8610a95565b5b6000610cc784828501610c8e565b91505092915050565b7f4e487b7100000000000000000000000000000000000000000000000000000000600052602260045260246000fd5b60006002820490506001821680610d1757607f821691505b602082108103610d2a57610d29610cd0565b5b50919050565b7f4f6e6c7920746865206f776e6572206f6620636f6e74726163742063616e206360008201527f616c6c20746869732066756e6374696f6e000000000000000000000000000000602082015250565b6000610d8c603183610984565b9150610d9782610d30565b604082019050919050565b60006020820190508181036000830152610dbb81610d7f565b9050919050565b7f416464726573732063616e74206265207a65726f000000000000000000000000600082015250565b6000610df8601483610984565b9150610e0382610dc2565b602082019050919050565b60006020820190508181036000830152610e2781610deb565b9050919050565b7f5061757365642100000000000000000000000000000000000000000000000000600082015250565b6000610e64600783610984565b9150610e6f82610e2e565b602082019050919050565b60006020820190508181036000830152610e9381610e57565b9050919050565b7f416d6f756e742063616e6e6f7420626520300000000000000000000000000000600082015250565b6000610ed0601283610984565b9150610edb82610e9a565b602082019050919050565b60006020820190508181036000830152610eff81610ec3565b9050919050565b7f54696d656f757400000000000000000000000000000000000000000000000000600082015250565b6000610f3c600783610984565b9150610f4782610f06565b602082019050919050565b60006020820190508181036000830152610f6b81610f2f565b9050919050565b7f4e6f742041636365707465640000000000000000000000000000000000000000600082015250565b6000610fa8600c83610984565b9150610fb382610f72565b602082019050919050565b60006020820190508181036000830152610fd781610f9b565b9050919050565b7f436f6e747261637420656e640000000000000000000000000000000000000000600082015250565b6000611014600c83610984565b915061101f82610fde565b602082019050919050565b6000602082019050818103600083015261104381611007565b9050919050565b600060608201905061105f6000830186610b25565b61106c6020830185610b25565b6110796040830184610a35565b949350505050565b60008151905061109081610c77565b92915050565b6000602082840312156110ac576110ab610a95565b5b60006110ba84828501611081565b91505092915050565b60006040820190506110d86000830185610b25565b6110e56020830184610a35565b9392505050565b7f4e487b7100000000000000000000000000000000000000000000000000000000600052601160045260246000fd5b600061112682610a2b565b91507fffffffffffffffffffffffffffffffffffffffffffffffffffffffffffffffff8203611158576111576110ec565b5b600182019050919050565b60006080820190506111786000830187610a35565b6111856020830186610b25565b6111926040830185610a35565b61119f6060830184610a35565b95945050505050565b600081519050919050565b600081905092915050565b60006111c9826111a8565b6111d381856111b3565b93506111e3818560208601610995565b80840191505092915050565b6000819050919050565b61120a61120582610bb4565b6111ef565b82525050565b600061121c82856111be565b915061122882846111f9565b6020820191508190509392505050565b61124181610bb4565b82525050565b61125081610b7b565b82525050565b600060808201905061126b6000830187611238565b6112786020830186611247565b6112856040830185611238565b6112926060830184611238565b9594505050505056fea264697066735822122061d28111e816aac59d0f7ba55abe2aded42800a7c566743d23e9dfdb621e69ee64736f6c63430008120033",
  "linkReferences": {},
  "deployedLinkReferences": {}
}