{
  "_format": "hh-sol-artifact-1",
  "contractName": "ICORefferal",
  "sourceName": "contracts/ICORefferal.sol",
  "abi": [
    {
      "inputs": [
        {
          "internalType": "address",
          "name": "_treasuryAddress",
          "type": "address"
        },
        {
          "internalType": "contract IERC20",
          "name": "_withdrawToken",
          "type": "address"
        }
      ],
      "stateMutability": "nonpayable",
      "type": "constructor"
    },
    {
      "anonymous": false,
      "inputs": [
        {
          "indexed": false,
          "internalType": "address",
          "name": "user",
          "type": "address"
        },
        {
          "indexed": false,
          "internalType": "uint256",
          "name": "amount",
          "type": "uint256"
        }
      ],
      "name": "Withdraw",
      "type": "event"
    },
    {
      "inputs": [],
      "name": "currentTimestamp",
      "outputs": [
        {
          "internalType": "uint256",
          "name": "",
          "type": "uint256"
        }
      ],
      "stateMutability": "view",
      "type": "function"
    },
    {
      "inputs": [],
      "name": "name",
      "outputs": [
        {
          "internalType": "string",
          "name": "",
          "type": "string"
        }
      ],
      "stateMutability": "view",
      "type": "function"
    },
    {
      "inputs": [
        {
          "internalType": "address",
          "name": "",
          "type": "address"
        }
      ],
      "name": "nonce",
      "outputs": [
        {
          "internalType": "uint256",
          "name": "",
          "type": "uint256"
        }
      ],
      "stateMutability": "view",
      "type": "function"
    },
    {
      "inputs": [],
      "name": "owner",
      "outputs": [
        {
          "internalType": "address",
          "name": "",
          "type": "address"
        }
      ],
      "stateMutability": "view",
      "type": "function"
    },
    {
      "inputs": [],
      "name": "paused",
      "outputs": [
        {
          "internalType": "bool",
          "name": "",
          "type": "bool"
        }
      ],
      "stateMutability": "view",
      "type": "function"
    },
    {
      "inputs": [],
      "name": "setCurrentTimestamp",
      "outputs": [],
      "stateMutability": "nonpayable",
      "type": "function"
    },
    {
      "inputs": [
        {
          "internalType": "bool",
          "name": "_paused",
          "type": "bool"
        }
      ],
      "name": "setPause",
      "outputs": [],
      "stateMutability": "nonpayable",
      "type": "function"
    },
    {
      "inputs": [
        {
          "internalType": "address",
          "name": "_treasuryAddress",
          "type": "address"
        }
      ],
      "name": "setTreasuryAddress",
      "outputs": [],
      "stateMutability": "nonpayable",
      "type": "function"
    },
    {
      "inputs": [],
      "name": "treasuryAddress",
      "outputs": [
        {
          "internalType": "address",
          "name": "",
          "type": "address"
        }
      ],
      "stateMutability": "view",
      "type": "function"
    },
    {
      "inputs": [
        {
          "internalType": "uint256",
          "name": "_value",
          "type": "uint256"
        },
        {
          "internalType": "address",
          "name": "_sender",
          "type": "address"
        },
        {
          "internalType": "uint256",
          "name": "_timeout",
          "type": "uint256"
        },
        {
          "internalType": "uint8",
          "name": "_v",
          "type": "uint8"
        },
        {
          "internalType": "bytes32",
          "name": "_r",
          "type": "bytes32"
        },
        {
          "internalType": "bytes32",
          "name": "_s",
          "type": "bytes32"
        }
      ],
      "name": "verifyMessage",
      "outputs": [
        {
          "internalType": "bool",
          "name": "",
          "type": "bool"
        }
      ],
      "stateMutability": "nonpayable",
      "type": "function"
    },
    {
      "inputs": [
        {
          "internalType": "uint256",
          "name": "_amount",
          "type": "uint256"
        },
        {
          "internalType": "address",
          "name": "_address",
          "type": "address"
        },
        {
          "internalType": "uint256",
          "name": "_timeout",
          "type": "uint256"
        },
        {
          "internalType": "uint8",
          "name": "_v",
          "type": "uint8"
        },
        {
          "internalType": "bytes32",
          "name": "_r",
          "type": "bytes32"
        },
        {
          "internalType": "bytes32",
          "name": "_s",
          "type": "bytes32"
        }
      ],
      "name": "withdrawPermit",
      "outputs": [],
      "stateMutability": "nonpayable",
      "type": "function"
    },
    {
      "inputs": [
        {
          "internalType": "address",
          "name": "",
          "type": "address"
        }
      ],
      "name": "withdrawTokensWhitelist",
      "outputs": [
        {
          "internalType": "bool",
          "name": "",
          "type": "bool"
        }
      ],
      "stateMutability": "view",
      "type": "function"
    }
  ],
  "bytecode": "0x60c0604052600c60809081526b1250d3c814995999995c985b60a21b60a0526000906200002d90826200014a565b503480156200003b57600080fd5b5060405162000b7638038062000b768339810160408190526200005e916200022f565b600180546001600160a01b03199081163317909155600280546001600160a01b03948516908316179055600780549290931691161790556005805460ff191690556200026e565b634e487b7160e01b600052604160045260246000fd5b600181811c90821680620000d057607f821691505b602082108103620000f157634e487b7160e01b600052602260045260246000fd5b50919050565b601f8211156200014557600081815260208120601f850160051c81016020861015620001205750805b601f850160051c820191505b8181101562000141578281556001016200012c565b5050505b505050565b81516001600160401b03811115620001665762000166620000a5565b6200017e81620001778454620000bb565b84620000f7565b602080601f831160018114620001b657600084156200019d5750858301515b600019600386901b1c1916600185901b17855562000141565b600085815260208120601f198616915b82811015620001e757888601518255948401946001909101908401620001c6565b5085821015620002065787850151600019600388901b60f8161c191681555b5050505050600190811b01905550565b6001600160a01b03811681146200022c57600080fd5b50565b600080604083850312156200024357600080fd5b8251620002508162000216565b6020840151909250620002638162000216565b809150509250929050565b6108f8806200027e6000396000f3fe608060405234801561001057600080fd5b50600436106100b45760003560e01c80638da5cb5b116100715780638da5cb5b146101495780639be0df4214610174578063bedb86fb14610187578063c023134c1461019a578063c5f956af146101bd578063dd6de52f146101d057600080fd5b80630292eb64146100b957806306fdde03146100c45780631e2ff94f146100e25780635c975abb146100f95780636605bfda1461011657806370ae92d214610129575b600080fd5b6100c242600655565b005b6100cc6101e3565b6040516100d991906106d2565b60405180910390f35b6100eb60065481565b6040519081526020016100d9565b6005546101069060ff1681565b60405190151581526020016100d9565b6100c2610124366004610721565b610271565b6100eb610137366004610721565b60046020526000908152604090205481565b60015461015c906001600160a01b031681565b6040516001600160a01b0390911681526020016100d9565b6100c2610182366004610743565b610313565b6100c26101953660046107b4565b61051c565b6101066101a8366004610721565b60036020526000908152604090205460ff1681565b60025461015c906001600160a01b031681565b6101066101de366004610743565b610559565b600080546101f0906107d1565b80601f016020809104026020016040519081016040528092919081815260200182805461021c906107d1565b80156102695780601f1061023e57610100808354040283529160200191610269565b820191906000526020600020905b81548152906001019060200180831161024c57829003601f168201915b505050505081565b6001546001600160a01b031633146102a45760405162461bcd60e51b815260040161029b9061080b565b60405180910390fd5b6001600160a01b0381166102f15760405162461bcd60e51b8152602060048201526014602482015273416464726573732063616e74206265207a65726f60601b604482015260640161029b565b600280546001600160a01b0319166001600160a01b0392909216919091179055565b60055460ff16156103505760405162461bcd60e51b81526020600482015260076024820152665061757365642160c81b604482015260640161029b565b600086116103955760405162461bcd60e51b81526020600482015260126024820152710416d6f756e742063616e6e6f7420626520360741b604482015260640161029b565b8342106103ce5760405162461bcd60e51b8152602060048201526007602482015266151a5b595bdd5d60ca1b604482015260640161029b565b6103dc868686868686610559565b6104175760405162461bcd60e51b815260206004820152600c60248201526b139bdd081058d8d95c1d195960a21b604482015260640161029b565b60055460ff16156104595760405162461bcd60e51b815260206004820152600c60248201526b10dbdb9d1c9858dd08195b9960a21b604482015260640161029b565b6007546002546040516323b872dd60e01b81526001600160a01b0391821660048201528782166024820152604481018990529116906323b872dd906064016020604051808303816000875af11580156104b6573d6000803e3d6000fd5b505050506040513d601f19601f820116820180604052508101906104da919061085c565b5060408051338152602081018890527f884edad9ce6fa2440d8a54cc123490eb96d2768479d49ff9c7366125a9424364910160405180910390a1505050505050565b6001546001600160a01b031633146105465760405162461bcd60e51b815260040161029b9061080b565b6005805460ff1916911515919091179055565b604080518082018252601c81527f19457468657265756d205369676e6564204d6573736167653a0a3332000000006020808301919091526001600160a01b03881660009081526004909152918220805483918a918a918a9190856105bc83610879565b909155506040805160208101959095526001600160a01b03909316928401929092526060830152608082015260a001604051602081830303815290604052805190602001209050600082826040516020016106189291906108a0565b60408051601f198184030181528282528051602091820120600080855291840180845281905260ff8b169284019290925260608301899052608083018890529092509060019060a0016020604051602081039080840390855afa158015610683573d6000803e3d6000fd5b5050604051601f1901516001546001600160a01b039081169116149c9b505050505050505050505050565b60005b838110156106c95781810151838201526020016106b1565b50506000910152565b60208152600082518060208401526106f18160408501602087016106ae565b601f01601f19169190910160400192915050565b80356001600160a01b038116811461071c57600080fd5b919050565b60006020828403121561073357600080fd5b61073c82610705565b9392505050565b60008060008060008060c0878903121561075c57600080fd5b8635955061076c60208801610705565b945060408701359350606087013560ff8116811461078957600080fd5b9598949750929560808101359460a0909101359350915050565b80151581146107b157600080fd5b50565b6000602082840312156107c657600080fd5b813561073c816107a3565b600181811c908216806107e557607f821691505b60208210810361080557634e487b7160e01b600052602260045260246000fd5b50919050565b60208082526031908201527f4f6e6c7920746865206f776e6572206f6620636f6e74726163742063616e206360408201527030b636103a3434b990333ab731ba34b7b760791b606082015260800190565b60006020828403121561086e57600080fd5b815161073c816107a3565b60006001820161089957634e487b7160e01b600052601160045260246000fd5b5060010190565b600083516108b28184602088016106ae565b919091019182525060200191905056fea2646970667358221220b37e7da32af310ab5924da281e959fbc5ac6a9e70fdfe4abeca8c7dff7bdd9f064736f6c63430008120033",
  "linkReferences": {},
  "deployedLinkReferences": {}
}