{
  "_format": "hh-sol-artifact-1",
  "contractName": "HOMES",
  "sourceName": "contracts/HOMES.sol",
  "abi": [
    {
      "inputs": [],
      "stateMutability": "nonpayable",
      "type": "constructor"
    },
    {
      "anonymous": false,
      "inputs": [
        {
          "indexed": true,
          "internalType": "address",
          "name": "owner",
          "type": "address"
        },
        {
          "indexed": true,
          "internalType": "address",
          "name": "spender",
          "type": "address"
        },
        {
          "indexed": false,
          "internalType": "uint256",
          "name": "value",
          "type": "uint256"
        }
      ],
      "name": "Approval",
      "type": "event"
    },
    {
      "anonymous": false,
      "inputs": [
        {
          "indexed": false,
          "internalType": "address",
          "name": "account",
          "type": "address"
        }
      ],
      "name": "Paused",
      "type": "event"
    },
    {
      "anonymous": false,
      "inputs": [
        {
          "indexed": true,
          "internalType": "bytes32",
          "name": "role",
          "type": "bytes32"
        },
        {
          "indexed": true,
          "internalType": "bytes32",
          "name": "previousAdminRole",
          "type": "bytes32"
        },
        {
          "indexed": true,
          "internalType": "bytes32",
          "name": "newAdminRole",
          "type": "bytes32"
        }
      ],
      "name": "RoleAdminChanged",
      "type": "event"
    },
    {
      "anonymous": false,
      "inputs": [
        {
          "indexed": true,
          "internalType": "bytes32",
          "name": "role",
          "type": "bytes32"
        },
        {
          "indexed": true,
          "internalType": "address",
          "name": "account",
          "type": "address"
        },
        {
          "indexed": true,
          "internalType": "address",
          "name": "sender",
          "type": "address"
        }
      ],
      "name": "RoleGranted",
      "type": "event"
    },
    {
      "anonymous": false,
      "inputs": [
        {
          "indexed": true,
          "internalType": "bytes32",
          "name": "role",
          "type": "bytes32"
        },
        {
          "indexed": true,
          "internalType": "address",
          "name": "account",
          "type": "address"
        },
        {
          "indexed": true,
          "internalType": "address",
          "name": "sender",
          "type": "address"
        }
      ],
      "name": "RoleRevoked",
      "type": "event"
    },
    {
      "anonymous": false,
      "inputs": [
        {
          "indexed": true,
          "internalType": "address",
          "name": "from",
          "type": "address"
        },
        {
          "indexed": true,
          "internalType": "address",
          "name": "to",
          "type": "address"
        },
        {
          "indexed": false,
          "internalType": "uint256",
          "name": "value",
          "type": "uint256"
        }
      ],
      "name": "Transfer",
      "type": "event"
    },
    {
      "anonymous": false,
      "inputs": [
        {
          "indexed": false,
          "internalType": "address",
          "name": "account",
          "type": "address"
        }
      ],
      "name": "Unpaused",
      "type": "event"
    },
    {
      "inputs": [],
      "name": "ADMIN",
      "outputs": [
        {
          "internalType": "bytes32",
          "name": "",
          "type": "bytes32"
        }
      ],
      "stateMutability": "view",
      "type": "function"
    },
    {
      "inputs": [],
      "name": "DEFAULT_ADMIN_ROLE",
      "outputs": [
        {
          "internalType": "bytes32",
          "name": "",
          "type": "bytes32"
        }
      ],
      "stateMutability": "view",
      "type": "function"
    },
    {
      "inputs": [
        {
          "internalType": "address",
          "name": "owner",
          "type": "address"
        },
        {
          "internalType": "address",
          "name": "spender",
          "type": "address"
        }
      ],
      "name": "allowance",
      "outputs": [
        {
          "internalType": "uint256",
          "name": "",
          "type": "uint256"
        }
      ],
      "stateMutability": "view",
      "type": "function"
    },
    {
      "inputs": [
        {
          "internalType": "address",
          "name": "spender",
          "type": "address"
        },
        {
          "internalType": "uint256",
          "name": "amount",
          "type": "uint256"
        }
      ],
      "name": "approve",
      "outputs": [
        {
          "internalType": "bool",
          "name": "",
          "type": "bool"
        }
      ],
      "stateMutability": "nonpayable",
      "type": "function"
    },
    {
      "inputs": [
        {
          "internalType": "address",
          "name": "account",
          "type": "address"
        }
      ],
      "name": "balanceOf",
      "outputs": [
        {
          "internalType": "uint256",
          "name": "",
          "type": "uint256"
        }
      ],
      "stateMutability": "view",
      "type": "function"
    },
    {
      "inputs": [
        {
          "internalType": "uint256",
          "name": "amount",
          "type": "uint256"
        }
      ],
      "name": "burn",
      "outputs": [],
      "stateMutability": "nonpayable",
      "type": "function"
    },
    {
      "inputs": [
        {
          "internalType": "address",
          "name": "account",
          "type": "address"
        },
        {
          "internalType": "uint256",
          "name": "amount",
          "type": "uint256"
        }
      ],
      "name": "burnFrom",
      "outputs": [],
      "stateMutability": "nonpayable",
      "type": "function"
    },
    {
      "inputs": [],
      "name": "decimals",
      "outputs": [
        {
          "internalType": "uint8",
          "name": "",
          "type": "uint8"
        }
      ],
      "stateMutability": "view",
      "type": "function"
    },
    {
      "inputs": [
        {
          "internalType": "address",
          "name": "spender",
          "type": "address"
        },
        {
          "internalType": "uint256",
          "name": "subtractedValue",
          "type": "uint256"
        }
      ],
      "name": "decreaseAllowance",
      "outputs": [
        {
          "internalType": "bool",
          "name": "",
          "type": "bool"
        }
      ],
      "stateMutability": "nonpayable",
      "type": "function"
    },
    {
      "inputs": [
        {
          "internalType": "address",
          "name": "account",
          "type": "address"
        }
      ],
      "name": "getLockListByAddress",
      "outputs": [
        {
          "components": [
            {
              "internalType": "uint256",
              "name": "lockAmount",
              "type": "uint256"
            }
          ],
          "internalType": "struct HOMES.lockInfo",
          "name": "",
          "type": "tuple"
        }
      ],
      "stateMutability": "view",
      "type": "function"
    },
    {
      "inputs": [
        {
          "internalType": "bytes32",
          "name": "role",
          "type": "bytes32"
        }
      ],
      "name": "getRoleAdmin",
      "outputs": [
        {
          "internalType": "bytes32",
          "name": "",
          "type": "bytes32"
        }
      ],
      "stateMutability": "view",
      "type": "function"
    },
    {
      "inputs": [
        {
          "internalType": "bytes32",
          "name": "role",
          "type": "bytes32"
        },
        {
          "internalType": "address",
          "name": "account",
          "type": "address"
        }
      ],
      "name": "grantRole",
      "outputs": [],
      "stateMutability": "nonpayable",
      "type": "function"
    },
    {
      "inputs": [
        {
          "internalType": "bytes32",
          "name": "role",
          "type": "bytes32"
        },
        {
          "internalType": "address",
          "name": "account",
          "type": "address"
        }
      ],
      "name": "hasRole",
      "outputs": [
        {
          "internalType": "bool",
          "name": "",
          "type": "bool"
        }
      ],
      "stateMutability": "view",
      "type": "function"
    },
    {
      "inputs": [
        {
          "internalType": "address",
          "name": "spender",
          "type": "address"
        },
        {
          "internalType": "uint256",
          "name": "addedValue",
          "type": "uint256"
        }
      ],
      "name": "increaseAllowance",
      "outputs": [
        {
          "internalType": "bool",
          "name": "",
          "type": "bool"
        }
      ],
      "stateMutability": "nonpayable",
      "type": "function"
    },
    {
      "inputs": [
        {
          "internalType": "address",
          "name": "account",
          "type": "address"
        },
        {
          "internalType": "uint256",
          "name": "amount",
          "type": "uint256"
        }
      ],
      "name": "lockAddress",
      "outputs": [],
      "stateMutability": "nonpayable",
      "type": "function"
    },
    {
      "inputs": [
        {
          "internalType": "address",
          "name": "",
          "type": "address"
        }
      ],
      "name": "lockList",
      "outputs": [
        {
          "internalType": "uint256",
          "name": "lockAmount",
          "type": "uint256"
        }
      ],
      "stateMutability": "view",
      "type": "function"
    },
    {
      "inputs": [
        {
          "internalType": "address",
          "name": "to",
          "type": "address"
        },
        {
          "internalType": "uint256",
          "name": "amount",
          "type": "uint256"
        }
      ],
      "name": "mint",
      "outputs": [],
      "stateMutability": "nonpayable",
      "type": "function"
    },
    {
      "inputs": [],
      "name": "name",
      "outputs": [
        {
          "internalType": "string",
          "name": "",
          "type": "string"
        }
      ],
      "stateMutability": "view",
      "type": "function"
    },
    {
      "inputs": [],
      "name": "pause",
      "outputs": [],
      "stateMutability": "nonpayable",
      "type": "function"
    },
    {
      "inputs": [],
      "name": "paused",
      "outputs": [
        {
          "internalType": "bool",
          "name": "",
          "type": "bool"
        }
      ],
      "stateMutability": "view",
      "type": "function"
    },
    {
      "inputs": [
        {
          "internalType": "bytes32",
          "name": "role",
          "type": "bytes32"
        },
        {
          "internalType": "address",
          "name": "account",
          "type": "address"
        }
      ],
      "name": "renounceRole",
      "outputs": [],
      "stateMutability": "nonpayable",
      "type": "function"
    },
    {
      "inputs": [
        {
          "internalType": "bytes32",
          "name": "role",
          "type": "bytes32"
        },
        {
          "internalType": "address",
          "name": "account",
          "type": "address"
        }
      ],
      "name": "revokeRole",
      "outputs": [],
      "stateMutability": "nonpayable",
      "type": "function"
    },
    {
      "inputs": [
        {
          "internalType": "bool",
          "name": "_underLock",
          "type": "bool"
        }
      ],
      "name": "setUnderLock",
      "outputs": [],
      "stateMutability": "nonpayable",
      "type": "function"
    },
    {
      "inputs": [
        {
          "internalType": "bytes4",
          "name": "interfaceId",
          "type": "bytes4"
        }
      ],
      "name": "supportsInterface",
      "outputs": [
        {
          "internalType": "bool",
          "name": "",
          "type": "bool"
        }
      ],
      "stateMutability": "view",
      "type": "function"
    },
    {
      "inputs": [],
      "name": "symbol",
      "outputs": [
        {
          "internalType": "string",
          "name": "",
          "type": "string"
        }
      ],
      "stateMutability": "view",
      "type": "function"
    },
    {
      "inputs": [],
      "name": "totalSupply",
      "outputs": [
        {
          "internalType": "uint256",
          "name": "",
          "type": "uint256"
        }
      ],
      "stateMutability": "view",
      "type": "function"
    },
    {
      "inputs": [
        {
          "internalType": "address",
          "name": "to",
          "type": "address"
        },
        {
          "internalType": "uint256",
          "name": "amount",
          "type": "uint256"
        }
      ],
      "name": "transfer",
      "outputs": [
        {
          "internalType": "bool",
          "name": "",
          "type": "bool"
        }
      ],
      "stateMutability": "nonpayable",
      "type": "function"
    },
    {
      "inputs": [
        {
          "internalType": "address",
          "name": "from",
          "type": "address"
        },
        {
          "internalType": "address",
          "name": "to",
          "type": "address"
        },
        {
          "internalType": "uint256",
          "name": "amount",
          "type": "uint256"
        }
      ],
      "name": "transferFrom",
      "outputs": [
        {
          "internalType": "bool",
          "name": "",
          "type": "bool"
        }
      ],
      "stateMutability": "nonpayable",
      "type": "function"
    },
    {
      "inputs": [],
      "name": "underLock",
      "outputs": [
        {
          "internalType": "bool",
          "name": "",
          "type": "bool"
        }
      ],
      "stateMutability": "view",
      "type": "function"
    },
    {
      "inputs": [
        {
          "internalType": "address",
          "name": "from",
          "type": "address"
        }
      ],
      "name": "unlockAddress",
      "outputs": [],
      "stateMutability": "nonpayable",
      "type": "function"
    },
    {
      "inputs": [],
      "name": "unpause",
      "outputs": [],
      "stateMutability": "nonpayable",
      "type": "function"
    }
  ],
  "bytecode": "0x60806040526008805460ff191660011790553480156200001e57600080fd5b506040518060400160405280600e81526020016d20a4902427a6a2a9902a27a5a2a760911b81525060405180604001604052806005815260200164484f4d455360d81b8152508160039081620000759190620004f9565b506004620000848282620004f9565b50506005805460ff19169055506200009e600033620000f9565b620000ca7fdf8b4c520ffe197c5343c6f5aec59570151ef9a492f2c624fd45ddde6135ec4233620000f9565b620000f333620000dd6012600a620006d8565b620000ed90633b9aca00620006f0565b62000184565b620007a0565b6200010582826200027b565b620001805760008281526006602090815260408083206001600160a01b03851684529091529020805460ff191660011790556200013f3390565b6001600160a01b0316816001600160a01b0316837f2f8788117e7eff1d82e926ec794901d17c78024a50270940304540a733656f0d60405160405180910390a45b5050565b6001600160a01b038216620001e05760405162461bcd60e51b815260206004820152601f60248201527f45524332303a206d696e7420746f20746865207a65726f20616464726573730060448201526064015b60405180910390fd5b620001ee60008383620002a8565b80600260008282546200020291906200070a565b90915550506001600160a01b03821660009081526020819052604081208054839290620002319084906200070a565b90915550506040518181526001600160a01b038316906000907fddf252ad1be2c89b69c2b068fc378daa952ba7f163c4a11628f55a4df523b3ef9060200160405180910390a35050565b60008281526006602090815260408083206001600160a01b038516845290915290205460ff165b92915050565b60055460ff1615620002f05760405162461bcd60e51b815260206004820152601060248201526f14185d5cd8589b194e881c185d5cd95960821b6044820152606401620001d7565b82816001600160a01b0382161580159062000312575060085460ff1615156001145b156200038257620003248282620003a6565b151560000362000382576040517f4c6f636b3a20596f757220746f6b656e206973206c6f636b0000000000000000602082015260380160408051601f198184030181529082905262461bcd60e51b8252620001d79160040162000720565b6200039a858585620003a160201b620006021760201c565b5050505050565b505050565b6040516370a0823160e01b81526001600160a01b0383166004820152600090600190829030906370a0823190602401602060405180830381865afa158015620003f3573d6000803e3d6000fd5b505050506040513d601f19601f8201168201806040525081019062000419919062000770565b6001600160a01b0386166000908152600760205260409020549091506200044185836200078a565b10156200044d57600091505b509392505050565b634e487b7160e01b600052604160045260246000fd5b600181811c908216806200048057607f821691505b602082108103620004a157634e487b7160e01b600052602260045260246000fd5b50919050565b601f821115620003a157600081815260208120601f850160051c81016020861015620004d05750805b601f850160051c820191505b81811015620004f157828155600101620004dc565b505050505050565b81516001600160401b0381111562000515576200051562000455565b6200052d816200052684546200046b565b84620004a7565b602080601f8311600181146200056557600084156200054c5750858301515b600019600386901b1c1916600185901b178555620004f1565b600085815260208120601f198616915b82811015620005965788860151825594840194600190910190840162000575565b5085821015620005b55787850151600019600388901b60f8161c191681555b5050505050600190811b01905550565b634e487b7160e01b600052601160045260246000fd5b600181815b808511156200061c578160001904821115620006005762000600620005c5565b808516156200060e57918102915b93841c9390800290620005e0565b509250929050565b6000826200063557506001620002a2565b816200064457506000620002a2565b81600181146200065d5760028114620006685762000688565b6001915050620002a2565b60ff8411156200067c576200067c620005c5565b50506001821b620002a2565b5060208310610133831016604e8410600b8410161715620006ad575081810a620002a2565b620006b98383620005db565b8060001904821115620006d057620006d0620005c5565b029392505050565b6000620006e960ff84168362000624565b9392505050565b8082028115828204841417620002a257620002a2620005c5565b80820180821115620002a257620002a2620005c5565b600060208083528351808285015260005b818110156200074f5785810183015185820160400152820162000731565b506000604082860101526040601f19601f8301168501019250505092915050565b6000602082840312156200078357600080fd5b5051919050565b81810381811115620002a257620002a2620005c5565b61176280620007b06000396000f3fe608060405234801561001057600080fd5b50600436106101e55760003560e01c806342966c681161010f57806395d89b41116100a2578063b7eb5e0a11610071578063b7eb5e0a1461042b578063d547741f1461043e578063d6bf21a714610451578063dd62ed3e1461047157600080fd5b806395d89b41146103f5578063a217fddf146103fd578063a457c2d714610405578063a9059cbb1461041857600080fd5b80637e02785c116100de5780637e02785c1461037c5780638456cb59146103cd57806391d14854146103d557806393fc6e96146103e857600080fd5b806342966c68146103225780635c975abb1461033557806370a082311461034057806379cc67901461036957600080fd5b80632a0acc6a1161018757806336568abe1161015657806336568abe146102e157806339509351146102f45780633f4ba83a1461030757806340c10f191461030f57600080fd5b80632a0acc6a146102975780632f2ff15d146102ac578063313ce567146102bf5780633328bd24146102ce57600080fd5b80630a881069116101c35780630a8810691461023a57806318160ddd1461024f57806323b872dd14610261578063248a9ca31461027457600080fd5b806301ffc9a7146101ea57806306fdde0314610212578063095ea7b314610227575b600080fd5b6101fd6101f83660046113ff565b6104aa565b60405190151581526020015b60405180910390f35b61021a6104e1565b604051610209919061144d565b6101fd61023536600461149c565b610573565b61024d6102483660046114c6565b61058b565b005b6002545b604051908152602001610209565b6101fd61026f3660046114e8565b6105b8565b610253610282366004611524565b60009081526006602052604090206001015490565b61025360008051602061170d83398151915281565b61024d6102ba36600461153d565b6105dc565b60405160128152602001610209565b61024d6102dc36600461149c565b610607565b61024d6102ef36600461153d565b61064c565b6101fd61030236600461149c565b6106cf565b61024d61070e565b61024d61031d36600461149c565b610732565b61024d610330366004611524565b610755565b60055460ff166101fd565b61025361034e366004611569565b6001600160a01b031660009081526020819052604090205490565b61024d61037736600461149c565b61075f565b6103be61038a366004611569565b60408051602080820183526000918290526001600160a01b0393909316815260078352819020815192830190915254815290565b60405190518152602001610209565b61024d610774565b6101fd6103e336600461153d565b610795565b6008546101fd9060ff1681565b61021a6107c0565b610253600081565b6101fd61041336600461149c565b6107cf565b6101fd61042636600461149c565b610861565b61024d610439366004611569565b61086f565b61024d61044c36600461153d565b6108a3565b61025361045f366004611569565b60076020526000908152604090205481565b61025361047f366004611584565b6001600160a01b03918216600090815260016020908152604080832093909416825291909152205490565b60006001600160e01b03198216637965db0b60e01b14806104db57506301ffc9a760e01b6001600160e01b03198316145b92915050565b6060600380546104f0906115ae565b80601f016020809104026020016040519081016040528092919081815260200182805461051c906115ae565b80156105695780601f1061053e57610100808354040283529160200191610569565b820191906000526020600020905b81548152906001019060200180831161054c57829003601f168201915b5050505050905090565b6000336105818185856108c9565b5060019392505050565b60008051602061170d8339815191526105a481336109ed565b506008805460ff1916911515919091179055565b6000336105c6858285610a51565b6105d1858585610ae3565b506001949350505050565b6000828152600660205260409020600101546105f881336109ed565b6106028383610cbc565b505050565b60008051602061170d83398151915261062081336109ed565b5060408051602080820183529281526001600160a01b0390931660009081526007909252902090519055565b6001600160a01b03811633146106c15760405162461bcd60e51b815260206004820152602f60248201527f416363657373436f6e74726f6c3a2063616e206f6e6c792072656e6f756e636560448201526e103937b632b9903337b91039b2b63360891b60648201526084015b60405180910390fd5b6106cb8282610d42565b5050565b3360008181526001602090815260408083206001600160a01b038716845290915281205490919061058190829086906107099087906115fe565b6108c9565b60008051602061170d83398151915261072781336109ed565b61072f610da9565b50565b60008051602061170d83398151915261074b81336109ed565b6106028383610e3c565b61072f3382610f27565b61076a823383610a51565b6106cb8282610f27565b60008051602061170d83398151915261078d81336109ed565b61072f611081565b60009182526006602090815260408084206001600160a01b0393909316845291905290205460ff1690565b6060600480546104f0906115ae565b3360008181526001602090815260408083206001600160a01b0387168452909152812054909190838110156108545760405162461bcd60e51b815260206004820152602560248201527f45524332303a2064656372656173656420616c6c6f77616e63652062656c6f77604482015264207a65726f60d81b60648201526084016106b8565b6105d182868684036108c9565b600033610581818585610ae3565b60008051602061170d83398151915261088881336109ed565b506001600160a01b0316600090815260076020526040812055565b6000828152600660205260409020600101546108bf81336109ed565b6106028383610d42565b6001600160a01b03831661092b5760405162461bcd60e51b8152602060048201526024808201527f45524332303a20617070726f76652066726f6d20746865207a65726f206164646044820152637265737360e01b60648201526084016106b8565b6001600160a01b03821661098c5760405162461bcd60e51b815260206004820152602260248201527f45524332303a20617070726f766520746f20746865207a65726f206164647265604482015261737360f01b60648201526084016106b8565b6001600160a01b0383811660008181526001602090815260408083209487168084529482529182902085905590518481527f8c5be1e5ebec7d5bd14f71427d1e84f3dd0314c0f7b2291e5b200ac8c7c3b925910160405180910390a3505050565b6109f78282610795565b6106cb57610a0f816001600160a01b031660146110fc565b610a1a8360206110fc565b604051602001610a2b929190611611565b60408051601f198184030181529082905262461bcd60e51b82526106b89160040161144d565b6001600160a01b038381166000908152600160209081526040808320938616835292905220546000198114610add5781811015610ad05760405162461bcd60e51b815260206004820152601d60248201527f45524332303a20696e73756666696369656e7420616c6c6f77616e636500000060448201526064016106b8565b610add84848484036108c9565b50505050565b6001600160a01b038316610b475760405162461bcd60e51b815260206004820152602560248201527f45524332303a207472616e736665722066726f6d20746865207a65726f206164604482015264647265737360d81b60648201526084016106b8565b6001600160a01b038216610ba95760405162461bcd60e51b815260206004820152602360248201527f45524332303a207472616e7366657220746f20746865207a65726f206164647260448201526265737360e81b60648201526084016106b8565b610bb483838361129f565b6001600160a01b03831660009081526020819052604090205481811015610c2c5760405162461bcd60e51b815260206004820152602660248201527f45524332303a207472616e7366657220616d6f756e7420657863656564732062604482015265616c616e636560d01b60648201526084016106b8565b6001600160a01b03808516600090815260208190526040808220858503905591851681529081208054849290610c639084906115fe565b92505081905550826001600160a01b0316846001600160a01b03167fddf252ad1be2c89b69c2b068fc378daa952ba7f163c4a11628f55a4df523b3ef84604051610caf91815260200190565b60405180910390a3610add565b610cc68282610795565b6106cb5760008281526006602090815260408083206001600160a01b03851684529091529020805460ff19166001179055610cfe3390565b6001600160a01b0316816001600160a01b0316837f2f8788117e7eff1d82e926ec794901d17c78024a50270940304540a733656f0d60405160405180910390a45050565b610d4c8282610795565b156106cb5760008281526006602090815260408083206001600160a01b0385168085529252808320805460ff1916905551339285917ff6391f5c32d9c69d2a47ea670b442974b53935d1edc7fd64eb21e047a839171b9190a45050565b60055460ff16610df25760405162461bcd60e51b815260206004820152601460248201527314185d5cd8589b194e881b9bdd081c185d5cd95960621b60448201526064016106b8565b6005805460ff191690557f5db9ee0a495bf2e6ff9c91a7834c1ba4fdd244a5e8aa4e537bd38aeae4b073aa335b6040516001600160a01b03909116815260200160405180910390a1565b6001600160a01b038216610e925760405162461bcd60e51b815260206004820152601f60248201527f45524332303a206d696e7420746f20746865207a65726f20616464726573730060448201526064016106b8565b610e9e6000838361129f565b8060026000828254610eb091906115fe565b90915550506001600160a01b03821660009081526020819052604081208054839290610edd9084906115fe565b90915550506040518181526001600160a01b038316906000907fddf252ad1be2c89b69c2b068fc378daa952ba7f163c4a11628f55a4df523b3ef9060200160405180910390a35050565b6001600160a01b038216610f875760405162461bcd60e51b815260206004820152602160248201527f45524332303a206275726e2066726f6d20746865207a65726f206164647265736044820152607360f81b60648201526084016106b8565b610f938260008361129f565b6001600160a01b038216600090815260208190526040902054818110156110075760405162461bcd60e51b815260206004820152602260248201527f45524332303a206275726e20616d6f756e7420657863656564732062616c616e604482015261636560f01b60648201526084016106b8565b6001600160a01b0383166000908152602081905260408120838303905560028054849290611036908490611686565b90915550506040518281526000906001600160a01b038516907fddf252ad1be2c89b69c2b068fc378daa952ba7f163c4a11628f55a4df523b3ef9060200160405180910390a3505050565b60055460ff16156110c75760405162461bcd60e51b815260206004820152601060248201526f14185d5cd8589b194e881c185d5cd95960821b60448201526064016106b8565b6005805460ff191660011790557f62e78cea01bee320cd4e420270b5ea74000d11b0c9f74754ebdbfc544b05a258610e1f3390565b6060600061110b836002611699565b6111169060026115fe565b67ffffffffffffffff81111561112e5761112e6116b0565b6040519080825280601f01601f191660200182016040528015611158576020820181803683370190505b509050600360fc1b81600081518110611173576111736116c6565b60200101906001600160f81b031916908160001a905350600f60fb1b816001815181106111a2576111a26116c6565b60200101906001600160f81b031916908160001a90535060006111c6846002611699565b6111d19060016115fe565b90505b6001811115611249576f181899199a1a9b1b9c1cb0b131b232b360811b85600f1660108110611205576112056116c6565b1a60f81b82828151811061121b5761121b6116c6565b60200101906001600160f81b031916908160001a90535060049490941c93611242816116dc565b90506111d4565b5083156112985760405162461bcd60e51b815260206004820181905260248201527f537472696e67733a20686578206c656e67746820696e73756666696369656e7460448201526064016106b8565b9392505050565b60055460ff16156112e55760405162461bcd60e51b815260206004820152601060248201526f14185d5cd8589b194e881c185d5cd95960821b60448201526064016106b8565b82816001600160a01b03821615801590611306575060085460ff1615156001145b1561134f576113158282611356565b151560000361134f576040517f4c6f636b3a20596f757220746f6b656e206973206c6f636b00000000000000006020820152603801610a2b565b5050505050565b6040516370a0823160e01b81526001600160a01b0383166004820152600090600190829030906370a0823190602401602060405180830381865afa1580156113a2573d6000803e3d6000fd5b505050506040513d601f19601f820116820180604052508101906113c691906116f3565b6001600160a01b0386166000908152600760205260409020549091506113ec8583611686565b10156113f757600091505b509392505050565b60006020828403121561141157600080fd5b81356001600160e01b03198116811461129857600080fd5b60005b8381101561144457818101518382015260200161142c565b50506000910152565b602081526000825180602084015261146c816040850160208701611429565b601f01601f19169190910160400192915050565b80356001600160a01b038116811461149757600080fd5b919050565b600080604083850312156114af57600080fd5b6114b883611480565b946020939093013593505050565b6000602082840312156114d857600080fd5b8135801515811461129857600080fd5b6000806000606084860312156114fd57600080fd5b61150684611480565b925061151460208501611480565b9150604084013590509250925092565b60006020828403121561153657600080fd5b5035919050565b6000806040838503121561155057600080fd5b8235915061156060208401611480565b90509250929050565b60006020828403121561157b57600080fd5b61129882611480565b6000806040838503121561159757600080fd5b6115a083611480565b915061156060208401611480565b600181811c908216806115c257607f821691505b6020821081036115e257634e487b7160e01b600052602260045260246000fd5b50919050565b634e487b7160e01b600052601160045260246000fd5b808201808211156104db576104db6115e8565b7f416363657373436f6e74726f6c3a206163636f756e7420000000000000000000815260008351611649816017850160208801611429565b7001034b99036b4b9b9b4b733903937b6329607d1b601791840191820152835161167a816028840160208801611429565b01602801949350505050565b818103818111156104db576104db6115e8565b80820281158282048414176104db576104db6115e8565b634e487b7160e01b600052604160045260246000fd5b634e487b7160e01b600052603260045260246000fd5b6000816116eb576116eb6115e8565b506000190190565b60006020828403121561170557600080fd5b505191905056fedf8b4c520ffe197c5343c6f5aec59570151ef9a492f2c624fd45ddde6135ec42a26469706673582212207149d5b05cd2e6f6759be91bc0fcb7c7a676f8d7051ac3f396783583e8dfa40e64736f6c63430008120033",
  "linkReferences": {},
  "deployedLinkReferences": {}
}