{
  "_format": "hh-sol-artifact-1",
  "contractName": "HOMES",
  "sourceName": "contracts/HOMES.sol",
  "abi": [
    {
      "inputs": [],
      "stateMutability": "nonpayable",
      "type": "constructor"
    },
    {
      "anonymous": false,
      "inputs": [
        {
          "indexed": true,
          "internalType": "address",
          "name": "owner",
          "type": "address"
        },
        {
          "indexed": true,
          "internalType": "address",
          "name": "spender",
          "type": "address"
        },
        {
          "indexed": false,
          "internalType": "uint256",
          "name": "value",
          "type": "uint256"
        }
      ],
      "name": "Approval",
      "type": "event"
    },
    {
      "anonymous": false,
      "inputs": [
        {
          "indexed": false,
          "internalType": "address",
          "name": "account",
          "type": "address"
        }
      ],
      "name": "Paused",
      "type": "event"
    },
    {
      "anonymous": false,
      "inputs": [
        {
          "indexed": true,
          "internalType": "bytes32",
          "name": "role",
          "type": "bytes32"
        },
        {
          "indexed": true,
          "internalType": "bytes32",
          "name": "previousAdminRole",
          "type": "bytes32"
        },
        {
          "indexed": true,
          "internalType": "bytes32",
          "name": "newAdminRole",
          "type": "bytes32"
        }
      ],
      "name": "RoleAdminChanged",
      "type": "event"
    },
    {
      "anonymous": false,
      "inputs": [
        {
          "indexed": true,
          "internalType": "bytes32",
          "name": "role",
          "type": "bytes32"
        },
        {
          "indexed": true,
          "internalType": "address",
          "name": "account",
          "type": "address"
        },
        {
          "indexed": true,
          "internalType": "address",
          "name": "sender",
          "type": "address"
        }
      ],
      "name": "RoleGranted",
      "type": "event"
    },
    {
      "anonymous": false,
      "inputs": [
        {
          "indexed": true,
          "internalType": "bytes32",
          "name": "role",
          "type": "bytes32"
        },
        {
          "indexed": true,
          "internalType": "address",
          "name": "account",
          "type": "address"
        },
        {
          "indexed": true,
          "internalType": "address",
          "name": "sender",
          "type": "address"
        }
      ],
      "name": "RoleRevoked",
      "type": "event"
    },
    {
      "anonymous": false,
      "inputs": [
        {
          "indexed": true,
          "internalType": "address",
          "name": "from",
          "type": "address"
        },
        {
          "indexed": true,
          "internalType": "address",
          "name": "to",
          "type": "address"
        },
        {
          "indexed": false,
          "internalType": "uint256",
          "name": "value",
          "type": "uint256"
        }
      ],
      "name": "Transfer",
      "type": "event"
    },
    {
      "anonymous": false,
      "inputs": [
        {
          "indexed": false,
          "internalType": "address",
          "name": "account",
          "type": "address"
        }
      ],
      "name": "Unpaused",
      "type": "event"
    },
    {
      "inputs": [],
      "name": "ADMIN",
      "outputs": [
        {
          "internalType": "bytes32",
          "name": "",
          "type": "bytes32"
        }
      ],
      "stateMutability": "view",
      "type": "function"
    },
    {
      "inputs": [],
      "name": "DEFAULT_ADMIN_ROLE",
      "outputs": [
        {
          "internalType": "bytes32",
          "name": "",
          "type": "bytes32"
        }
      ],
      "stateMutability": "view",
      "type": "function"
    },
    {
      "inputs": [
        {
          "internalType": "address",
          "name": "owner",
          "type": "address"
        },
        {
          "internalType": "address",
          "name": "spender",
          "type": "address"
        }
      ],
      "name": "allowance",
      "outputs": [
        {
          "internalType": "uint256",
          "name": "",
          "type": "uint256"
        }
      ],
      "stateMutability": "view",
      "type": "function"
    },
    {
      "inputs": [
        {
          "internalType": "address",
          "name": "spender",
          "type": "address"
        },
        {
          "internalType": "uint256",
          "name": "amount",
          "type": "uint256"
        }
      ],
      "name": "approve",
      "outputs": [
        {
          "internalType": "bool",
          "name": "",
          "type": "bool"
        }
      ],
      "stateMutability": "nonpayable",
      "type": "function"
    },
    {
      "inputs": [
        {
          "internalType": "address",
          "name": "account",
          "type": "address"
        }
      ],
      "name": "balanceOf",
      "outputs": [
        {
          "internalType": "uint256",
          "name": "",
          "type": "uint256"
        }
      ],
      "stateMutability": "view",
      "type": "function"
    },
    {
      "inputs": [
        {
          "internalType": "uint256",
          "name": "amount",
          "type": "uint256"
        }
      ],
      "name": "burn",
      "outputs": [],
      "stateMutability": "nonpayable",
      "type": "function"
    },
    {
      "inputs": [
        {
          "internalType": "address",
          "name": "account",
          "type": "address"
        },
        {
          "internalType": "uint256",
          "name": "amount",
          "type": "uint256"
        }
      ],
      "name": "burnFrom",
      "outputs": [],
      "stateMutability": "nonpayable",
      "type": "function"
    },
    {
      "inputs": [],
      "name": "decimals",
      "outputs": [
        {
          "internalType": "uint8",
          "name": "",
          "type": "uint8"
        }
      ],
      "stateMutability": "view",
      "type": "function"
    },
    {
      "inputs": [
        {
          "internalType": "address",
          "name": "spender",
          "type": "address"
        },
        {
          "internalType": "uint256",
          "name": "subtractedValue",
          "type": "uint256"
        }
      ],
      "name": "decreaseAllowance",
      "outputs": [
        {
          "internalType": "bool",
          "name": "",
          "type": "bool"
        }
      ],
      "stateMutability": "nonpayable",
      "type": "function"
    },
    {
      "inputs": [
        {
          "internalType": "address",
          "name": "account",
          "type": "address"
        }
      ],
      "name": "getLockListByAddress",
      "outputs": [
        {
          "components": [
            {
              "internalType": "uint256",
              "name": "lockAmount",
              "type": "uint256"
            }
          ],
          "internalType": "struct HOMES.lockInfo",
          "name": "",
          "type": "tuple"
        }
      ],
      "stateMutability": "view",
      "type": "function"
    },
    {
      "inputs": [
        {
          "internalType": "bytes32",
          "name": "role",
          "type": "bytes32"
        }
      ],
      "name": "getRoleAdmin",
      "outputs": [
        {
          "internalType": "bytes32",
          "name": "",
          "type": "bytes32"
        }
      ],
      "stateMutability": "view",
      "type": "function"
    },
    {
      "inputs": [
        {
          "internalType": "bytes32",
          "name": "role",
          "type": "bytes32"
        },
        {
          "internalType": "address",
          "name": "account",
          "type": "address"
        }
      ],
      "name": "grantRole",
      "outputs": [],
      "stateMutability": "nonpayable",
      "type": "function"
    },
    {
      "inputs": [
        {
          "internalType": "bytes32",
          "name": "role",
          "type": "bytes32"
        },
        {
          "internalType": "address",
          "name": "account",
          "type": "address"
        }
      ],
      "name": "hasRole",
      "outputs": [
        {
          "internalType": "bool",
          "name": "",
          "type": "bool"
        }
      ],
      "stateMutability": "view",
      "type": "function"
    },
    {
      "inputs": [
        {
          "internalType": "address",
          "name": "spender",
          "type": "address"
        },
        {
          "internalType": "uint256",
          "name": "addedValue",
          "type": "uint256"
        }
      ],
      "name": "increaseAllowance",
      "outputs": [
        {
          "internalType": "bool",
          "name": "",
          "type": "bool"
        }
      ],
      "stateMutability": "nonpayable",
      "type": "function"
    },
    {
      "inputs": [
        {
          "internalType": "address",
          "name": "account",
          "type": "address"
        },
        {
          "internalType": "uint256",
          "name": "amount",
          "type": "uint256"
        }
      ],
      "name": "lockAddress",
      "outputs": [],
      "stateMutability": "nonpayable",
      "type": "function"
    },
    {
      "inputs": [
        {
          "internalType": "address",
          "name": "",
          "type": "address"
        }
      ],
      "name": "lockList",
      "outputs": [
        {
          "internalType": "uint256",
          "name": "lockAmount",
          "type": "uint256"
        }
      ],
      "stateMutability": "view",
      "type": "function"
    },
    {
      "inputs": [
        {
          "internalType": "address",
          "name": "to",
          "type": "address"
        },
        {
          "internalType": "uint256",
          "name": "amount",
          "type": "uint256"
        }
      ],
      "name": "mint",
      "outputs": [],
      "stateMutability": "nonpayable",
      "type": "function"
    },
    {
      "inputs": [],
      "name": "name",
      "outputs": [
        {
          "internalType": "string",
          "name": "",
          "type": "string"
        }
      ],
      "stateMutability": "view",
      "type": "function"
    },
    {
      "inputs": [],
      "name": "pause",
      "outputs": [],
      "stateMutability": "nonpayable",
      "type": "function"
    },
    {
      "inputs": [],
      "name": "paused",
      "outputs": [
        {
          "internalType": "bool",
          "name": "",
          "type": "bool"
        }
      ],
      "stateMutability": "view",
      "type": "function"
    },
    {
      "inputs": [
        {
          "internalType": "bytes32",
          "name": "role",
          "type": "bytes32"
        },
        {
          "internalType": "address",
          "name": "account",
          "type": "address"
        }
      ],
      "name": "renounceRole",
      "outputs": [],
      "stateMutability": "nonpayable",
      "type": "function"
    },
    {
      "inputs": [
        {
          "internalType": "bytes32",
          "name": "role",
          "type": "bytes32"
        },
        {
          "internalType": "address",
          "name": "account",
          "type": "address"
        }
      ],
      "name": "revokeRole",
      "outputs": [],
      "stateMutability": "nonpayable",
      "type": "function"
    },
    {
      "inputs": [
        {
          "internalType": "bool",
          "name": "_underLock",
          "type": "bool"
        }
      ],
      "name": "setUnderLock",
      "outputs": [],
      "stateMutability": "nonpayable",
      "type": "function"
    },
    {
      "inputs": [
        {
          "internalType": "bytes4",
          "name": "interfaceId",
          "type": "bytes4"
        }
      ],
      "name": "supportsInterface",
      "outputs": [
        {
          "internalType": "bool",
          "name": "",
          "type": "bool"
        }
      ],
      "stateMutability": "view",
      "type": "function"
    },
    {
      "inputs": [],
      "name": "symbol",
      "outputs": [
        {
          "internalType": "string",
          "name": "",
          "type": "string"
        }
      ],
      "stateMutability": "view",
      "type": "function"
    },
    {
      "inputs": [],
      "name": "totalSupply",
      "outputs": [
        {
          "internalType": "uint256",
          "name": "",
          "type": "uint256"
        }
      ],
      "stateMutability": "view",
      "type": "function"
    },
    {
      "inputs": [
        {
          "internalType": "address",
          "name": "to",
          "type": "address"
        },
        {
          "internalType": "uint256",
          "name": "amount",
          "type": "uint256"
        }
      ],
      "name": "transfer",
      "outputs": [
        {
          "internalType": "bool",
          "name": "",
          "type": "bool"
        }
      ],
      "stateMutability": "nonpayable",
      "type": "function"
    },
    {
      "inputs": [
        {
          "internalType": "address",
          "name": "from",
          "type": "address"
        },
        {
          "internalType": "address",
          "name": "to",
          "type": "address"
        },
        {
          "internalType": "uint256",
          "name": "amount",
          "type": "uint256"
        }
      ],
      "name": "transferFrom",
      "outputs": [
        {
          "internalType": "bool",
          "name": "",
          "type": "bool"
        }
      ],
      "stateMutability": "nonpayable",
      "type": "function"
    },
    {
      "inputs": [],
      "name": "underLock",
      "outputs": [
        {
          "internalType": "bool",
          "name": "",
          "type": "bool"
        }
      ],
      "stateMutability": "view",
      "type": "function"
    },
    {
      "inputs": [
        {
          "internalType": "address",
          "name": "from",
          "type": "address"
        }
      ],
      "name": "unlockAddress",
      "outputs": [],
      "stateMutability": "nonpayable",
      "type": "function"
    },
    {
      "inputs": [],
      "name": "unpause",
      "outputs": [],
      "stateMutability": "nonpayable",
      "type": "function"
    }
  ],
  "bytecode": "0x60806040526001600860006101000a81548160ff0219169083151502179055503480156200002c57600080fd5b506040518060400160405280600e81526020017f414920484f4d455320544f4b454e0000000000000000000000000000000000008152506040518060400160405280600581526020017f484f4d45530000000000000000000000000000000000000000000000000000008152508160039081620000aa919062000922565b508060049081620000bc919062000922565b5050506000600560006101000a81548160ff021916908315150217905550620000ef6000801b336200016760201b60201c565b620001217fdf8b4c520ffe197c5343c6f5aec59570151ef9a492f2c624fd45ddde6135ec42336200016760201b60201c565b6200016133620001366200025960201b60201c565b600a62000144919062000b99565b633b9aca0062000155919062000bea565b6200026260201b60201c565b62000fac565b620001798282620003da60201b60201c565b620002555760016006600084815260200190815260200160002060000160008373ffffffffffffffffffffffffffffffffffffffff1673ffffffffffffffffffffffffffffffffffffffff16815260200190815260200160002060006101000a81548160ff021916908315150217905550620001fa6200044560201b60201c565b73ffffffffffffffffffffffffffffffffffffffff168173ffffffffffffffffffffffffffffffffffffffff16837f2f8788117e7eff1d82e926ec794901d17c78024a50270940304540a733656f0d60405160405180910390a45b5050565b60006012905090565b600073ffffffffffffffffffffffffffffffffffffffff168273ffffffffffffffffffffffffffffffffffffffff1603620002d4576040517f08c379a0000000000000000000000000000000000000000000000000000000008152600401620002cb9062000c96565b60405180910390fd5b620002e8600083836200044d60201b60201c565b8060026000828254620002fc919062000cb8565b92505081905550806000808473ffffffffffffffffffffffffffffffffffffffff1673ffffffffffffffffffffffffffffffffffffffff168152602001908152602001600020600082825462000353919062000cb8565b925050819055508173ffffffffffffffffffffffffffffffffffffffff16600073ffffffffffffffffffffffffffffffffffffffff167fddf252ad1be2c89b69c2b068fc378daa952ba7f163c4a11628f55a4df523b3ef83604051620003ba919062000d04565b60405180910390a3620003d6600083836200059560201b60201c565b5050565b60006006600084815260200190815260200160002060000160008373ffffffffffffffffffffffffffffffffffffffff1673ffffffffffffffffffffffffffffffffffffffff16815260200190815260200160002060009054906101000a900460ff16905092915050565b600033905090565b6200045d6200059a60201b60201c565b15620004a0576040517f08c379a0000000000000000000000000000000000000000000000000000000008152600401620004979062000d71565b60405180910390fd5b8281600073ffffffffffffffffffffffffffffffffffffffff168273ffffffffffffffffffffffffffffffffffffffff1614158015620004f3575060011515600860009054906101000a900460ff161515145b156200057657600015156200050f8383620005b160201b60201c565b1515036200057557604051602001620005289062000dee565b6040516020818303038152906040526040517f08c379a00000000000000000000000000000000000000000000000000000000081526004016200056c919062000e83565b60405180910390fd5b5b6200058e858585620006a360201b62000f3a1760201c565b5050505050565b505050565b6000600560009054906101000a900460ff16905090565b6000806001905060003073ffffffffffffffffffffffffffffffffffffffff166370a08231866040518263ffffffff1660e01b8152600401620005f5919062000eec565b602060405180830381865afa15801562000613573d6000803e3d6000fd5b505050506040513d601f19601f8201168201806040525081019062000639919062000f3f565b9050600760008673ffffffffffffffffffffffffffffffffffffffff1673ffffffffffffffffffffffffffffffffffffffff1681526020019081526020016000206000015484826200068c919062000f71565b10156200069857600091505b819250505092915050565b505050565b600081519050919050565b7f4e487b7100000000000000000000000000000000000000000000000000000000600052604160045260246000fd5b7f4e487b7100000000000000000000000000000000000000000000000000000000600052602260045260246000fd5b600060028204905060018216806200072a57607f821691505b60208210810362000740576200073f620006e2565b5b50919050565b60008190508160005260206000209050919050565b60006020601f8301049050919050565b600082821b905092915050565b600060088302620007aa7fffffffffffffffffffffffffffffffffffffffffffffffffffffffffffffffff826200076b565b620007b686836200076b565b95508019841693508086168417925050509392505050565b6000819050919050565b6000819050919050565b600062000803620007fd620007f784620007ce565b620007d8565b620007ce565b9050919050565b6000819050919050565b6200081f83620007e2565b620008376200082e826200080a565b84845462000778565b825550505050565b600090565b6200084e6200083f565b6200085b81848462000814565b505050565b5b8181101562000883576200087760008262000844565b60018101905062000861565b5050565b601f821115620008d2576200089c8162000746565b620008a7846200075b565b81016020851015620008b7578190505b620008cf620008c6856200075b565b83018262000860565b50505b505050565b600082821c905092915050565b6000620008f760001984600802620008d7565b1980831691505092915050565b6000620009128383620008e4565b9150826002028217905092915050565b6200092d82620006a8565b67ffffffffffffffff811115620009495762000948620006b3565b5b62000955825462000711565b6200096282828562000887565b600060209050601f8311600181146200099a576000841562000985578287015190505b62000991858262000904565b86555062000a01565b601f198416620009aa8662000746565b60005b82811015620009d457848901518255600182019150602085019450602081019050620009ad565b86831015620009f45784890151620009f0601f891682620008e4565b8355505b6001600288020188555050505b505050505050565b7f4e487b7100000000000000000000000000000000000000000000000000000000600052601160045260246000fd5b60008160011c9050919050565b6000808291508390505b600185111562000a975780860481111562000a6f5762000a6e62000a09565b5b600185161562000a7f5780820291505b808102905062000a8f8562000a38565b945062000a4f565b94509492505050565b60008262000ab2576001905062000b85565b8162000ac2576000905062000b85565b816001811462000adb576002811462000ae65762000b1c565b600191505062000b85565b60ff84111562000afb5762000afa62000a09565b5b8360020a91508482111562000b155762000b1462000a09565b5b5062000b85565b5060208310610133831016604e8410600b841016171562000b565782820a90508381111562000b505762000b4f62000a09565b5b62000b85565b62000b65848484600162000a45565b9250905081840481111562000b7f5762000b7e62000a09565b5b81810290505b9392505050565b600060ff82169050919050565b600062000ba682620007ce565b915062000bb38362000b8c565b925062000be27fffffffffffffffffffffffffffffffffffffffffffffffffffffffffffffffff848462000aa0565b905092915050565b600062000bf782620007ce565b915062000c0483620007ce565b925082820262000c1481620007ce565b9150828204841483151762000c2e5762000c2d62000a09565b5b5092915050565b600082825260208201905092915050565b7f45524332303a206d696e7420746f20746865207a65726f206164647265737300600082015250565b600062000c7e601f8362000c35565b915062000c8b8262000c46565b602082019050919050565b6000602082019050818103600083015262000cb18162000c6f565b9050919050565b600062000cc582620007ce565b915062000cd283620007ce565b925082820190508082111562000ced5762000cec62000a09565b5b92915050565b62000cfe81620007ce565b82525050565b600060208201905062000d1b600083018462000cf3565b92915050565b7f5061757361626c653a2070617573656400000000000000000000000000000000600082015250565b600062000d5960108362000c35565b915062000d668262000d21565b602082019050919050565b6000602082019050818103600083015262000d8c8162000d4a565b9050919050565b600081905092915050565b7f4c6f636b3a20596f757220746f6b656e206973206c6f636b0000000000000000600082015250565b600062000dd660188362000d93565b915062000de38262000d9e565b601882019050919050565b600062000dfb8262000dc7565b9150819050919050565b60005b8381101562000e2557808201518184015260208101905062000e08565b60008484015250505050565b6000601f19601f8301169050919050565b600062000e4f82620006a8565b62000e5b818562000c35565b935062000e6d81856020860162000e05565b62000e788162000e31565b840191505092915050565b6000602082019050818103600083015262000e9f818462000e42565b905092915050565b600073ffffffffffffffffffffffffffffffffffffffff82169050919050565b600062000ed48262000ea7565b9050919050565b62000ee68162000ec7565b82525050565b600060208201905062000f03600083018462000edb565b92915050565b600080fd5b62000f1981620007ce565b811462000f2557600080fd5b50565b60008151905062000f398162000f0e565b92915050565b60006020828403121562000f585762000f5762000f09565b5b600062000f688482850162000f28565b91505092915050565b600062000f7e82620007ce565b915062000f8b83620007ce565b925082820390508181111562000fa65762000fa562000a09565b5b92915050565b612fcd8062000fbc6000396000f3fe608060405234801561001057600080fd5b50600436106101e55760003560e01c806342966c681161010f57806395d89b41116100a2578063b7eb5e0a11610071578063b7eb5e0a14610592578063d547741f146105ae578063d6bf21a7146105ca578063dd62ed3e146105fa576101e5565b806395d89b41146104f6578063a217fddf14610514578063a457c2d714610532578063a9059cbb14610562576101e5565b80637e02785c116100de5780637e02785c1461046e5780638456cb591461049e57806391d14854146104a857806393fc6e96146104d8576101e5565b806342966c68146103e85780635c975abb1461040457806370a082311461042257806379cc679014610452576101e5565b80632a0acc6a1161018757806336568abe1161015657806336568abe1461037657806339509351146103925780633f4ba83a146103c257806340c10f19146103cc576101e5565b80632a0acc6a146103025780632f2ff15d14610320578063313ce5671461033c5780633328bd241461035a576101e5565b80630a881069116101c35780630a8810691461026857806318160ddd1461028457806323b872dd146102a2578063248a9ca3146102d2576101e5565b806301ffc9a7146101ea57806306fdde031461021a578063095ea7b314610238575b600080fd5b61020460048036038101906101ff919061201b565b61062a565b6040516102119190612063565b60405180910390f35b6102226106a4565b60405161022f919061210e565b60405180910390f35b610252600480360381019061024d91906121c4565b610736565b60405161025f9190612063565b60405180910390f35b610282600480360381019061027d9190612230565b610759565b005b61028c6107a9565b604051610299919061226c565b60405180910390f35b6102bc60048036038101906102b79190612287565b6107b3565b6040516102c99190612063565b60405180910390f35b6102ec60048036038101906102e79190612310565b6107e2565b6040516102f9919061234c565b60405180910390f35b61030a610802565b604051610317919061234c565b60405180910390f35b61033a60048036038101906103359190612367565b610826565b005b61034461084f565b60405161035191906123c3565b60405180910390f35b610374600480360381019061036f91906121c4565b610858565b005b610390600480360381019061038b9190612367565b6108ea565b005b6103ac60048036038101906103a791906121c4565b61096d565b6040516103b99190612063565b60405180910390f35b6103ca610a17565b005b6103e660048036038101906103e191906121c4565b610a54565b005b61040260048036038101906103fd91906123de565b610a95565b005b61040c610aa9565b6040516104199190612063565b60405180910390f35b61043c6004803603810190610437919061240b565b610ac0565b604051610449919061226c565b60405180910390f35b61046c600480360381019061046791906121c4565b610b08565b005b6104886004803603810190610483919061240b565b610b28565b6040516104959190612463565b60405180910390f35b6104a6610b8b565b005b6104c260048036038101906104bd9190612367565b610bc8565b6040516104cf9190612063565b60405180910390f35b6104e0610c33565b6040516104ed9190612063565b60405180910390f35b6104fe610c46565b60405161050b919061210e565b60405180910390f35b61051c610cd8565b604051610529919061234c565b60405180910390f35b61054c600480360381019061054791906121c4565b610cdf565b6040516105599190612063565b60405180910390f35b61057c600480360381019061057791906121c4565b610dc9565b6040516105899190612063565b60405180910390f35b6105ac60048036038101906105a7919061240b565b610dec565b005b6105c860048036038101906105c39190612367565b610e6c565b005b6105e460048036038101906105df919061240b565b610e95565b6040516105f1919061226c565b60405180910390f35b610614600480360381019061060f919061247e565b610eb3565b604051610621919061226c565b60405180910390f35b60007f7965db0b000000000000000000000000000000000000000000000000000000007bffffffffffffffffffffffffffffffffffffffffffffffffffffffff1916827bffffffffffffffffffffffffffffffffffffffffffffffffffffffff1916148061069d575061069c82610f3f565b5b9050919050565b6060600380546106b3906124ed565b80601f01602080910402602001604051908101604052809291908181526020018280546106df906124ed565b801561072c5780601f106107015761010080835404028352916020019161072c565b820191906000526020600020905b81548152906001019060200180831161070f57829003601f168201915b5050505050905090565b600080610741610fa9565b905061074e818585610fb1565b600191505092915050565b7fdf8b4c520ffe197c5343c6f5aec59570151ef9a492f2c624fd45ddde6135ec4261078b81610786610fa9565b61117a565b81600860006101000a81548160ff0219169083151502179055505050565b6000600254905090565b6000806107be610fa9565b90506107cb858285611217565b6107d68585856112a3565b60019150509392505050565b600060066000838152602001908152602001600020600101549050919050565b7fdf8b4c520ffe197c5343c6f5aec59570151ef9a492f2c624fd45ddde6135ec4281565b61082f826107e2565b6108408161083b610fa9565b61117a565b61084a8383611522565b505050565b60006012905090565b7fdf8b4c520ffe197c5343c6f5aec59570151ef9a492f2c624fd45ddde6135ec4261088a81610885610fa9565b61117a565b604051806020016040528083815250600760008573ffffffffffffffffffffffffffffffffffffffff1673ffffffffffffffffffffffffffffffffffffffff16815260200190815260200160002060008201518160000155905050505050565b6108f2610fa9565b73ffffffffffffffffffffffffffffffffffffffff168173ffffffffffffffffffffffffffffffffffffffff161461095f576040517f08c379a000000000000000000000000000000000000000000000000000000000815260040161095690612590565b60405180910390fd5b6109698282611603565b5050565b600080610978610fa9565b9050610a0c818585600160008673ffffffffffffffffffffffffffffffffffffffff1673ffffffffffffffffffffffffffffffffffffffff16815260200190815260200160002060008973ffffffffffffffffffffffffffffffffffffffff1673ffffffffffffffffffffffffffffffffffffffff16815260200190815260200160002054610a0791906125df565b610fb1565b600191505092915050565b7fdf8b4c520ffe197c5343c6f5aec59570151ef9a492f2c624fd45ddde6135ec42610a4981610a44610fa9565b61117a565b610a516116e5565b50565b7fdf8b4c520ffe197c5343c6f5aec59570151ef9a492f2c624fd45ddde6135ec42610a8681610a81610fa9565b61117a565b610a908383611787565b505050565b610aa6610aa0610fa9565b826118e6565b50565b6000600560009054906101000a900460ff16905090565b60008060008373ffffffffffffffffffffffffffffffffffffffff1673ffffffffffffffffffffffffffffffffffffffff168152602001908152602001600020549050919050565b610b1a82610b14610fa9565b83611217565b610b2482826118e6565b5050565b610b30611fab565b600760008373ffffffffffffffffffffffffffffffffffffffff1673ffffffffffffffffffffffffffffffffffffffff1681526020019081526020016000206040518060200160405290816000820154815250509050919050565b7fdf8b4c520ffe197c5343c6f5aec59570151ef9a492f2c624fd45ddde6135ec42610bbd81610bb8610fa9565b61117a565b610bc5611abc565b50565b60006006600084815260200190815260200160002060000160008373ffffffffffffffffffffffffffffffffffffffff1673ffffffffffffffffffffffffffffffffffffffff16815260200190815260200160002060009054906101000a900460ff16905092915050565b600860009054906101000a900460ff1681565b606060048054610c55906124ed565b80601f0160208091040260200160405190810160405280929190818152602001828054610c81906124ed565b8015610cce5780601f10610ca357610100808354040283529160200191610cce565b820191906000526020600020905b815481529060010190602001808311610cb157829003601f168201915b5050505050905090565b6000801b81565b600080610cea610fa9565b90506000600160008373ffffffffffffffffffffffffffffffffffffffff1673ffffffffffffffffffffffffffffffffffffffff16815260200190815260200160002060008673ffffffffffffffffffffffffffffffffffffffff1673ffffffffffffffffffffffffffffffffffffffff16815260200190815260200160002054905083811015610db0576040517f08c379a0000000000000000000000000000000000000000000000000000000008152600401610da790612685565b60405180910390fd5b610dbd8286868403610fb1565b60019250505092915050565b600080610dd4610fa9565b9050610de18185856112a3565b600191505092915050565b7fdf8b4c520ffe197c5343c6f5aec59570151ef9a492f2c624fd45ddde6135ec42610e1e81610e19610fa9565b61117a565b600760008373ffffffffffffffffffffffffffffffffffffffff1673ffffffffffffffffffffffffffffffffffffffff16815260200190815260200160002060008082016000905550505050565b610e75826107e2565b610e8681610e81610fa9565b61117a565b610e908383611603565b505050565b60076020528060005260406000206000915090508060000154905081565b6000600160008473ffffffffffffffffffffffffffffffffffffffff1673ffffffffffffffffffffffffffffffffffffffff16815260200190815260200160002060008373ffffffffffffffffffffffffffffffffffffffff1673ffffffffffffffffffffffffffffffffffffffff16815260200190815260200160002054905092915050565b505050565b60007f01ffc9a7000000000000000000000000000000000000000000000000000000007bffffffffffffffffffffffffffffffffffffffffffffffffffffffff1916827bffffffffffffffffffffffffffffffffffffffffffffffffffffffff1916149050919050565b600033905090565b600073ffffffffffffffffffffffffffffffffffffffff168373ffffffffffffffffffffffffffffffffffffffff1603611020576040517f08c379a000000000000000000000000000000000000000000000000000000000815260040161101790612717565b60405180910390fd5b600073ffffffffffffffffffffffffffffffffffffffff168273ffffffffffffffffffffffffffffffffffffffff160361108f576040517f08c379a0000000000000000000000000000000000000000000000000000000008152600401611086906127a9565b60405180910390fd5b80600160008573ffffffffffffffffffffffffffffffffffffffff1673ffffffffffffffffffffffffffffffffffffffff16815260200190815260200160002060008473ffffffffffffffffffffffffffffffffffffffff1673ffffffffffffffffffffffffffffffffffffffff168152602001908152602001600020819055508173ffffffffffffffffffffffffffffffffffffffff168373ffffffffffffffffffffffffffffffffffffffff167f8c5be1e5ebec7d5bd14f71427d1e84f3dd0314c0f7b2291e5b200ac8c7c3b9258360405161116d919061226c565b60405180910390a3505050565b6111848282610bc8565b611213576111a98173ffffffffffffffffffffffffffffffffffffffff166014611b5f565b6111b78360001c6020611b5f565b6040516020016111c892919061289d565b6040516020818303038152906040526040517f08c379a000000000000000000000000000000000000000000000000000000000815260040161120a919061210e565b60405180910390fd5b5050565b60006112238484610eb3565b90507fffffffffffffffffffffffffffffffffffffffffffffffffffffffffffffffff811461129d578181101561128f576040517f08c379a000000000000000000000000000000000000000000000000000000000815260040161128690612923565b60405180910390fd5b61129c8484848403610fb1565b5b50505050565b600073ffffffffffffffffffffffffffffffffffffffff168373ffffffffffffffffffffffffffffffffffffffff1603611312576040517f08c379a0000000000000000000000000000000000000000000000000000000008152600401611309906129b5565b60405180910390fd5b600073ffffffffffffffffffffffffffffffffffffffff168273ffffffffffffffffffffffffffffffffffffffff1603611381576040517f08c379a000000000000000000000000000000000000000000000000000000000815260040161137890612a47565b60405180910390fd5b61138c838383611d9b565b60008060008573ffffffffffffffffffffffffffffffffffffffff1673ffffffffffffffffffffffffffffffffffffffff16815260200190815260200160002054905081811015611412576040517f08c379a000000000000000000000000000000000000000000000000000000000815260040161140990612ad9565b60405180910390fd5b8181036000808673ffffffffffffffffffffffffffffffffffffffff1673ffffffffffffffffffffffffffffffffffffffff16815260200190815260200160002081905550816000808573ffffffffffffffffffffffffffffffffffffffff1673ffffffffffffffffffffffffffffffffffffffff16815260200190815260200160002060008282546114a591906125df565b925050819055508273ffffffffffffffffffffffffffffffffffffffff168473ffffffffffffffffffffffffffffffffffffffff167fddf252ad1be2c89b69c2b068fc378daa952ba7f163c4a11628f55a4df523b3ef84604051611509919061226c565b60405180910390a361151c848484611ebc565b50505050565b61152c8282610bc8565b6115ff5760016006600084815260200190815260200160002060000160008373ffffffffffffffffffffffffffffffffffffffff1673ffffffffffffffffffffffffffffffffffffffff16815260200190815260200160002060006101000a81548160ff0219169083151502179055506115a4610fa9565b73ffffffffffffffffffffffffffffffffffffffff168173ffffffffffffffffffffffffffffffffffffffff16837f2f8788117e7eff1d82e926ec794901d17c78024a50270940304540a733656f0d60405160405180910390a45b5050565b61160d8282610bc8565b156116e15760006006600084815260200190815260200160002060000160008373ffffffffffffffffffffffffffffffffffffffff1673ffffffffffffffffffffffffffffffffffffffff16815260200190815260200160002060006101000a81548160ff021916908315150217905550611686610fa9565b73ffffffffffffffffffffffffffffffffffffffff168173ffffffffffffffffffffffffffffffffffffffff16837ff6391f5c32d9c69d2a47ea670b442974b53935d1edc7fd64eb21e047a839171b60405160405180910390a45b5050565b6116ed610aa9565b61172c576040517f08c379a000000000000000000000000000000000000000000000000000000000815260040161172390612b45565b60405180910390fd5b6000600560006101000a81548160ff0219169083151502179055507f5db9ee0a495bf2e6ff9c91a7834c1ba4fdd244a5e8aa4e537bd38aeae4b073aa611770610fa9565b60405161177d9190612b74565b60405180910390a1565b600073ffffffffffffffffffffffffffffffffffffffff168273ffffffffffffffffffffffffffffffffffffffff16036117f6576040517f08c379a00000000000000000000000000000000000000000000000000000000081526004016117ed90612bdb565b60405180910390fd5b61180260008383611d9b565b806002600082825461181491906125df565b92505081905550806000808473ffffffffffffffffffffffffffffffffffffffff1673ffffffffffffffffffffffffffffffffffffffff168152602001908152602001600020600082825461186991906125df565b925050819055508173ffffffffffffffffffffffffffffffffffffffff16600073ffffffffffffffffffffffffffffffffffffffff167fddf252ad1be2c89b69c2b068fc378daa952ba7f163c4a11628f55a4df523b3ef836040516118ce919061226c565b60405180910390a36118e260008383611ebc565b5050565b600073ffffffffffffffffffffffffffffffffffffffff168273ffffffffffffffffffffffffffffffffffffffff1603611955576040517f08c379a000000000000000000000000000000000000000000000000000000000815260040161194c90612c6d565b60405180910390fd5b61196182600083611d9b565b60008060008473ffffffffffffffffffffffffffffffffffffffff1673ffffffffffffffffffffffffffffffffffffffff168152602001908152602001600020549050818110156119e7576040517f08c379a00000000000000000000000000000000000000000000000000000000081526004016119de90612cff565b60405180910390fd5b8181036000808573ffffffffffffffffffffffffffffffffffffffff1673ffffffffffffffffffffffffffffffffffffffff168152602001908152602001600020819055508160026000828254611a3e9190612d1f565b92505081905550600073ffffffffffffffffffffffffffffffffffffffff168373ffffffffffffffffffffffffffffffffffffffff167fddf252ad1be2c89b69c2b068fc378daa952ba7f163c4a11628f55a4df523b3ef84604051611aa3919061226c565b60405180910390a3611ab783600084611ebc565b505050565b611ac4610aa9565b15611b04576040517f08c379a0000000000000000000000000000000000000000000000000000000008152600401611afb90612d9f565b60405180910390fd5b6001600560006101000a81548160ff0219169083151502179055507f62e78cea01bee320cd4e420270b5ea74000d11b0c9f74754ebdbfc544b05a258611b48610fa9565b604051611b559190612b74565b60405180910390a1565b606060006002836002611b729190612dbf565b611b7c91906125df565b67ffffffffffffffff811115611b9557611b94612e01565b5b6040519080825280601f01601f191660200182016040528015611bc75781602001600182028036833780820191505090505b5090507f300000000000000000000000000000000000000000000000000000000000000081600081518110611bff57611bfe612e30565b5b60200101907effffffffffffffffffffffffffffffffffffffffffffffffffffffffffffff1916908160001a9053507f780000000000000000000000000000000000000000000000000000000000000081600181518110611c6357611c62612e30565b5b60200101907effffffffffffffffffffffffffffffffffffffffffffffffffffffffffffff1916908160001a90535060006001846002611ca39190612dbf565b611cad91906125df565b90505b6001811115611d4d577f3031323334353637383961626364656600000000000000000000000000000000600f861660108110611cef57611cee612e30565b5b1a60f81b828281518110611d0657611d05612e30565b5b60200101907effffffffffffffffffffffffffffffffffffffffffffffffffffffffffffff1916908160001a905350600485901c945080611d4690612e5f565b9050611cb0565b5060008414611d91576040517f08c379a0000000000000000000000000000000000000000000000000000000008152600401611d8890612ed4565b60405180910390fd5b8091505092915050565b611da3610aa9565b15611de3576040517f08c379a0000000000000000000000000000000000000000000000000000000008152600401611dda90612d9f565b60405180910390fd5b8281600073ffffffffffffffffffffffffffffffffffffffff168273ffffffffffffffffffffffffffffffffffffffff1614158015611e35575060011515600860009054906101000a900460ff161515145b15611eaa5760001515611e488383611ec1565b151503611ea957604051602001611e5e90612f40565b6040516020818303038152906040526040517f08c379a0000000000000000000000000000000000000000000000000000000008152600401611ea0919061210e565b60405180910390fd5b5b611eb5858585610f3a565b5050505050565b505050565b6000806001905060003073ffffffffffffffffffffffffffffffffffffffff166370a08231866040518263ffffffff1660e01b8152600401611f039190612b74565b602060405180830381865afa158015611f20573d6000803e3d6000fd5b505050506040513d601f19601f82011682018060405250810190611f449190612f6a565b9050600760008673ffffffffffffffffffffffffffffffffffffffff1673ffffffffffffffffffffffffffffffffffffffff168152602001908152602001600020600001548482611f959190612d1f565b1015611fa057600091505b819250505092915050565b6040518060200160405280600081525090565b600080fd5b60007fffffffff0000000000000000000000000000000000000000000000000000000082169050919050565b611ff881611fc3565b811461200357600080fd5b50565b60008135905061201581611fef565b92915050565b60006020828403121561203157612030611fbe565b5b600061203f84828501612006565b91505092915050565b60008115159050919050565b61205d81612048565b82525050565b60006020820190506120786000830184612054565b92915050565b600081519050919050565b600082825260208201905092915050565b60005b838110156120b857808201518184015260208101905061209d565b60008484015250505050565b6000601f19601f8301169050919050565b60006120e08261207e565b6120ea8185612089565b93506120fa81856020860161209a565b612103816120c4565b840191505092915050565b6000602082019050818103600083015261212881846120d5565b905092915050565b600073ffffffffffffffffffffffffffffffffffffffff82169050919050565b600061215b82612130565b9050919050565b61216b81612150565b811461217657600080fd5b50565b60008135905061218881612162565b92915050565b6000819050919050565b6121a18161218e565b81146121ac57600080fd5b50565b6000813590506121be81612198565b92915050565b600080604083850312156121db576121da611fbe565b5b60006121e985828601612179565b92505060206121fa858286016121af565b9150509250929050565b61220d81612048565b811461221857600080fd5b50565b60008135905061222a81612204565b92915050565b60006020828403121561224657612245611fbe565b5b60006122548482850161221b565b91505092915050565b6122668161218e565b82525050565b6000602082019050612281600083018461225d565b92915050565b6000806000606084860312156122a05761229f611fbe565b5b60006122ae86828701612179565b93505060206122bf86828701612179565b92505060406122d0868287016121af565b9150509250925092565b6000819050919050565b6122ed816122da565b81146122f857600080fd5b50565b60008135905061230a816122e4565b92915050565b60006020828403121561232657612325611fbe565b5b6000612334848285016122fb565b91505092915050565b612346816122da565b82525050565b6000602082019050612361600083018461233d565b92915050565b6000806040838503121561237e5761237d611fbe565b5b600061238c858286016122fb565b925050602061239d85828601612179565b9150509250929050565b600060ff82169050919050565b6123bd816123a7565b82525050565b60006020820190506123d860008301846123b4565b92915050565b6000602082840312156123f4576123f3611fbe565b5b6000612402848285016121af565b91505092915050565b60006020828403121561242157612420611fbe565b5b600061242f84828501612179565b91505092915050565b6124418161218e565b82525050565b60208201600082015161245d6000850182612438565b50505050565b60006020820190506124786000830184612447565b92915050565b6000806040838503121561249557612494611fbe565b5b60006124a385828601612179565b92505060206124b485828601612179565b9150509250929050565b7f4e487b7100000000000000000000000000000000000000000000000000000000600052602260045260246000fd5b6000600282049050600182168061250557607f821691505b602082108103612518576125176124be565b5b50919050565b7f416363657373436f6e74726f6c3a2063616e206f6e6c792072656e6f756e636560008201527f20726f6c657320666f722073656c660000000000000000000000000000000000602082015250565b600061257a602f83612089565b91506125858261251e565b604082019050919050565b600060208201905081810360008301526125a98161256d565b9050919050565b7f4e487b7100000000000000000000000000000000000000000000000000000000600052601160045260246000fd5b60006125ea8261218e565b91506125f58361218e565b925082820190508082111561260d5761260c6125b0565b5b92915050565b7f45524332303a2064656372656173656420616c6c6f77616e63652062656c6f7760008201527f207a65726f000000000000000000000000000000000000000000000000000000602082015250565b600061266f602583612089565b915061267a82612613565b604082019050919050565b6000602082019050818103600083015261269e81612662565b9050919050565b7f45524332303a20617070726f76652066726f6d20746865207a65726f2061646460008201527f7265737300000000000000000000000000000000000000000000000000000000602082015250565b6000612701602483612089565b915061270c826126a5565b604082019050919050565b60006020820190508181036000830152612730816126f4565b9050919050565b7f45524332303a20617070726f766520746f20746865207a65726f20616464726560008201527f7373000000000000000000000000000000000000000000000000000000000000602082015250565b6000612793602283612089565b915061279e82612737565b604082019050919050565b600060208201905081810360008301526127c281612786565b9050919050565b600081905092915050565b7f416363657373436f6e74726f6c3a206163636f756e7420000000000000000000600082015250565b600061280a6017836127c9565b9150612815826127d4565b601782019050919050565b600061282b8261207e565b61283581856127c9565b935061284581856020860161209a565b80840191505092915050565b7f206973206d697373696e6720726f6c6520000000000000000000000000000000600082015250565b60006128876011836127c9565b915061289282612851565b601182019050919050565b60006128a8826127fd565b91506128b48285612820565b91506128bf8261287a565b91506128cb8284612820565b91508190509392505050565b7f45524332303a20696e73756666696369656e7420616c6c6f77616e6365000000600082015250565b600061290d601d83612089565b9150612918826128d7565b602082019050919050565b6000602082019050818103600083015261293c81612900565b9050919050565b7f45524332303a207472616e736665722066726f6d20746865207a65726f20616460008201527f6472657373000000000000000000000000000000000000000000000000000000602082015250565b600061299f602583612089565b91506129aa82612943565b604082019050919050565b600060208201905081810360008301526129ce81612992565b9050919050565b7f45524332303a207472616e7366657220746f20746865207a65726f206164647260008201527f6573730000000000000000000000000000000000000000000000000000000000602082015250565b6000612a31602383612089565b9150612a3c826129d5565b604082019050919050565b60006020820190508181036000830152612a6081612a24565b9050919050565b7f45524332303a207472616e7366657220616d6f756e742065786365656473206260008201527f616c616e63650000000000000000000000000000000000000000000000000000602082015250565b6000612ac3602683612089565b9150612ace82612a67565b604082019050919050565b60006020820190508181036000830152612af281612ab6565b9050919050565b7f5061757361626c653a206e6f7420706175736564000000000000000000000000600082015250565b6000612b2f601483612089565b9150612b3a82612af9565b602082019050919050565b60006020820190508181036000830152612b5e81612b22565b9050919050565b612b6e81612150565b82525050565b6000602082019050612b896000830184612b65565b92915050565b7f45524332303a206d696e7420746f20746865207a65726f206164647265737300600082015250565b6000612bc5601f83612089565b9150612bd082612b8f565b602082019050919050565b60006020820190508181036000830152612bf481612bb8565b9050919050565b7f45524332303a206275726e2066726f6d20746865207a65726f2061646472657360008201527f7300000000000000000000000000000000000000000000000000000000000000602082015250565b6000612c57602183612089565b9150612c6282612bfb565b604082019050919050565b60006020820190508181036000830152612c8681612c4a565b9050919050565b7f45524332303a206275726e20616d6f756e7420657863656564732062616c616e60008201527f6365000000000000000000000000000000000000000000000000000000000000602082015250565b6000612ce9602283612089565b9150612cf482612c8d565b604082019050919050565b60006020820190508181036000830152612d1881612cdc565b9050919050565b6000612d2a8261218e565b9150612d358361218e565b9250828203905081811115612d4d57612d4c6125b0565b5b92915050565b7f5061757361626c653a2070617573656400000000000000000000000000000000600082015250565b6000612d89601083612089565b9150612d9482612d53565b602082019050919050565b60006020820190508181036000830152612db881612d7c565b9050919050565b6000612dca8261218e565b9150612dd58361218e565b9250828202612de38161218e565b91508282048414831517612dfa57612df96125b0565b5b5092915050565b7f4e487b7100000000000000000000000000000000000000000000000000000000600052604160045260246000fd5b7f4e487b7100000000000000000000000000000000000000000000000000000000600052603260045260246000fd5b6000612e6a8261218e565b915060008203612e7d57612e7c6125b0565b5b600182039050919050565b7f537472696e67733a20686578206c656e67746820696e73756666696369656e74600082015250565b6000612ebe602083612089565b9150612ec982612e88565b602082019050919050565b60006020820190508181036000830152612eed81612eb1565b9050919050565b7f4c6f636b3a20596f757220746f6b656e206973206c6f636b0000000000000000600082015250565b6000612f2a6018836127c9565b9150612f3582612ef4565b601882019050919050565b6000612f4b82612f1d565b9150819050919050565b600081519050612f6481612198565b92915050565b600060208284031215612f8057612f7f611fbe565b5b6000612f8e84828501612f55565b9150509291505056fea2646970667358221220627c13913070031c7564cee7e9a81d4311abca4730db4234f4bd8fb9b65d799064736f6c63430008120033",
  "linkReferences": {},
  "deployedLinkReferences": {}
}