{
  "address": "0xCf7Ed3AccA5a467e9e704C703E8D87F634fB0Fc9",
  "abi": [
    {
      "inputs": [
        {
          "internalType": "address",
          "name": "_accountReceiveTicketPrice",
          "type": "address"
        },
        {
          "internalType": "address",
          "name": "_accountReceiveStaking",
          "type": "address"
        }
      ],
      "stateMutability": "nonpayable",
      "type": "constructor"
    },
    {
      "anonymous": false,
      "inputs": [
        {
          "indexed": false,
          "internalType": "address",
          "name": "by",
          "type": "address"
        },
        {
          "indexed": false,
          "internalType": "string",
          "name": "name",
          "type": "string"
        },
        {
          "indexed": false,
          "internalType": "uint256",
          "name": "timestamp",
          "type": "uint256"
        },
        {
          "indexed": false,
          "internalType": "uint256",
          "name": "amount",
          "type": "uint256"
        },
        {
          "indexed": false,
          "internalType": "uint256",
          "name": "idDao",
          "type": "uint256"
        }
      ],
      "name": "JoinDao",
      "type": "event"
    },
    {
      "anonymous": false,
      "inputs": [
        {
          "indexed": false,
          "internalType": "address",
          "name": "by",
          "type": "address"
        },
        {
          "indexed": false,
          "internalType": "uint256",
          "name": "timeJoinDao",
          "type": "uint256"
        },
        {
          "indexed": false,
          "internalType": "uint256",
          "name": "idDao",
          "type": "uint256"
        }
      ],
      "name": "LeaveDao",
      "type": "event"
    },
    {
      "anonymous": false,
      "inputs": [
        {
          "indexed": true,
          "internalType": "address",
          "name": "previousOwner",
          "type": "address"
        },
        {
          "indexed": true,
          "internalType": "address",
          "name": "newOwner",
          "type": "address"
        }
      ],
      "name": "OwnershipTransferred",
      "type": "event"
    },
    {
      "anonymous": false,
      "inputs": [
        {
          "indexed": false,
          "internalType": "address",
          "name": "account",
          "type": "address"
        }
      ],
      "name": "Paused",
      "type": "event"
    },
    {
      "anonymous": false,
      "inputs": [
        {
          "indexed": false,
          "internalType": "address",
          "name": "account",
          "type": "address"
        }
      ],
      "name": "Unpaused",
      "type": "event"
    },
    {
      "inputs": [],
      "name": "accountReceiveStaking",
      "outputs": [
        {
          "internalType": "address",
          "name": "",
          "type": "address"
        }
      ],
      "stateMutability": "view",
      "type": "function"
    },
    {
      "inputs": [],
      "name": "accountReceiveTicketPrice",
      "outputs": [
        {
          "internalType": "address",
          "name": "",
          "type": "address"
        }
      ],
      "stateMutability": "view",
      "type": "function"
    },
    {
      "inputs": [
        {
          "internalType": "uint256",
          "name": "_id",
          "type": "uint256"
        },
        {
          "internalType": "uint256",
          "name": "_index",
          "type": "uint256"
        }
      ],
      "name": "getInfoMemberById",
      "outputs": [
        {
          "components": [
            {
              "internalType": "uint256",
              "name": "id",
              "type": "uint256"
            },
            {
              "internalType": "string",
              "name": "name",
              "type": "string"
            },
            {
              "internalType": "uint256",
              "name": "daoId",
              "type": "uint256"
            },
            {
              "internalType": "address",
              "name": "addressUser",
              "type": "address"
            },
            {
              "internalType": "uint256",
              "name": "amountStaking",
              "type": "uint256"
            },
            {
              "internalType": "uint256",
              "name": "timeJoinDao",
              "type": "uint256"
            },
            {
              "internalType": "uint256",
              "name": "timeLeaveDao",
              "type": "uint256"
            },
            {
              "internalType": "string",
              "name": "status",
              "type": "string"
            }
          ],
          "internalType": "struct AihomeDaoStaking.ProfileMember",
          "name": "",
          "type": "tuple"
        }
      ],
      "stateMutability": "view",
      "type": "function"
    },
    {
      "inputs": [
        {
          "internalType": "string",
          "name": "",
          "type": "string"
        }
      ],
      "name": "isExistName",
      "outputs": [
        {
          "internalType": "bool",
          "name": "",
          "type": "bool"
        }
      ],
      "stateMutability": "view",
      "type": "function"
    },
    {
      "inputs": [
        {
          "internalType": "address",
          "name": "",
          "type": "address"
        }
      ],
      "name": "isMemberDao",
      "outputs": [
        {
          "internalType": "bool",
          "name": "",
          "type": "bool"
        }
      ],
      "stateMutability": "view",
      "type": "function"
    },
    {
      "inputs": [
        {
          "internalType": "address",
          "name": "_address",
          "type": "address"
        }
      ],
      "name": "isMemberOrOwner",
      "outputs": [
        {
          "internalType": "bool",
          "name": "",
          "type": "bool"
        }
      ],
      "stateMutability": "view",
      "type": "function"
    },
    {
      "inputs": [
        {
          "internalType": "uint256",
          "name": "_id",
          "type": "uint256"
        },
        {
          "internalType": "string",
          "name": "_name",
          "type": "string"
        }
      ],
      "name": "joinDao",
      "outputs": [],
      "stateMutability": "nonpayable",
      "type": "function"
    },
    {
      "inputs": [],
      "name": "leaveDao",
      "outputs": [],
      "stateMutability": "nonpayable",
      "type": "function"
    },
    {
      "inputs": [],
      "name": "owner",
      "outputs": [
        {
          "internalType": "address",
          "name": "",
          "type": "address"
        }
      ],
      "stateMutability": "view",
      "type": "function"
    },
    {
      "inputs": [],
      "name": "pause",
      "outputs": [],
      "stateMutability": "nonpayable",
      "type": "function"
    },
    {
      "inputs": [],
      "name": "paused",
      "outputs": [
        {
          "internalType": "bool",
          "name": "",
          "type": "bool"
        }
      ],
      "stateMutability": "view",
      "type": "function"
    },
    {
      "inputs": [
        {
          "internalType": "uint256",
          "name": "",
          "type": "uint256"
        }
      ],
      "name": "profileDaoById",
      "outputs": [
        {
          "internalType": "uint256",
          "name": "totalMember",
          "type": "uint256"
        },
        {
          "internalType": "uint256",
          "name": "totalStake",
          "type": "uint256"
        }
      ],
      "stateMutability": "view",
      "type": "function"
    },
    {
      "inputs": [
        {
          "internalType": "address",
          "name": "",
          "type": "address"
        }
      ],
      "name": "profileMemberDao",
      "outputs": [
        {
          "internalType": "uint256",
          "name": "id",
          "type": "uint256"
        },
        {
          "internalType": "string",
          "name": "name",
          "type": "string"
        },
        {
          "internalType": "uint256",
          "name": "daoId",
          "type": "uint256"
        },
        {
          "internalType": "address",
          "name": "addressUser",
          "type": "address"
        },
        {
          "internalType": "uint256",
          "name": "amountStaking",
          "type": "uint256"
        },
        {
          "internalType": "uint256",
          "name": "timeJoinDao",
          "type": "uint256"
        },
        {
          "internalType": "uint256",
          "name": "timeLeaveDao",
          "type": "uint256"
        },
        {
          "internalType": "string",
          "name": "status",
          "type": "string"
        }
      ],
      "stateMutability": "view",
      "type": "function"
    },
    {
      "inputs": [],
      "name": "renounceOwnership",
      "outputs": [],
      "stateMutability": "nonpayable",
      "type": "function"
    },
    {
      "inputs": [
        {
          "internalType": "address",
          "name": "newOwner",
          "type": "address"
        }
      ],
      "name": "transferOwnership",
      "outputs": [],
      "stateMutability": "nonpayable",
      "type": "function"
    },
    {
      "inputs": [],
      "name": "unpause",
      "outputs": [],
      "stateMutability": "nonpayable",
      "type": "function"
    }
  ],
  "transactionHash": "0x4a4a7d91406779af8af46a4ab59cfcfdafa43b7f91645a7056fdd33e6c1c00be",
  "args": [
    "0xf39Fd6e51aad88F6F4ce6aB8827279cffFb92266",
    "0xf39Fd6e51aad88F6F4ce6aB8827279cffFb92266"
  ],
  "numDeployments": 1,
  "solcInputHash": "3f92f09af1748f41760b4534362735f4",
  "bytecode": "0x60806040523480156200001157600080fd5b50604051620019fc380380620019fc8339810160408190526200003491620000f1565b6000805460ff1916905562000049336200007b565b600180546001600160a01b039384166001600160a01b0319918216179091556002805492909316911617905562000129565b600080546001600160a01b03838116610100818102610100600160a81b0319851617855560405193049190911692909183917f8be0079c531659141344cd1fd0a4f28419497f9722a3daafe3b4186f6b6457e091a35050565b80516001600160a01b0381168114620000ec57600080fd5b919050565b600080604083850312156200010557600080fd5b6200011083620000d4565b91506200012060208401620000d4565b90509250929050565b6118c380620001396000396000f3fe608060405234801561001057600080fd5b50600436106101005760003560e01c80638e2965ba11610097578063cfdd3d8e11610066578063cfdd3d8e14610223578063ea7b21bb14610251578063f2fde38b14610259578063fd4194051461026c57600080fd5b80638e2965ba146101d7578063b3ea42b9146101ea578063b8efe826146101fd578063bedd20501461021057600080fd5b806363b1dec8116100d357806363b1dec81461017d578063715018a61461019d5780638456cb59146101a55780638da5cb5b146101ad57600080fd5b8063202531c81461010557806336b88202146101355780633f4ba83a146101685780635c975abb14610172575b600080fd5b610118610113366004611268565b6102a8565b60405161012c9897969594939291906112dc565b60405180910390f35b610158610143366004611268565b60046020526000908152604090205460ff1681565b604051901515815260200161012c565b61017061040c565b005b60005460ff16610158565b61019061018b36600461133f565b61041e565b60405161012c9190611361565b6101706105d9565b6101706105eb565b60005461010090046001600160a01b03165b6040516001600160a01b03909116815260200161012c565b6001546101bf906001600160a01b031681565b6101706101f83660046114af565b6105fb565b61015861020b366004611268565b610cd4565b6002546101bf906001600160a01b031681565b6101586102313660046114f6565b805160208183018101805160078252928201919093012091525460ff1681565b610170610d85565b610170610267366004611268565b610fb5565b61029361027a36600461152b565b6005602052600090815260409020805460019091015482565b6040805192835260208301919091520161012c565b600360205260009081526040902080546001820180549192916102ca90611544565b80601f01602080910402602001604051908101604052809291908181526020018280546102f690611544565b80156103435780601f1061031857610100808354040283529160200191610343565b820191906000526020600020905b81548152906001019060200180831161032657829003601f168201915b5050505050908060020154908060030160009054906101000a90046001600160a01b03169080600401549080600501549080600601549080600701805461038990611544565b80601f01602080910402602001604051908101604052809291908181526020018280546103b590611544565b80156104025780601f106103d757610100808354040283529160200191610402565b820191906000526020600020905b8154815290600101906020018083116103e557829003601f168201915b5050505050905088565b61041461102e565b61041c61108e565b565b610426611205565b60008381526006602090815260408083208584528252808320546001600160a01b031680845260038352818420825161010081019093528054835260018101805492959491929184019161047990611544565b80601f01602080910402602001604051908101604052809291908181526020018280546104a590611544565b80156104f25780601f106104c7576101008083540402835291602001916104f2565b820191906000526020600020905b8154815290600101906020018083116104d557829003601f168201915b50505091835250506002820154602082015260038201546001600160a01b031660408201526004820154606082015260058201546080820152600682015460a082015260078201805460c09092019161054a90611544565b80601f016020809104026020016040519081016040528092919081815260200182805461057690611544565b80156105c35780601f10610598576101008083540402835291602001916105c3565b820191906000526020600020905b8154815290600101906020018083116105a657829003601f168201915b5050509190925250919450505050505b92915050565b6105e161102e565b61041c60006110e0565b6105f361102e565b61041c611139565b610603611176565b61060b611205565b3360009081526004602052604090205460ff16156106705760405162461bcd60e51b815260206004820152601760248201527f596f75206172652061206d656d626572206f662064616f00000000000000000060448201526064015b60405180910390fd5b6040516325ae16db60e11b815233600482015273f355a894c449d81570e5c4b7da43ca266987808c90634b5c2db690602401602060405180830381865afa1580156106bf573d6000803e3d6000fd5b505050506040513d601f19601f820116820180604052508101906106e3919061157e565b156107245760405162461bcd60e51b8152602060048201526011602482015270596f7520617265206f776e65722064616f60781b6044820152606401610667565b60078260405161073491906115a0565b9081526040519081900360200190205460ff16156107895760405162461bcd60e51b815260206004820152601260248201527113985b5948185b1c9958591e48195e1a5cdd60721b6044820152606401610667565b60008251116107c95760405162461bcd60e51b815260206004820152600c60248201526b496e76616c6964206e616d6560a01b6044820152606401610667565b73f355a894c449d81570e5c4b7da43ca266987808c6001600160a01b0316639f47ceff6040518163ffffffff1660e01b8152600401602060405180830381865afa15801561081b573d6000803e3d6000fd5b505050506040513d601f19601f8201168201806040525081019061083f91906115bc565b8311156108865760405162461bcd60e51b815260206004820152601560248201527411185bc81a5908191bd95cc81b9bdd08195e1a5cdd605a1b6044820152606401610667565b60405163d70980cf60e01b81526004810184905260009073f355a894c449d81570e5c4b7da43ca266987808c9063d70980cf906024016000604051808303816000875af11580156108db573d6000803e3d6000fd5b505050506040513d6000823e601f3d908101601f1916820160405261090391908101906115d5565b9350505050600081600103610922575068022b1c8c1227a00000610946565b8160020361093a5750680340aad21b3b700000610946565b5068056bc75e2d631000005b6040516370a0823160e01b81523360048201528190738402c360a9c1c9214d870c00835450899bc4f318906370a0823190602401602060405180830381865afa158015610997573d6000803e3d6000fd5b505050506040513d601f19601f820116820180604052508101906109bb91906115bc565b1015610a095760405162461bcd60e51b815260206004820152601960248201527f6e6f7420656e6f756768206d6f6e657920746f207472616465000000000000006044820152606401610667565b33600090815260036020526040902060060154610a299062278d00611688565b4211610a695760405162461bcd60e51b815260206004820152600f60248201526e6e6f7420656e6f7567682074696d6560881b6044820152606401610667565b6001546040516323b872dd60e01b81523360048201526001600160a01b03909116602482015260448101829052738402c360a9c1c9214d870c00835450899bc4f318906323b872dd906064016020604051808303816000875af1158015610ad4573d6000803e3d6000fd5b505050506040513d601f19601f82011682018060405250810190610af8919061157e565b5060008581526005602052604081206001018054839290610b1a908490611688565b9091555050336060840181905260408085018790526020808601879052608086018490524260a087015281518083018352600681526561637469766560d01b8183015260e0870152600092835260048152818320805460ff19166001179055878352600590528120805491610b8e8361169b565b909155505060008581526005602090815260408083205486523383526003825290912084518155908401518491906001820190610bcb9082611703565b506040820151600282015560608201516003820180546001600160a01b0319166001600160a01b039092169190911790556080820151600482015560a0820151600582015560c0820151600682015560e08201516007820190610c2e9082611703565b5050506000858152600660209081526040808320865184529091529081902080546001600160a01b0319163317905551600190600790610c6f9087906115a0565b908152604051908190036020018120805492151560ff19909316929092179091557fdcb52cb2319d5a89c247a2307cf43c2e7bc046699441fc0a612dcba58988e0fd90610cc59033908790429086908b906117c3565b60405180910390a15050505050565b6040516325ae16db60e11b81526001600160a01b0382166004820152600090819073f355a894c449d81570e5c4b7da43ca266987808c90634b5c2db690602401602060405180830381865afa158015610d31573d6000803e3d6000fd5b505050506040513d601f19601f82011682018060405250810190610d55919061157e565b6001600160a01b03841660009081526004602052604090205490915060ff168180610d7d5750805b949350505050565b610d8d611176565b33600090815260036020908152604080832060049092529091205460ff161515600114610dfc5760405162461bcd60e51b815260206004820152601b60248201527f796f7520617265206e6f742061206d656d626572206f662064616f00000000006044820152606401610667565b600154336000818152600360205260409081902060049081015491516323b872dd60e01b81526001600160a01b039094169084015260248301919091526044820152738402c360a9c1c9214d870c00835450899bc4f318906323b872dd906064016020604051808303816000875af1158015610e7c573d6000803e3d6000fd5b505050506040513d601f19601f82011682018060405250810190610ea0919061157e565b503360009081526003602090815260408083206004810154600290910154845260059092528220600101805491929091610edb908490611804565b909155505033600090815260046020908152604091829020805460ff1916905581518083019092526008825267696e41637469766560c01b908201526007820190610f269082611703565b50426006820155336000908152600360205260408082209051600791610f5191600190910190611817565b9081526040805160209281900383018120805460ff191694151594909417909355600684015433845242928401929092528201527fd23d99204cc96426a4c580f3d1a6a95f01a1e35535ce2115643f3c99a629b6229060600160405180910390a150565b610fbd61102e565b6001600160a01b0381166110225760405162461bcd60e51b815260206004820152602660248201527f4f776e61626c653a206e6577206f776e657220697320746865207a65726f206160448201526564647265737360d01b6064820152608401610667565b61102b816110e0565b50565b6000546001600160a01b0361010090910416331461041c5760405162461bcd60e51b815260206004820181905260248201527f4f776e61626c653a2063616c6c6572206973206e6f7420746865206f776e65726044820152606401610667565b6110966111bc565b6000805460ff191690557f5db9ee0a495bf2e6ff9c91a7834c1ba4fdd244a5e8aa4e537bd38aeae4b073aa335b6040516001600160a01b03909116815260200160405180910390a1565b600080546001600160a01b03838116610100818102610100600160a81b0319851617855560405193049190911692909183917f8be0079c531659141344cd1fd0a4f28419497f9722a3daafe3b4186f6b6457e091a35050565b611141611176565b6000805460ff191660011790557f62e78cea01bee320cd4e420270b5ea74000d11b0c9f74754ebdbfc544b05a2586110c33390565b60005460ff161561041c5760405162461bcd60e51b815260206004820152601060248201526f14185d5cd8589b194e881c185d5cd95960821b6044820152606401610667565b60005460ff1661041c5760405162461bcd60e51b815260206004820152601460248201527314185d5cd8589b194e881b9bdd081c185d5cd95960621b6044820152606401610667565b60405180610100016040528060008152602001606081526020016000815260200160006001600160a01b03168152602001600081526020016000815260200160008152602001606081525090565b6001600160a01b038116811461102b57600080fd5b60006020828403121561127a57600080fd5b813561128581611253565b9392505050565b60005b838110156112a757818101518382015260200161128f565b50506000910152565b600081518084526112c881602086016020860161128c565b601f01601f19169290920160200192915050565b60006101008a83528060208401526112f68184018b6112b0565b905088604084015260018060a01b03881660608401528660808401528560a08401528460c084015282810360e084015261133081856112b0565b9b9a5050505050505050505050565b6000806040838503121561135257600080fd5b50508035926020909101359150565b60208152815160208201526000602083015161010080604085015261138a6101208501836112b0565b91506040850151606085015260018060a01b036060860151166080850152608085015160a085015260a085015160c085015260c085015160e085015260e0850151601f1985840301828601526113e083826112b0565b9695505050505050565b634e487b7160e01b600052604160045260246000fd5b604051601f8201601f1916810167ffffffffffffffff81118282101715611429576114296113ea565b604052919050565b600067ffffffffffffffff82111561144b5761144b6113ea565b50601f01601f191660200190565b600082601f83011261146a57600080fd5b813561147d61147882611431565b611400565b81815284602083860101111561149257600080fd5b816020850160208301376000918101602001919091529392505050565b600080604083850312156114c257600080fd5b82359150602083013567ffffffffffffffff8111156114e057600080fd5b6114ec85828601611459565b9150509250929050565b60006020828403121561150857600080fd5b813567ffffffffffffffff81111561151f57600080fd5b610d7d84828501611459565b60006020828403121561153d57600080fd5b5035919050565b600181811c9082168061155857607f821691505b60208210810361157857634e487b7160e01b600052602260045260246000fd5b50919050565b60006020828403121561159057600080fd5b8151801515811461128557600080fd5b600082516115b281846020870161128c565b9190910192915050565b6000602082840312156115ce57600080fd5b5051919050565b600080600080608085870312156115eb57600080fd5b84519350602085015167ffffffffffffffff81111561160957600080fd5b8501601f8101871361161a57600080fd5b805161162861147882611431565b81815288602083850101111561163d57600080fd5b61164e82602083016020860161128c565b809550505050604085015161166281611253565b6060959095015193969295505050565b634e487b7160e01b600052601160045260246000fd5b808201808211156105d3576105d3611672565b6000600182016116ad576116ad611672565b5060010190565b601f8211156116fe57600081815260208120601f850160051c810160208610156116db5750805b601f850160051c820191505b818110156116fa578281556001016116e7565b5050505b505050565b815167ffffffffffffffff81111561171d5761171d6113ea565b6117318161172b8454611544565b846116b4565b602080601f831160018114611766576000841561174e5750858301515b600019600386901b1c1916600185901b1785556116fa565b600085815260208120601f198616915b8281101561179557888601518255948401946001909101908401611776565b50858210156117b35787850151600019600388901b60f8161c191681555b5050505050600190811b01905550565b6001600160a01b038616815260a0602082018190526000906117e7908301876112b0565b604083019590955250606081019290925260809091015292915050565b818103818111156105d3576105d3611672565b600080835461182581611544565b6001828116801561183d576001811461185257611881565b60ff1984168752821515830287019450611881565b8760005260208060002060005b858110156118785781548a82015290840190820161185f565b50505082870194505b5092969550505050505056fea26469706673582212202cf39e6fc6047457d7bdceebf1b82b4c1993b692e1e8c41499d23f6f5cbe5b7464736f6c63430008120033",
  "devdoc": {
    "events": {
      "Paused(address)": {
        "details": "Emitted when the pause is triggered by `account`."
      },
      "Unpaused(address)": {
        "details": "Emitted when the pause is lifted by `account`."
      }
    },
    "kind": "dev",
    "methods": {
      "owner()": {
        "details": "Returns the address of the current owner."
      },
      "paused()": {
        "details": "Returns true if the contract is paused, and false otherwise."
      },
      "renounceOwnership()": {
        "details": "Leaves the contract without owner. It will not be possible to call `onlyOwner` functions. Can only be called by the current owner. NOTE: Renouncing ownership will leave the contract without an owner, thereby disabling any functionality that is only available to the owner."
      },
      "transferOwnership(address)": {
        "details": "Transfers ownership of the contract to a new account (`newOwner`). Can only be called by the current owner."
      }
    },
    "version": 1
  },
  "userdoc": {
    "kind": "user",
    "methods": {},
    "version": 1
  },
  "storageLayout": {
    "storage": [
      {
        "astId": 930,
        "contract": "contracts/AihomeDaoStaking.sol:AihomeDaoStaking",
        "label": "_paused",
        "offset": 0,
        "slot": "0",
        "type": "t_bool"
      },
      {
        "astId": 807,
        "contract": "contracts/AihomeDaoStaking.sol:AihomeDaoStaking",
        "label": "_owner",
        "offset": 1,
        "slot": "0",
        "type": "t_address"
      },
      {
        "astId": 2681,
        "contract": "contracts/AihomeDaoStaking.sol:AihomeDaoStaking",
        "label": "accountReceiveTicketPrice",
        "offset": 0,
        "slot": "1",
        "type": "t_address"
      },
      {
        "astId": 2683,
        "contract": "contracts/AihomeDaoStaking.sol:AihomeDaoStaking",
        "label": "accountReceiveStaking",
        "offset": 0,
        "slot": "2",
        "type": "t_address"
      },
      {
        "astId": 2710,
        "contract": "contracts/AihomeDaoStaking.sol:AihomeDaoStaking",
        "label": "profileMemberDao",
        "offset": 0,
        "slot": "3",
        "type": "t_mapping(t_address,t_struct(ProfileMember)2705_storage)"
      },
      {
        "astId": 2714,
        "contract": "contracts/AihomeDaoStaking.sol:AihomeDaoStaking",
        "label": "isMemberDao",
        "offset": 0,
        "slot": "4",
        "type": "t_mapping(t_address,t_bool)"
      },
      {
        "astId": 2719,
        "contract": "contracts/AihomeDaoStaking.sol:AihomeDaoStaking",
        "label": "profileDaoById",
        "offset": 0,
        "slot": "5",
        "type": "t_mapping(t_uint256,t_struct(ProfileDao)2688_storage)"
      },
      {
        "astId": 2725,
        "contract": "contracts/AihomeDaoStaking.sol:AihomeDaoStaking",
        "label": "getAddressDaoById",
        "offset": 0,
        "slot": "6",
        "type": "t_mapping(t_uint256,t_mapping(t_uint256,t_address))"
      },
      {
        "astId": 2729,
        "contract": "contracts/AihomeDaoStaking.sol:AihomeDaoStaking",
        "label": "isExistName",
        "offset": 0,
        "slot": "7",
        "type": "t_mapping(t_string_memory_ptr,t_bool)"
      }
    ],
    "types": {
      "t_address": {
        "encoding": "inplace",
        "label": "address",
        "numberOfBytes": "20"
      },
      "t_bool": {
        "encoding": "inplace",
        "label": "bool",
        "numberOfBytes": "1"
      },
      "t_mapping(t_address,t_bool)": {
        "encoding": "mapping",
        "key": "t_address",
        "label": "mapping(address => bool)",
        "numberOfBytes": "32",
        "value": "t_bool"
      },
      "t_mapping(t_address,t_struct(ProfileMember)2705_storage)": {
        "encoding": "mapping",
        "key": "t_address",
        "label": "mapping(address => struct AihomeDaoStaking.ProfileMember)",
        "numberOfBytes": "32",
        "value": "t_struct(ProfileMember)2705_storage"
      },
      "t_mapping(t_string_memory_ptr,t_bool)": {
        "encoding": "mapping",
        "key": "t_string_memory_ptr",
        "label": "mapping(string => bool)",
        "numberOfBytes": "32",
        "value": "t_bool"
      },
      "t_mapping(t_uint256,t_address)": {
        "encoding": "mapping",
        "key": "t_uint256",
        "label": "mapping(uint256 => address)",
        "numberOfBytes": "32",
        "value": "t_address"
      },
      "t_mapping(t_uint256,t_mapping(t_uint256,t_address))": {
        "encoding": "mapping",
        "key": "t_uint256",
        "label": "mapping(uint256 => mapping(uint256 => address))",
        "numberOfBytes": "32",
        "value": "t_mapping(t_uint256,t_address)"
      },
      "t_mapping(t_uint256,t_struct(ProfileDao)2688_storage)": {
        "encoding": "mapping",
        "key": "t_uint256",
        "label": "mapping(uint256 => struct AihomeDaoStaking.ProfileDao)",
        "numberOfBytes": "32",
        "value": "t_struct(ProfileDao)2688_storage"
      },
      "t_string_memory_ptr": {
        "encoding": "bytes",
        "label": "string",
        "numberOfBytes": "32"
      },
      "t_string_storage": {
        "encoding": "bytes",
        "label": "string",
        "numberOfBytes": "32"
      },
      "t_struct(ProfileDao)2688_storage": {
        "encoding": "inplace",
        "label": "struct AihomeDaoStaking.ProfileDao",
        "members": [
          {
            "astId": 2685,
            "contract": "contracts/AihomeDaoStaking.sol:AihomeDaoStaking",
            "label": "totalMember",
            "offset": 0,
            "slot": "0",
            "type": "t_uint256"
          },
          {
            "astId": 2687,
            "contract": "contracts/AihomeDaoStaking.sol:AihomeDaoStaking",
            "label": "totalStake",
            "offset": 0,
            "slot": "1",
            "type": "t_uint256"
          }
        ],
        "numberOfBytes": "64"
      },
      "t_struct(ProfileMember)2705_storage": {
        "encoding": "inplace",
        "label": "struct AihomeDaoStaking.ProfileMember",
        "members": [
          {
            "astId": 2690,
            "contract": "contracts/AihomeDaoStaking.sol:AihomeDaoStaking",
            "label": "id",
            "offset": 0,
            "slot": "0",
            "type": "t_uint256"
          },
          {
            "astId": 2692,
            "contract": "contracts/AihomeDaoStaking.sol:AihomeDaoStaking",
            "label": "name",
            "offset": 0,
            "slot": "1",
            "type": "t_string_storage"
          },
          {
            "astId": 2694,
            "contract": "contracts/AihomeDaoStaking.sol:AihomeDaoStaking",
            "label": "daoId",
            "offset": 0,
            "slot": "2",
            "type": "t_uint256"
          },
          {
            "astId": 2696,
            "contract": "contracts/AihomeDaoStaking.sol:AihomeDaoStaking",
            "label": "addressUser",
            "offset": 0,
            "slot": "3",
            "type": "t_address"
          },
          {
            "astId": 2698,
            "contract": "contracts/AihomeDaoStaking.sol:AihomeDaoStaking",
            "label": "amountStaking",
            "offset": 0,
            "slot": "4",
            "type": "t_uint256"
          },
          {
            "astId": 2700,
            "contract": "contracts/AihomeDaoStaking.sol:AihomeDaoStaking",
            "label": "timeJoinDao",
            "offset": 0,
            "slot": "5",
            "type": "t_uint256"
          },
          {
            "astId": 2702,
            "contract": "contracts/AihomeDaoStaking.sol:AihomeDaoStaking",
            "label": "timeLeaveDao",
            "offset": 0,
            "slot": "6",
            "type": "t_uint256"
          },
          {
            "astId": 2704,
            "contract": "contracts/AihomeDaoStaking.sol:AihomeDaoStaking",
            "label": "status",
            "offset": 0,
            "slot": "7",
            "type": "t_string_storage"
          }
        ],
        "numberOfBytes": "256"
      },
      "t_uint256": {
        "encoding": "inplace",
        "label": "uint256",
        "numberOfBytes": "32"
      }
    }
  }
}