{
  "address": "0xCf7Ed3AccA5a467e9e704C703E8D87F634fB0Fc9",
  "abi": [
    {
      "inputs": [
        {
          "internalType": "address",
          "name": "_accountReceiveTicketPrice",
          "type": "address"
        },
        {
          "internalType": "address",
          "name": "_accountReceiveStaking",
          "type": "address"
        }
      ],
      "stateMutability": "nonpayable",
      "type": "constructor"
    },
    {
      "anonymous": false,
      "inputs": [
        {
          "indexed": false,
          "internalType": "address",
          "name": "by",
          "type": "address"
        },
        {
          "indexed": false,
          "internalType": "uint256",
          "name": "timestamp",
          "type": "uint256"
        },
        {
          "indexed": false,
          "internalType": "uint256",
          "name": "amount",
          "type": "uint256"
        },
        {
          "indexed": false,
          "internalType": "uint256",
          "name": "idDao",
          "type": "uint256"
        }
      ],
      "name": "JoinDao",
      "type": "event"
    },
    {
      "anonymous": false,
      "inputs": [
        {
          "indexed": false,
          "internalType": "address",
          "name": "by",
          "type": "address"
        },
        {
          "indexed": false,
          "internalType": "uint256",
          "name": "timeJoinDao",
          "type": "uint256"
        },
        {
          "indexed": false,
          "internalType": "uint256",
          "name": "idDao",
          "type": "uint256"
        }
      ],
      "name": "LeaveDao",
      "type": "event"
    },
    {
      "anonymous": false,
      "inputs": [
        {
          "indexed": true,
          "internalType": "address",
          "name": "previousOwner",
          "type": "address"
        },
        {
          "indexed": true,
          "internalType": "address",
          "name": "newOwner",
          "type": "address"
        }
      ],
      "name": "OwnershipTransferred",
      "type": "event"
    },
    {
      "anonymous": false,
      "inputs": [
        {
          "indexed": false,
          "internalType": "address",
          "name": "account",
          "type": "address"
        }
      ],
      "name": "Paused",
      "type": "event"
    },
    {
      "anonymous": false,
      "inputs": [
        {
          "indexed": false,
          "internalType": "address",
          "name": "by",
          "type": "address"
        },
        {
          "indexed": false,
          "internalType": "uint256",
          "name": "idDao",
          "type": "uint256"
        },
        {
          "indexed": false,
          "internalType": "uint256",
          "name": "timeStamp",
          "type": "uint256"
        },
        {
          "indexed": false,
          "internalType": "uint256",
          "name": "amountStaking",
          "type": "uint256"
        }
      ],
      "name": "StakeDao",
      "type": "event"
    },
    {
      "anonymous": false,
      "inputs": [
        {
          "indexed": false,
          "internalType": "address",
          "name": "account",
          "type": "address"
        }
      ],
      "name": "Unpaused",
      "type": "event"
    },
    {
      "inputs": [],
      "name": "accountReceiveStaking",
      "outputs": [
        {
          "internalType": "address",
          "name": "",
          "type": "address"
        }
      ],
      "stateMutability": "view",
      "type": "function"
    },
    {
      "inputs": [],
      "name": "accountReceiveTicketPrice",
      "outputs": [
        {
          "internalType": "address",
          "name": "",
          "type": "address"
        }
      ],
      "stateMutability": "view",
      "type": "function"
    },
    {
      "inputs": [
        {
          "internalType": "uint256",
          "name": "_id",
          "type": "uint256"
        },
        {
          "internalType": "uint256",
          "name": "_index",
          "type": "uint256"
        }
      ],
      "name": "getInfoMemberById",
      "outputs": [
        {
          "components": [
            {
              "internalType": "uint256",
              "name": "id",
              "type": "uint256"
            },
            {
              "internalType": "uint256",
              "name": "daoId",
              "type": "uint256"
            },
            {
              "internalType": "address",
              "name": "addressUser",
              "type": "address"
            },
            {
              "internalType": "uint256",
              "name": "amountStaking",
              "type": "uint256"
            },
            {
              "internalType": "uint256",
              "name": "timeJoinDao",
              "type": "uint256"
            },
            {
              "internalType": "uint256",
              "name": "timeLeaveDao",
              "type": "uint256"
            },
            {
              "internalType": "string",
              "name": "status",
              "type": "string"
            }
          ],
          "internalType": "struct AihomeDaoStaking.ProfileMember",
          "name": "",
          "type": "tuple"
        }
      ],
      "stateMutability": "view",
      "type": "function"
    },
    {
      "inputs": [
        {
          "internalType": "address",
          "name": "",
          "type": "address"
        }
      ],
      "name": "isMemberDao",
      "outputs": [
        {
          "internalType": "bool",
          "name": "",
          "type": "bool"
        }
      ],
      "stateMutability": "view",
      "type": "function"
    },
    {
      "inputs": [
        {
          "internalType": "uint256",
          "name": "_id",
          "type": "uint256"
        }
      ],
      "name": "joinDao",
      "outputs": [],
      "stateMutability": "nonpayable",
      "type": "function"
    },
    {
      "inputs": [],
      "name": "leaveDao",
      "outputs": [],
      "stateMutability": "nonpayable",
      "type": "function"
    },
    {
      "inputs": [],
      "name": "owner",
      "outputs": [
        {
          "internalType": "address",
          "name": "",
          "type": "address"
        }
      ],
      "stateMutability": "view",
      "type": "function"
    },
    {
      "inputs": [],
      "name": "pause",
      "outputs": [],
      "stateMutability": "nonpayable",
      "type": "function"
    },
    {
      "inputs": [],
      "name": "paused",
      "outputs": [
        {
          "internalType": "bool",
          "name": "",
          "type": "bool"
        }
      ],
      "stateMutability": "view",
      "type": "function"
    },
    {
      "inputs": [
        {
          "internalType": "address",
          "name": "",
          "type": "address"
        }
      ],
      "name": "profileMemberDao",
      "outputs": [
        {
          "internalType": "uint256",
          "name": "id",
          "type": "uint256"
        },
        {
          "internalType": "uint256",
          "name": "daoId",
          "type": "uint256"
        },
        {
          "internalType": "address",
          "name": "addressUser",
          "type": "address"
        },
        {
          "internalType": "uint256",
          "name": "amountStaking",
          "type": "uint256"
        },
        {
          "internalType": "uint256",
          "name": "timeJoinDao",
          "type": "uint256"
        },
        {
          "internalType": "uint256",
          "name": "timeLeaveDao",
          "type": "uint256"
        },
        {
          "internalType": "string",
          "name": "status",
          "type": "string"
        }
      ],
      "stateMutability": "view",
      "type": "function"
    },
    {
      "inputs": [],
      "name": "renounceOwnership",
      "outputs": [],
      "stateMutability": "nonpayable",
      "type": "function"
    },
    {
      "inputs": [
        {
          "internalType": "uint256",
          "name": "amount",
          "type": "uint256"
        }
      ],
      "name": "stake",
      "outputs": [],
      "stateMutability": "nonpayable",
      "type": "function"
    },
    {
      "inputs": [],
      "name": "ticketPrice",
      "outputs": [
        {
          "internalType": "uint256",
          "name": "",
          "type": "uint256"
        }
      ],
      "stateMutability": "view",
      "type": "function"
    },
    {
      "inputs": [
        {
          "internalType": "uint256",
          "name": "",
          "type": "uint256"
        }
      ],
      "name": "totalAmountStake",
      "outputs": [
        {
          "internalType": "uint256",
          "name": "",
          "type": "uint256"
        }
      ],
      "stateMutability": "view",
      "type": "function"
    },
    {
      "inputs": [
        {
          "internalType": "uint256",
          "name": "",
          "type": "uint256"
        }
      ],
      "name": "totalMemberInDao",
      "outputs": [
        {
          "internalType": "uint256",
          "name": "",
          "type": "uint256"
        }
      ],
      "stateMutability": "view",
      "type": "function"
    },
    {
      "inputs": [
        {
          "internalType": "address",
          "name": "newOwner",
          "type": "address"
        }
      ],
      "name": "transferOwnership",
      "outputs": [],
      "stateMutability": "nonpayable",
      "type": "function"
    },
    {
      "inputs": [],
      "name": "unpause",
      "outputs": [],
      "stateMutability": "nonpayable",
      "type": "function"
    }
  ],
  "transactionHash": "0x3b50b71ba75b1665ee70aa152a1fd17e5cca436387ced5e4b4080f84f2aa7cd6",
  "args": [
    "0xf39Fd6e51aad88F6F4ce6aB8827279cffFb92266",
    "0xf39Fd6e51aad88F6F4ce6aB8827279cffFb92266"
  ],
  "numDeployments": 1,
  "solcInputHash": "820067af529a8db407c18ab181401713",
  "bytecode": "0x608060405268056bc75e2d6310000060015534801561001d57600080fd5b50604051620014ef380380620014ef83398101604081905261003e916100f7565b6000805460ff1916905561005133610082565b600280546001600160a01b039384166001600160a01b0319918216179091556003805492909316911617905561012a565b600080546001600160a01b03838116610100818102610100600160a81b0319851617855560405193049190911692909183917f8be0079c531659141344cd1fd0a4f28419497f9722a3daafe3b4186f6b6457e091a35050565b80516001600160a01b03811681146100f257600080fd5b919050565b6000806040838503121561010a57600080fd5b610113836100db565b9150610121602084016100db565b90509250929050565b6113b5806200013a6000396000f3fe608060405234801561001057600080fd5b506004361061010b5760003560e01c8063715018a6116100a2578063a44f773c11610071578063a44f773c1461023a578063a694fc3a1461025a578063bedd20501461026d578063ea7b21bb14610280578063f2fde38b1461028857600080fd5b8063715018a6146101ed5780638456cb59146101f55780638da5cb5b146101fd5780638e2965ba1461022757600080fd5b806336b88202116100de57806336b88202146101875780633f4ba83a146101ba5780635c975abb146101c257806363b1dec8146101cd57600080fd5b80631209b1f61461011057806318084fd91461012c578063202531c8146101415780632dc6086414610167575b600080fd5b61011960015481565b6040519081526020015b60405180910390f35b61013f61013a36600461102b565b61029b565b005b61015461014f366004611044565b6106f3565b60405161012397969594939291906110ba565b61011961017536600461102b565b60066020526000908152604090205481565b6101aa610195366004611044565b60056020526000908152604090205460ff1681565b6040519015158152602001610123565b61013f6107c4565b60005460ff166101aa565b6101e06101db366004611106565b6107d6565b6040516101239190611128565b61013f6108fa565b61013f61090c565b60005461010090046001600160a01b03165b6040516001600160a01b039091168152602001610123565b60025461020f906001600160a01b031681565b61011961024836600461102b565b60076020526000908152604090205481565b61013f61026836600461102b565b61091c565b60035461020f906001600160a01b031681565b61013f610b92565b61013f610296366004611044565b610d95565b6102a3610e0e565b6102ab610fe5565b3360009081526005602052604090205460ff16156103105760405162461bcd60e51b815260206004820152601760248201527f796f75206172652061206d656d626572206f662064616f00000000000000000060448201526064015b60405180910390fd5b739fe46736679d2d9a65f0992f2272de9f3c7fa6e06001600160a01b0316639f47ceff6040518163ffffffff1660e01b81526004016020604051808303816000875af1158015610364573d6000803e3d6000fd5b505050506040513d601f19601f820116820180604052508101906103889190611190565b8211156103cf5760405162461bcd60e51b815260206004820152601560248201527419185bc81a5908191bd95cc81b9bdd08195e1a5cdd605a1b6044820152606401610307565b6001546040516370a0823160e01b815233600482015273e7f1725e7734ce288f8367e1bb143e90bb3f0512906370a0823190602401602060405180830381865afa158015610421573d6000803e3d6000fd5b505050506040513d601f19601f820116820180604052508101906104459190611190565b116104925760405162461bcd60e51b815260206004820152601960248201527f6e6f7420656e6f756768206d6f6e657920746f207472616465000000000000006044820152606401610307565b336000908152600460205260409020600501546104b29062278d006111bf565b42116104f25760405162461bcd60e51b815260206004820152600f60248201526e6e6f7420656e6f7567682074696d6560881b6044820152606401610307565b6002546001546040516323b872dd60e01b81523360048201526001600160a01b039092166024830152604482015273e7f1725e7734ce288f8367e1bb143e90bb3f0512906323b872dd906064016020604051808303816000875af115801561055e573d6000803e3d6000fd5b505050506040513d601f19601f8201168201806040525081019061058291906111d2565b50336040828101828152602080850186815260006060870181815242608089019081528651808801885260068082526561637469766560d01b8288015260c08b0191825298845260058087528885208054600160ff199091168117909155600497889052989094208a51815594519785019790975594516002840180546001600160a01b0319166001600160a01b0390921691909117905551600383015592519181019190915560a085015191810191909155905183928201906106469082611293565b505050600082815260066020526040812080549161066383611353565b90915550506000828152600660209081526040808320548085528584526008835281842081855283529281902080546001600160a01b031916339081179091556001548251918252429382019390935290810191909152606081018490527f0e2284e046c8d8d19c5481016672115d53f5e23e9766c7e8ce363dbc8c0fde809060800160405180910390a1505050565b60046020819052600091825260409091208054600182015460028301546003840154948401546005850154600686018054959794966001600160a01b0390941695929391926107419061120a565b80601f016020809104026020016040519081016040528092919081815260200182805461076d9061120a565b80156107ba5780601f1061078f576101008083540402835291602001916107ba565b820191906000526020600020905b81548152906001019060200180831161079d57829003601f168201915b5050505050905087565b6107cc610e54565b6107d4610eb4565b565b6107de610fe5565b60008381526008602090815260408083208584528252808320546001600160a01b039081168085526004808552838620845160e0810186528154815260018201549681019690965260028101549093169385019390935260038201546060850152918101546080840152600581015460a08401526006810180549294939260c08401919061086b9061120a565b80601f01602080910402602001604051908101604052809291908181526020018280546108979061120a565b80156108e45780601f106108b9576101008083540402835291602001916108e4565b820191906000526020600020905b8154815290600101906020018083116108c757829003601f168201915b5050509190925250919450505050505b92915050565b610902610e54565b6107d46000610f06565b610914610e54565b6107d4610f5f565b610924610e0e565b3360009081526005602052604090205460ff1615156001146109885760405162461bcd60e51b815260206004820152601b60248201527f796f7520617265206e6f742061206d656d626572206f662064616f00000000006044820152606401610307565b6040516370a0823160e01b815233600482015273e7f1725e7734ce288f8367e1bb143e90bb3f0512906370a0823190602401602060405180830381865afa1580156109d7573d6000803e3d6000fd5b505050506040513d601f19601f820116820180604052508101906109fb9190611190565b811115610a4a5760405162461bcd60e51b815260206004820152601860248201527f796f7520617265206e6f7420656e6f756768206d6f6e657900000000000000006044820152606401610307565b6002546040516323b872dd60e01b81523360048201526001600160a01b0390911660248201526044810182905273e7f1725e7734ce288f8367e1bb143e90bb3f0512906323b872dd906064016020604051808303816000875af1158015610ab5573d6000803e3d6000fd5b505050506040513d601f19601f82011682018060405250810190610ad991906111d2565b50336000908152600460209081526040808320600101548352600790915281208054839290610b099084906111bf565b909155505033600090815260046020526040812060038101805491928492610b329084906111bf565b90915550503360008181526004602090815260409182902060010154825193845290830152428282015260608201849052517fefd878e06a7a9d855e7db7ab8e17f0eec966914c52df8b8fbaef0536037259759181900360800190a15050565b610b9a610e0e565b33600090815260046020908152604080832060059092529091205460ff161515600114610c095760405162461bcd60e51b815260206004820152601b60248201527f796f7520617265206e6f742061206d656d626572206f662064616f00000000006044820152606401610307565b3360009081526004602052604090206003015415610d0357600254336000818152600460208190526040918290206003015491516323b872dd60e01b81526001600160a01b03909416908401526024830191909152604482015273e7f1725e7734ce288f8367e1bb143e90bb3f0512906323b872dd906064016020604051808303816000875af1158015610ca1573d6000803e3d6000fd5b505050506040513d601f19601f82011682018060405250810190610cc591906111d2565b503360009081526004602090815260408083206003810154600190910154845260079092528220805491929091610cfd90849061136c565b90915550505b33600090815260056020908152604091829020805460ff1916905581518083019092526008825267696e41637469766560c01b908201526006820190610d499082611293565b504260058201819055604080513381526020810183905280820192909252517fd23d99204cc96426a4c580f3d1a6a95f01a1e35535ce2115643f3c99a629b6229181900360600190a150565b610d9d610e54565b6001600160a01b038116610e025760405162461bcd60e51b815260206004820152602660248201527f4f776e61626c653a206e6577206f776e657220697320746865207a65726f206160448201526564647265737360d01b6064820152608401610307565b610e0b81610f06565b50565b60005460ff16156107d45760405162461bcd60e51b815260206004820152601060248201526f14185d5cd8589b194e881c185d5cd95960821b6044820152606401610307565b6000546001600160a01b036101009091041633146107d45760405162461bcd60e51b815260206004820181905260248201527f4f776e61626c653a2063616c6c6572206973206e6f7420746865206f776e65726044820152606401610307565b610ebc610f9c565b6000805460ff191690557f5db9ee0a495bf2e6ff9c91a7834c1ba4fdd244a5e8aa4e537bd38aeae4b073aa335b6040516001600160a01b03909116815260200160405180910390a1565b600080546001600160a01b03838116610100818102610100600160a81b0319851617855560405193049190911692909183917f8be0079c531659141344cd1fd0a4f28419497f9722a3daafe3b4186f6b6457e091a35050565b610f67610e0e565b6000805460ff191660011790557f62e78cea01bee320cd4e420270b5ea74000d11b0c9f74754ebdbfc544b05a258610ee93390565b60005460ff166107d45760405162461bcd60e51b815260206004820152601460248201527314185d5cd8589b194e881b9bdd081c185d5cd95960621b6044820152606401610307565b6040518060e00160405280600081526020016000815260200160006001600160a01b03168152602001600081526020016000815260200160008152602001606081525090565b60006020828403121561103d57600080fd5b5035919050565b60006020828403121561105657600080fd5b81356001600160a01b038116811461106d57600080fd5b9392505050565b6000815180845260005b8181101561109a5760208185018101518683018201520161107e565b506000602082860101526020601f19601f83011685010191505092915050565b87815286602082015260018060a01b03861660408201528460608201528360808201528260a082015260e060c082015260006110f960e0830184611074565b9998505050505050505050565b6000806040838503121561111957600080fd5b50508035926020909101359150565b60208152815160208201526020820151604082015260018060a01b03604083015116606082015260608201516080820152608082015160a082015260a082015160c0820152600060c083015160e080840152611188610100840182611074565b949350505050565b6000602082840312156111a257600080fd5b5051919050565b634e487b7160e01b600052601160045260246000fd5b808201808211156108f4576108f46111a9565b6000602082840312156111e457600080fd5b8151801515811461106d57600080fd5b634e487b7160e01b600052604160045260246000fd5b600181811c9082168061121e57607f821691505b60208210810361123e57634e487b7160e01b600052602260045260246000fd5b50919050565b601f82111561128e57600081815260208120601f850160051c8101602086101561126b5750805b601f850160051c820191505b8181101561128a57828155600101611277565b5050505b505050565b815167ffffffffffffffff8111156112ad576112ad6111f4565b6112c1816112bb845461120a565b84611244565b602080601f8311600181146112f657600084156112de5750858301515b600019600386901b1c1916600185901b17855561128a565b600085815260208120601f198616915b8281101561132557888601518255948401946001909101908401611306565b50858210156113435787850151600019600388901b60f8161c191681555b5050505050600190811b01905550565b600060018201611365576113656111a9565b5060010190565b818103818111156108f4576108f46111a956fea2646970667358221220f6f1a0d0af3f919535e1b5b6921ff54e7a1f79107aa6a128a4056811246fd4d664736f6c63430008120033",
  "devdoc": {
    "events": {
      "Paused(address)": {
        "details": "Emitted when the pause is triggered by `account`."
      },
      "Unpaused(address)": {
        "details": "Emitted when the pause is lifted by `account`."
      }
    },
    "kind": "dev",
    "methods": {
      "owner()": {
        "details": "Returns the address of the current owner."
      },
      "paused()": {
        "details": "Returns true if the contract is paused, and false otherwise."
      },
      "renounceOwnership()": {
        "details": "Leaves the contract without owner. It will not be possible to call `onlyOwner` functions. Can only be called by the current owner. NOTE: Renouncing ownership will leave the contract without an owner, thereby disabling any functionality that is only available to the owner."
      },
      "transferOwnership(address)": {
        "details": "Transfers ownership of the contract to a new account (`newOwner`). Can only be called by the current owner."
      }
    },
    "version": 1
  },
  "userdoc": {
    "kind": "user",
    "methods": {},
    "version": 1
  },
  "storageLayout": {
    "storage": [
      {
        "astId": 130,
        "contract": "contracts/AihomeDaoStaking.sol:AihomeDaoStaking",
        "label": "_paused",
        "offset": 0,
        "slot": "0",
        "type": "t_bool"
      },
      {
        "astId": 7,
        "contract": "contracts/AihomeDaoStaking.sol:AihomeDaoStaking",
        "label": "_owner",
        "offset": 1,
        "slot": "0",
        "type": "t_address"
      },
      {
        "astId": 338,
        "contract": "contracts/AihomeDaoStaking.sol:AihomeDaoStaking",
        "label": "ticketPrice",
        "offset": 0,
        "slot": "1",
        "type": "t_uint256"
      },
      {
        "astId": 346,
        "contract": "contracts/AihomeDaoStaking.sol:AihomeDaoStaking",
        "label": "accountReceiveTicketPrice",
        "offset": 0,
        "slot": "2",
        "type": "t_address"
      },
      {
        "astId": 348,
        "contract": "contracts/AihomeDaoStaking.sol:AihomeDaoStaking",
        "label": "accountReceiveStaking",
        "offset": 0,
        "slot": "3",
        "type": "t_address"
      },
      {
        "astId": 368,
        "contract": "contracts/AihomeDaoStaking.sol:AihomeDaoStaking",
        "label": "profileMemberDao",
        "offset": 0,
        "slot": "4",
        "type": "t_mapping(t_address,t_struct(ProfileMember)363_storage)"
      },
      {
        "astId": 372,
        "contract": "contracts/AihomeDaoStaking.sol:AihomeDaoStaking",
        "label": "isMemberDao",
        "offset": 0,
        "slot": "5",
        "type": "t_mapping(t_address,t_bool)"
      },
      {
        "astId": 376,
        "contract": "contracts/AihomeDaoStaking.sol:AihomeDaoStaking",
        "label": "totalMemberInDao",
        "offset": 0,
        "slot": "6",
        "type": "t_mapping(t_uint256,t_uint256)"
      },
      {
        "astId": 380,
        "contract": "contracts/AihomeDaoStaking.sol:AihomeDaoStaking",
        "label": "totalAmountStake",
        "offset": 0,
        "slot": "7",
        "type": "t_mapping(t_uint256,t_uint256)"
      },
      {
        "astId": 386,
        "contract": "contracts/AihomeDaoStaking.sol:AihomeDaoStaking",
        "label": "getAddressDaoById",
        "offset": 0,
        "slot": "8",
        "type": "t_mapping(t_uint256,t_mapping(t_uint256,t_address))"
      }
    ],
    "types": {
      "t_address": {
        "encoding": "inplace",
        "label": "address",
        "numberOfBytes": "20"
      },
      "t_bool": {
        "encoding": "inplace",
        "label": "bool",
        "numberOfBytes": "1"
      },
      "t_mapping(t_address,t_bool)": {
        "encoding": "mapping",
        "key": "t_address",
        "label": "mapping(address => bool)",
        "numberOfBytes": "32",
        "value": "t_bool"
      },
      "t_mapping(t_address,t_struct(ProfileMember)363_storage)": {
        "encoding": "mapping",
        "key": "t_address",
        "label": "mapping(address => struct AihomeDaoStaking.ProfileMember)",
        "numberOfBytes": "32",
        "value": "t_struct(ProfileMember)363_storage"
      },
      "t_mapping(t_uint256,t_address)": {
        "encoding": "mapping",
        "key": "t_uint256",
        "label": "mapping(uint256 => address)",
        "numberOfBytes": "32",
        "value": "t_address"
      },
      "t_mapping(t_uint256,t_mapping(t_uint256,t_address))": {
        "encoding": "mapping",
        "key": "t_uint256",
        "label": "mapping(uint256 => mapping(uint256 => address))",
        "numberOfBytes": "32",
        "value": "t_mapping(t_uint256,t_address)"
      },
      "t_mapping(t_uint256,t_uint256)": {
        "encoding": "mapping",
        "key": "t_uint256",
        "label": "mapping(uint256 => uint256)",
        "numberOfBytes": "32",
        "value": "t_uint256"
      },
      "t_string_storage": {
        "encoding": "bytes",
        "label": "string",
        "numberOfBytes": "32"
      },
      "t_struct(ProfileMember)363_storage": {
        "encoding": "inplace",
        "label": "struct AihomeDaoStaking.ProfileMember",
        "members": [
          {
            "astId": 350,
            "contract": "contracts/AihomeDaoStaking.sol:AihomeDaoStaking",
            "label": "id",
            "offset": 0,
            "slot": "0",
            "type": "t_uint256"
          },
          {
            "astId": 352,
            "contract": "contracts/AihomeDaoStaking.sol:AihomeDaoStaking",
            "label": "daoId",
            "offset": 0,
            "slot": "1",
            "type": "t_uint256"
          },
          {
            "astId": 354,
            "contract": "contracts/AihomeDaoStaking.sol:AihomeDaoStaking",
            "label": "addressUser",
            "offset": 0,
            "slot": "2",
            "type": "t_address"
          },
          {
            "astId": 356,
            "contract": "contracts/AihomeDaoStaking.sol:AihomeDaoStaking",
            "label": "amountStaking",
            "offset": 0,
            "slot": "3",
            "type": "t_uint256"
          },
          {
            "astId": 358,
            "contract": "contracts/AihomeDaoStaking.sol:AihomeDaoStaking",
            "label": "timeJoinDao",
            "offset": 0,
            "slot": "4",
            "type": "t_uint256"
          },
          {
            "astId": 360,
            "contract": "contracts/AihomeDaoStaking.sol:AihomeDaoStaking",
            "label": "timeLeaveDao",
            "offset": 0,
            "slot": "5",
            "type": "t_uint256"
          },
          {
            "astId": 362,
            "contract": "contracts/AihomeDaoStaking.sol:AihomeDaoStaking",
            "label": "status",
            "offset": 0,
            "slot": "6",
            "type": "t_string_storage"
          }
        ],
        "numberOfBytes": "224"
      },
      "t_uint256": {
        "encoding": "inplace",
        "label": "uint256",
        "numberOfBytes": "32"
      }
    }
  }
}