{
  "address": "0xCf7Ed3AccA5a467e9e704C703E8D87F634fB0Fc9",
  "abi": [
    {
      "inputs": [
        {
          "internalType": "address",
          "name": "_accountReceiveTicketPrice",
          "type": "address"
        },
        {
          "internalType": "address",
          "name": "_accountReceiveStaking",
          "type": "address"
        }
      ],
      "stateMutability": "nonpayable",
      "type": "constructor"
    },
    {
      "anonymous": false,
      "inputs": [
        {
          "indexed": false,
          "internalType": "address",
          "name": "by",
          "type": "address"
        },
        {
          "indexed": false,
          "internalType": "uint256",
          "name": "timestamp",
          "type": "uint256"
        },
        {
          "indexed": false,
          "internalType": "uint256",
          "name": "amount",
          "type": "uint256"
        },
        {
          "indexed": false,
          "internalType": "uint256",
          "name": "idDao",
          "type": "uint256"
        }
      ],
      "name": "JoinDao",
      "type": "event"
    },
    {
      "anonymous": false,
      "inputs": [
        {
          "indexed": false,
          "internalType": "address",
          "name": "by",
          "type": "address"
        },
        {
          "indexed": false,
          "internalType": "uint256",
          "name": "timeJoinDao",
          "type": "uint256"
        },
        {
          "indexed": false,
          "internalType": "uint256",
          "name": "idDao",
          "type": "uint256"
        }
      ],
      "name": "LeaveDao",
      "type": "event"
    },
    {
      "anonymous": false,
      "inputs": [
        {
          "indexed": true,
          "internalType": "address",
          "name": "previousOwner",
          "type": "address"
        },
        {
          "indexed": true,
          "internalType": "address",
          "name": "newOwner",
          "type": "address"
        }
      ],
      "name": "OwnershipTransferred",
      "type": "event"
    },
    {
      "anonymous": false,
      "inputs": [
        {
          "indexed": false,
          "internalType": "address",
          "name": "account",
          "type": "address"
        }
      ],
      "name": "Paused",
      "type": "event"
    },
    {
      "anonymous": false,
      "inputs": [
        {
          "indexed": false,
          "internalType": "address",
          "name": "account",
          "type": "address"
        }
      ],
      "name": "Unpaused",
      "type": "event"
    },
    {
      "inputs": [],
      "name": "accountReceiveStaking",
      "outputs": [
        {
          "internalType": "address",
          "name": "",
          "type": "address"
        }
      ],
      "stateMutability": "view",
      "type": "function"
    },
    {
      "inputs": [],
      "name": "accountReceiveTicketPrice",
      "outputs": [
        {
          "internalType": "address",
          "name": "",
          "type": "address"
        }
      ],
      "stateMutability": "view",
      "type": "function"
    },
    {
      "inputs": [
        {
          "internalType": "uint256",
          "name": "_id",
          "type": "uint256"
        },
        {
          "internalType": "uint256",
          "name": "_index",
          "type": "uint256"
        }
      ],
      "name": "getInfoMemberById",
      "outputs": [
        {
          "components": [
            {
              "internalType": "uint256",
              "name": "id",
              "type": "uint256"
            },
            {
              "internalType": "uint256",
              "name": "daoId",
              "type": "uint256"
            },
            {
              "internalType": "address",
              "name": "addressUser",
              "type": "address"
            },
            {
              "internalType": "uint256",
              "name": "amountStaking",
              "type": "uint256"
            },
            {
              "internalType": "uint256",
              "name": "timeJoinDao",
              "type": "uint256"
            },
            {
              "internalType": "uint256",
              "name": "timeLeaveDao",
              "type": "uint256"
            },
            {
              "internalType": "string",
              "name": "status",
              "type": "string"
            }
          ],
          "internalType": "struct AihomeDaoStaking.ProfileMember",
          "name": "",
          "type": "tuple"
        }
      ],
      "stateMutability": "view",
      "type": "function"
    },
    {
      "inputs": [
        {
          "internalType": "address",
          "name": "",
          "type": "address"
        }
      ],
      "name": "isMemberDao",
      "outputs": [
        {
          "internalType": "bool",
          "name": "",
          "type": "bool"
        }
      ],
      "stateMutability": "view",
      "type": "function"
    },
    {
      "inputs": [
        {
          "internalType": "uint256",
          "name": "_id",
          "type": "uint256"
        }
      ],
      "name": "joinDao",
      "outputs": [],
      "stateMutability": "nonpayable",
      "type": "function"
    },
    {
      "inputs": [],
      "name": "leaveDao",
      "outputs": [],
      "stateMutability": "nonpayable",
      "type": "function"
    },
    {
      "inputs": [],
      "name": "owner",
      "outputs": [
        {
          "internalType": "address",
          "name": "",
          "type": "address"
        }
      ],
      "stateMutability": "view",
      "type": "function"
    },
    {
      "inputs": [],
      "name": "pause",
      "outputs": [],
      "stateMutability": "nonpayable",
      "type": "function"
    },
    {
      "inputs": [],
      "name": "paused",
      "outputs": [
        {
          "internalType": "bool",
          "name": "",
          "type": "bool"
        }
      ],
      "stateMutability": "view",
      "type": "function"
    },
    {
      "inputs": [
        {
          "internalType": "uint256",
          "name": "",
          "type": "uint256"
        }
      ],
      "name": "profileDaoById",
      "outputs": [
        {
          "internalType": "uint256",
          "name": "totalMember",
          "type": "uint256"
        },
        {
          "internalType": "uint256",
          "name": "totalStake",
          "type": "uint256"
        }
      ],
      "stateMutability": "view",
      "type": "function"
    },
    {
      "inputs": [
        {
          "internalType": "address",
          "name": "",
          "type": "address"
        }
      ],
      "name": "profileMemberDao",
      "outputs": [
        {
          "internalType": "uint256",
          "name": "id",
          "type": "uint256"
        },
        {
          "internalType": "uint256",
          "name": "daoId",
          "type": "uint256"
        },
        {
          "internalType": "address",
          "name": "addressUser",
          "type": "address"
        },
        {
          "internalType": "uint256",
          "name": "amountStaking",
          "type": "uint256"
        },
        {
          "internalType": "uint256",
          "name": "timeJoinDao",
          "type": "uint256"
        },
        {
          "internalType": "uint256",
          "name": "timeLeaveDao",
          "type": "uint256"
        },
        {
          "internalType": "string",
          "name": "status",
          "type": "string"
        }
      ],
      "stateMutability": "view",
      "type": "function"
    },
    {
      "inputs": [],
      "name": "renounceOwnership",
      "outputs": [],
      "stateMutability": "nonpayable",
      "type": "function"
    },
    {
      "inputs": [
        {
          "internalType": "address",
          "name": "newOwner",
          "type": "address"
        }
      ],
      "name": "transferOwnership",
      "outputs": [],
      "stateMutability": "nonpayable",
      "type": "function"
    },
    {
      "inputs": [],
      "name": "unpause",
      "outputs": [],
      "stateMutability": "nonpayable",
      "type": "function"
    }
  ],
  "transactionHash": "0x543bc45b6ea101cc755fa2f95590ded7dceecb5e635464df0423f3e83deb39eb",
  "args": [
    "0xf39Fd6e51aad88F6F4ce6aB8827279cffFb92266",
    "0xf39Fd6e51aad88F6F4ce6aB8827279cffFb92266"
  ],
  "numDeployments": 1,
  "solcInputHash": "31fbe20d05d88b18d991fe7e209aa692",
  "bytecode": "0x608060405234801561001057600080fd5b50604051620013e6380380620013e6833981016040819052610031916100ea565b6000805460ff1916905561004433610075565b600180546001600160a01b039384166001600160a01b0319918216179091556002805492909316911617905561011d565b600080546001600160a01b03838116610100818102610100600160a81b0319851617855560405193049190911692909183917f8be0079c531659141344cd1fd0a4f28419497f9722a3daafe3b4186f6b6457e091a35050565b80516001600160a01b03811681146100e557600080fd5b919050565b600080604083850312156100fd57600080fd5b610106836100ce565b9150610114602084016100ce565b90509250929050565b6112b9806200012d6000396000f3fe608060405234801561001057600080fd5b50600436106100ea5760003560e01c80638456cb591161008c578063bedd205011610066578063bedd2050146101e6578063ea7b21bb146101f9578063f2fde38b14610201578063fd4194051461021457600080fd5b80638456cb59146101a15780638da5cb5b146101a95780638e2965ba146101d357600080fd5b80633f4ba83a116100c85780633f4ba83a146101665780635c975abb1461016e57806363b1dec814610179578063715018a61461019957600080fd5b806318084fd9146100ef578063202531c81461010457806336b8820214610133575b600080fd5b6101026100fd366004610e3b565b610250565b005b610117610112366004610e69565b61078f565b60405161012a9796959493929190610edd565b60405180910390f35b610156610141366004610e69565b60046020526000908152604090205460ff1681565b604051901515815260200161012a565b610102610863565b60005460ff16610156565b61018c610187366004610f29565b610875565b60405161012a9190610f4b565b610102610998565b6101026109aa565b60005461010090046001600160a01b03165b6040516001600160a01b03909116815260200161012a565b6001546101bb906001600160a01b031681565b6002546101bb906001600160a01b031681565b6101026109ba565b61010261020f366004610e69565b610ba5565b61023b610222366004610e3b565b6005602052600090815260409020805460019091015482565b6040805192835260208301919091520161012a565b610258610c1e565b610260610df5565b3360009081526004602052604090205460ff16156102c55760405162461bcd60e51b815260206004820152601760248201527f796f75206172652061206d656d626572206f662064616f00000000000000000060448201526064015b60405180910390fd5b739fe46736679d2d9a65f0992f2272de9f3c7fa6e06001600160a01b0316639f47ceff6040518163ffffffff1660e01b81526004016020604051808303816000875af1158015610319573d6000803e3d6000fd5b505050506040513d601f19601f8201168201806040525081019061033d9190610fb3565b8211156103845760405162461bcd60e51b815260206004820152601560248201527419185bc81a5908191bd95cc81b9bdd08195e1a5cdd605a1b60448201526064016102bc565b60405163d70980cf60e01b815260048101839052600090739fe46736679d2d9a65f0992f2272de9f3c7fa6e09063d70980cf906024016000604051808303816000875af11580156103d9573d6000803e3d6000fd5b505050506040513d6000823e601f3d908101601f191682016040526104019190810190610ff2565b9350505050600081600103610420575068022b1c8c1227a00000610444565b816002036104385750680340aad21b3b700000610444565b5068056bc75e2d631000005b6040516370a0823160e01b8152336004820152819073e7f1725e7734ce288f8367e1bb143e90bb3f0512906370a0823190602401602060405180830381865afa158015610495573d6000803e3d6000fd5b505050506040513d601f19601f820116820180604052508101906104b99190610fb3565b10156105075760405162461bcd60e51b815260206004820152601960248201527f6e6f7420656e6f756768206d6f6e657920746f2074726164650000000000000060448201526064016102bc565b336000908152600360205260409020600501546105279062278d006110d9565b42116105675760405162461bcd60e51b815260206004820152600f60248201526e6e6f7420656e6f7567682074696d6560881b60448201526064016102bc565b6001546040516323b872dd60e01b81523360048201526001600160a01b0390911660248201526044810182905273e7f1725e7734ce288f8367e1bb143e90bb3f0512906323b872dd906064016020604051808303816000875af11580156105d2573d6000803e3d6000fd5b505050506040513d601f19601f820116820180604052508101906105f691906110ec565b50600084815260056020526040812060010180548392906106189084906110d9565b909155505033604080850182905260208086018790526060860184905242608087015281518083018352600681526561637469766560d01b8183015260c0870152600092835260048152818320805460ff191660011790558683526005905281208054916106858361110e565b90915550506000848152600560208181526040808420548752338452600380835293819020875181559187015160018301558601516002820180546001600160a01b0319166001600160a01b039092169190911790556060860151928101929092556080850151600483015560a08501519082015560c0840151849190600682019061071190826111b0565b50505060008481526006602090815260408083208651845282529182902080546001600160a01b0319163390811790915582519081524291810191909152908101829052606081018590527f0e2284e046c8d8d19c5481016672115d53f5e23e9766c7e8ce363dbc8c0fde809060800160405180910390a150505050565b60036020819052600091825260409091208054600182015460028301549383015460048401546005850154600686018054959794966001600160a01b0390951695939492939192916107e090611127565b80601f016020809104026020016040519081016040528092919081815260200182805461080c90611127565b80156108595780601f1061082e57610100808354040283529160200191610859565b820191906000526020600020905b81548152906001019060200180831161083c57829003601f168201915b5050505050905087565b61086b610c64565b610873610cc4565b565b61087d610df5565b60008381526006602081815260408084208685528252808420546001600160a01b039081168086526003808552838720845160e0810186528154815260018201549681019690965260028101549093169385019390935291810154606084015260048101546080840152600581015460a084015292830180549194939160c08401919061090990611127565b80601f016020809104026020016040519081016040528092919081815260200182805461093590611127565b80156109825780601f1061095757610100808354040283529160200191610982565b820191906000526020600020905b81548152906001019060200180831161096557829003601f168201915b5050509190925250919450505050505b92915050565b6109a0610c64565b6108736000610d16565b6109b2610c64565b610873610d6f565b6109c2610c1e565b33600090815260036020908152604080832060049092529091205460ff161515600114610a315760405162461bcd60e51b815260206004820152601b60248201527f796f7520617265206e6f742061206d656d626572206f662064616f000000000060448201526064016102bc565b60015433600081815260036020819052604091829020015490516323b872dd60e01b81526001600160a01b0390931660048401526024830191909152604482015273e7f1725e7734ce288f8367e1bb143e90bb3f0512906323b872dd906064016020604051808303816000875af1158015610ab0573d6000803e3d6000fd5b505050506040513d601f19601f82011682018060405250810190610ad491906110ec565b5033600090815260036020818152604080842092830154600193840154855260059092528320909101805491929091610b0e908490611270565b909155505033600090815260046020908152604091829020805460ff1916905581518083019092526008825267696e41637469766560c01b908201526006820190610b5990826111b0565b504260058201819055604080513381526020810183905280820192909252517fd23d99204cc96426a4c580f3d1a6a95f01a1e35535ce2115643f3c99a629b6229181900360600190a150565b610bad610c64565b6001600160a01b038116610c125760405162461bcd60e51b815260206004820152602660248201527f4f776e61626c653a206e6577206f776e657220697320746865207a65726f206160448201526564647265737360d01b60648201526084016102bc565b610c1b81610d16565b50565b60005460ff16156108735760405162461bcd60e51b815260206004820152601060248201526f14185d5cd8589b194e881c185d5cd95960821b60448201526064016102bc565b6000546001600160a01b036101009091041633146108735760405162461bcd60e51b815260206004820181905260248201527f4f776e61626c653a2063616c6c6572206973206e6f7420746865206f776e657260448201526064016102bc565b610ccc610dac565b6000805460ff191690557f5db9ee0a495bf2e6ff9c91a7834c1ba4fdd244a5e8aa4e537bd38aeae4b073aa335b6040516001600160a01b03909116815260200160405180910390a1565b600080546001600160a01b03838116610100818102610100600160a81b0319851617855560405193049190911692909183917f8be0079c531659141344cd1fd0a4f28419497f9722a3daafe3b4186f6b6457e091a35050565b610d77610c1e565b6000805460ff191660011790557f62e78cea01bee320cd4e420270b5ea74000d11b0c9f74754ebdbfc544b05a258610cf93390565b60005460ff166108735760405162461bcd60e51b815260206004820152601460248201527314185d5cd8589b194e881b9bdd081c185d5cd95960621b60448201526064016102bc565b6040518060e00160405280600081526020016000815260200160006001600160a01b03168152602001600081526020016000815260200160008152602001606081525090565b600060208284031215610e4d57600080fd5b5035919050565b6001600160a01b0381168114610c1b57600080fd5b600060208284031215610e7b57600080fd5b8135610e8681610e54565b9392505050565b60005b83811015610ea8578181015183820152602001610e90565b50506000910152565b60008151808452610ec9816020860160208601610e8d565b601f01601f19169290920160200192915050565b87815286602082015260018060a01b03861660408201528460608201528360808201528260a082015260e060c08201526000610f1c60e0830184610eb1565b9998505050505050505050565b60008060408385031215610f3c57600080fd5b50508035926020909101359150565b60208152815160208201526020820151604082015260018060a01b03604083015116606082015260608201516080820152608082015160a082015260a082015160c0820152600060c083015160e080840152610fab610100840182610eb1565b949350505050565b600060208284031215610fc557600080fd5b5051919050565b634e487b7160e01b600052604160045260246000fd5b8051610fed81610e54565b919050565b6000806000806080858703121561100857600080fd5b84519350602085015167ffffffffffffffff8082111561102757600080fd5b818701915087601f83011261103b57600080fd5b81518181111561104d5761104d610fcc565b604051601f8201601f19908116603f0116810190838211818310171561107557611075610fcc565b816040528281528a602084870101111561108e57600080fd5b61109f836020830160208801610e8d565b80975050505050506110b360408601610fe2565b6060959095015193969295505050565b634e487b7160e01b600052601160045260246000fd5b80820180821115610992576109926110c3565b6000602082840312156110fe57600080fd5b81518015158114610e8657600080fd5b600060018201611120576111206110c3565b5060010190565b600181811c9082168061113b57607f821691505b60208210810361115b57634e487b7160e01b600052602260045260246000fd5b50919050565b601f8211156111ab57600081815260208120601f850160051c810160208610156111885750805b601f850160051c820191505b818110156111a757828155600101611194565b5050505b505050565b815167ffffffffffffffff8111156111ca576111ca610fcc565b6111de816111d88454611127565b84611161565b602080601f83116001811461121357600084156111fb5750858301515b600019600386901b1c1916600185901b1785556111a7565b600085815260208120601f198616915b8281101561124257888601518255948401946001909101908401611223565b50858210156112605787850151600019600388901b60f8161c191681555b5050505050600190811b01905550565b81810381811115610992576109926110c356fea264697066735822122024fd166db0a698bc27b0405a46d8ef4babec725b5d23157615d0bb99726dd71964736f6c63430008120033",
  "devdoc": {
    "events": {
      "Paused(address)": {
        "details": "Emitted when the pause is triggered by `account`."
      },
      "Unpaused(address)": {
        "details": "Emitted when the pause is lifted by `account`."
      }
    },
    "kind": "dev",
    "methods": {
      "owner()": {
        "details": "Returns the address of the current owner."
      },
      "paused()": {
        "details": "Returns true if the contract is paused, and false otherwise."
      },
      "renounceOwnership()": {
        "details": "Leaves the contract without owner. It will not be possible to call `onlyOwner` functions. Can only be called by the current owner. NOTE: Renouncing ownership will leave the contract without an owner, thereby disabling any functionality that is only available to the owner."
      },
      "transferOwnership(address)": {
        "details": "Transfers ownership of the contract to a new account (`newOwner`). Can only be called by the current owner."
      }
    },
    "version": 1
  },
  "userdoc": {
    "kind": "user",
    "methods": {},
    "version": 1
  },
  "storageLayout": {
    "storage": [
      {
        "astId": 930,
        "contract": "contracts/AihomeDaoStaking.sol:AihomeDaoStaking",
        "label": "_paused",
        "offset": 0,
        "slot": "0",
        "type": "t_bool"
      },
      {
        "astId": 807,
        "contract": "contracts/AihomeDaoStaking.sol:AihomeDaoStaking",
        "label": "_owner",
        "offset": 1,
        "slot": "0",
        "type": "t_address"
      },
      {
        "astId": 2674,
        "contract": "contracts/AihomeDaoStaking.sol:AihomeDaoStaking",
        "label": "accountReceiveTicketPrice",
        "offset": 0,
        "slot": "1",
        "type": "t_address"
      },
      {
        "astId": 2676,
        "contract": "contracts/AihomeDaoStaking.sol:AihomeDaoStaking",
        "label": "accountReceiveStaking",
        "offset": 0,
        "slot": "2",
        "type": "t_address"
      },
      {
        "astId": 2701,
        "contract": "contracts/AihomeDaoStaking.sol:AihomeDaoStaking",
        "label": "profileMemberDao",
        "offset": 0,
        "slot": "3",
        "type": "t_mapping(t_address,t_struct(ProfileMember)2696_storage)"
      },
      {
        "astId": 2705,
        "contract": "contracts/AihomeDaoStaking.sol:AihomeDaoStaking",
        "label": "isMemberDao",
        "offset": 0,
        "slot": "4",
        "type": "t_mapping(t_address,t_bool)"
      },
      {
        "astId": 2710,
        "contract": "contracts/AihomeDaoStaking.sol:AihomeDaoStaking",
        "label": "profileDaoById",
        "offset": 0,
        "slot": "5",
        "type": "t_mapping(t_uint256,t_struct(ProfileDao)2681_storage)"
      },
      {
        "astId": 2716,
        "contract": "contracts/AihomeDaoStaking.sol:AihomeDaoStaking",
        "label": "getAddressDaoById",
        "offset": 0,
        "slot": "6",
        "type": "t_mapping(t_uint256,t_mapping(t_uint256,t_address))"
      }
    ],
    "types": {
      "t_address": {
        "encoding": "inplace",
        "label": "address",
        "numberOfBytes": "20"
      },
      "t_bool": {
        "encoding": "inplace",
        "label": "bool",
        "numberOfBytes": "1"
      },
      "t_mapping(t_address,t_bool)": {
        "encoding": "mapping",
        "key": "t_address",
        "label": "mapping(address => bool)",
        "numberOfBytes": "32",
        "value": "t_bool"
      },
      "t_mapping(t_address,t_struct(ProfileMember)2696_storage)": {
        "encoding": "mapping",
        "key": "t_address",
        "label": "mapping(address => struct AihomeDaoStaking.ProfileMember)",
        "numberOfBytes": "32",
        "value": "t_struct(ProfileMember)2696_storage"
      },
      "t_mapping(t_uint256,t_address)": {
        "encoding": "mapping",
        "key": "t_uint256",
        "label": "mapping(uint256 => address)",
        "numberOfBytes": "32",
        "value": "t_address"
      },
      "t_mapping(t_uint256,t_mapping(t_uint256,t_address))": {
        "encoding": "mapping",
        "key": "t_uint256",
        "label": "mapping(uint256 => mapping(uint256 => address))",
        "numberOfBytes": "32",
        "value": "t_mapping(t_uint256,t_address)"
      },
      "t_mapping(t_uint256,t_struct(ProfileDao)2681_storage)": {
        "encoding": "mapping",
        "key": "t_uint256",
        "label": "mapping(uint256 => struct AihomeDaoStaking.ProfileDao)",
        "numberOfBytes": "32",
        "value": "t_struct(ProfileDao)2681_storage"
      },
      "t_string_storage": {
        "encoding": "bytes",
        "label": "string",
        "numberOfBytes": "32"
      },
      "t_struct(ProfileDao)2681_storage": {
        "encoding": "inplace",
        "label": "struct AihomeDaoStaking.ProfileDao",
        "members": [
          {
            "astId": 2678,
            "contract": "contracts/AihomeDaoStaking.sol:AihomeDaoStaking",
            "label": "totalMember",
            "offset": 0,
            "slot": "0",
            "type": "t_uint256"
          },
          {
            "astId": 2680,
            "contract": "contracts/AihomeDaoStaking.sol:AihomeDaoStaking",
            "label": "totalStake",
            "offset": 0,
            "slot": "1",
            "type": "t_uint256"
          }
        ],
        "numberOfBytes": "64"
      },
      "t_struct(ProfileMember)2696_storage": {
        "encoding": "inplace",
        "label": "struct AihomeDaoStaking.ProfileMember",
        "members": [
          {
            "astId": 2683,
            "contract": "contracts/AihomeDaoStaking.sol:AihomeDaoStaking",
            "label": "id",
            "offset": 0,
            "slot": "0",
            "type": "t_uint256"
          },
          {
            "astId": 2685,
            "contract": "contracts/AihomeDaoStaking.sol:AihomeDaoStaking",
            "label": "daoId",
            "offset": 0,
            "slot": "1",
            "type": "t_uint256"
          },
          {
            "astId": 2687,
            "contract": "contracts/AihomeDaoStaking.sol:AihomeDaoStaking",
            "label": "addressUser",
            "offset": 0,
            "slot": "2",
            "type": "t_address"
          },
          {
            "astId": 2689,
            "contract": "contracts/AihomeDaoStaking.sol:AihomeDaoStaking",
            "label": "amountStaking",
            "offset": 0,
            "slot": "3",
            "type": "t_uint256"
          },
          {
            "astId": 2691,
            "contract": "contracts/AihomeDaoStaking.sol:AihomeDaoStaking",
            "label": "timeJoinDao",
            "offset": 0,
            "slot": "4",
            "type": "t_uint256"
          },
          {
            "astId": 2693,
            "contract": "contracts/AihomeDaoStaking.sol:AihomeDaoStaking",
            "label": "timeLeaveDao",
            "offset": 0,
            "slot": "5",
            "type": "t_uint256"
          },
          {
            "astId": 2695,
            "contract": "contracts/AihomeDaoStaking.sol:AihomeDaoStaking",
            "label": "status",
            "offset": 0,
            "slot": "6",
            "type": "t_string_storage"
          }
        ],
        "numberOfBytes": "224"
      },
      "t_uint256": {
        "encoding": "inplace",
        "label": "uint256",
        "numberOfBytes": "32"
      }
    }
  }
}