{
  "_format": "hh-sol-artifact-1",
  "contractName": "AIHomesDAO",
  "sourceName": "contracts/AIHomesDAO.sol",
  "abi": [
    {
      "inputs": [
        {
          "internalType": "address",
          "name": "_receiveUSDAddress",
          "type": "address"
        },
        {
          "internalType": "address",
          "name": "_sendHomesTokenAddress",
          "type": "address"
        }
      ],
      "stateMutability": "nonpayable",
      "type": "constructor"
    },
    {
      "anonymous": false,
      "inputs": [
        {
          "indexed": false,
          "internalType": "address",
          "name": "owner",
          "type": "address"
        },
        {
          "indexed": false,
          "internalType": "uint256",
          "name": "id",
          "type": "uint256"
        },
        {
          "indexed": false,
          "internalType": "uint256",
          "name": "option",
          "type": "uint256"
        },
        {
          "indexed": false,
          "internalType": "string",
          "name": "name",
          "type": "string"
        },
        {
          "indexed": false,
          "internalType": "uint256",
          "name": "amount",
          "type": "uint256"
        },
        {
          "indexed": false,
          "internalType": "address",
          "name": "buyToken",
          "type": "address"
        },
        {
          "indexed": false,
          "internalType": "uint256",
          "name": "createdAt",
          "type": "uint256"
        }
      ],
      "name": "CreateDAO",
      "type": "event"
    },
    {
      "anonymous": false,
      "inputs": [
        {
          "indexed": true,
          "internalType": "address",
          "name": "previousOwner",
          "type": "address"
        },
        {
          "indexed": true,
          "internalType": "address",
          "name": "newOwner",
          "type": "address"
        }
      ],
      "name": "OwnershipTransferred",
      "type": "event"
    },
    {
      "anonymous": false,
      "inputs": [
        {
          "indexed": false,
          "internalType": "address",
          "name": "account",
          "type": "address"
        }
      ],
      "name": "Paused",
      "type": "event"
    },
    {
      "anonymous": false,
      "inputs": [
        {
          "indexed": false,
          "internalType": "address",
          "name": "account",
          "type": "address"
        }
      ],
      "name": "Unpaused",
      "type": "event"
    },
    {
      "inputs": [
        {
          "internalType": "string",
          "name": "_name",
          "type": "string"
        },
        {
          "internalType": "address",
          "name": "_buyToken",
          "type": "address"
        },
        {
          "internalType": "uint256",
          "name": "_option",
          "type": "uint256"
        }
      ],
      "name": "createDAO",
      "outputs": [],
      "stateMutability": "nonpayable",
      "type": "function"
    },
    {
      "inputs": [
        {
          "internalType": "string",
          "name": "",
          "type": "string"
        }
      ],
      "name": "isExistName",
      "outputs": [
        {
          "internalType": "bool",
          "name": "",
          "type": "bool"
        }
      ],
      "stateMutability": "view",
      "type": "function"
    },
    {
      "inputs": [
        {
          "internalType": "address",
          "name": "",
          "type": "address"
        }
      ],
      "name": "isOwnDao",
      "outputs": [
        {
          "internalType": "bool",
          "name": "",
          "type": "bool"
        }
      ],
      "stateMutability": "view",
      "type": "function"
    },
    {
      "inputs": [],
      "name": "option1",
      "outputs": [
        {
          "internalType": "uint256",
          "name": "",
          "type": "uint256"
        }
      ],
      "stateMutability": "view",
      "type": "function"
    },
    {
      "inputs": [],
      "name": "option2",
      "outputs": [
        {
          "internalType": "uint256",
          "name": "",
          "type": "uint256"
        }
      ],
      "stateMutability": "view",
      "type": "function"
    },
    {
      "inputs": [],
      "name": "option3",
      "outputs": [
        {
          "internalType": "uint256",
          "name": "",
          "type": "uint256"
        }
      ],
      "stateMutability": "view",
      "type": "function"
    },
    {
      "inputs": [],
      "name": "owner",
      "outputs": [
        {
          "internalType": "address",
          "name": "",
          "type": "address"
        }
      ],
      "stateMutability": "view",
      "type": "function"
    },
    {
      "inputs": [],
      "name": "pause",
      "outputs": [],
      "stateMutability": "nonpayable",
      "type": "function"
    },
    {
      "inputs": [],
      "name": "paused",
      "outputs": [
        {
          "internalType": "bool",
          "name": "",
          "type": "bool"
        }
      ],
      "stateMutability": "view",
      "type": "function"
    },
    {
      "inputs": [
        {
          "internalType": "address",
          "name": "",
          "type": "address"
        }
      ],
      "name": "profiles",
      "outputs": [
        {
          "internalType": "uint256",
          "name": "id",
          "type": "uint256"
        },
        {
          "internalType": "string",
          "name": "name",
          "type": "string"
        },
        {
          "internalType": "address",
          "name": "owner",
          "type": "address"
        },
        {
          "internalType": "uint256",
          "name": "option",
          "type": "uint256"
        },
        {
          "internalType": "uint256",
          "name": "createdAt",
          "type": "uint256"
        },
        {
          "internalType": "uint256",
          "name": "amount",
          "type": "uint256"
        },
        {
          "internalType": "address",
          "name": "buyToken",
          "type": "address"
        }
      ],
      "stateMutability": "view",
      "type": "function"
    },
    {
      "inputs": [
        {
          "internalType": "uint256",
          "name": "",
          "type": "uint256"
        }
      ],
      "name": "profilesById",
      "outputs": [
        {
          "internalType": "uint256",
          "name": "id",
          "type": "uint256"
        },
        {
          "internalType": "string",
          "name": "name",
          "type": "string"
        },
        {
          "internalType": "address",
          "name": "owner",
          "type": "address"
        },
        {
          "internalType": "uint256",
          "name": "option",
          "type": "uint256"
        },
        {
          "internalType": "uint256",
          "name": "createdAt",
          "type": "uint256"
        },
        {
          "internalType": "uint256",
          "name": "amount",
          "type": "uint256"
        },
        {
          "internalType": "address",
          "name": "buyToken",
          "type": "address"
        }
      ],
      "stateMutability": "view",
      "type": "function"
    },
    {
      "inputs": [],
      "name": "profilesLength",
      "outputs": [
        {
          "internalType": "uint256",
          "name": "",
          "type": "uint256"
        }
      ],
      "stateMutability": "view",
      "type": "function"
    },
    {
      "inputs": [],
      "name": "receiveUSDAddress",
      "outputs": [
        {
          "internalType": "address",
          "name": "",
          "type": "address"
        }
      ],
      "stateMutability": "view",
      "type": "function"
    },
    {
      "inputs": [],
      "name": "renounceOwnership",
      "outputs": [],
      "stateMutability": "nonpayable",
      "type": "function"
    },
    {
      "inputs": [],
      "name": "sendHomesTokenAddress",
      "outputs": [
        {
          "internalType": "address",
          "name": "",
          "type": "address"
        }
      ],
      "stateMutability": "view",
      "type": "function"
    },
    {
      "inputs": [
        {
          "internalType": "address",
          "name": "newOwner",
          "type": "address"
        }
      ],
      "name": "transferOwnership",
      "outputs": [],
      "stateMutability": "nonpayable",
      "type": "function"
    },
    {
      "inputs": [],
      "name": "unpause",
      "outputs": [],
      "stateMutability": "nonpayable",
      "type": "function"
    },
    {
      "inputs": [
        {
          "internalType": "uint256",
          "name": "_option",
          "type": "uint256"
        },
        {
          "internalType": "uint256",
          "name": "_amount",
          "type": "uint256"
        }
      ],
      "name": "updateOption",
      "outputs": [],
      "stateMutability": "nonpayable",
      "type": "function"
    },
    {
      "inputs": [
        {
          "internalType": "address",
          "name": "_receiveUSDAddress",
          "type": "address"
        }
      ],
      "name": "updateReceiveUSDAddress",
      "outputs": [],
      "stateMutability": "nonpayable",
      "type": "function"
    },
    {
      "inputs": [
        {
          "internalType": "address",
          "name": "_sendHomesTokenAddress",
          "type": "address"
        }
      ],
      "name": "updateSentHomesTokenAddress",
      "outputs": [],
      "stateMutability": "nonpayable",
      "type": "function"
    }
  ],
  "bytecode": "0x608060405269010f0cf064dd5920000060035569021e19e0c9bab240000060045569032d26d12e980b60000060055560006006553480156200004057600080fd5b506040516200256638038062002566833981810160405281019062000066919062000261565b60008060006101000a81548160ff021916908315150217905550620000a0620000946200012a60201b60201c565b6200013260201b60201c565b81600160006101000a81548173ffffffffffffffffffffffffffffffffffffffff021916908373ffffffffffffffffffffffffffffffffffffffff16021790555080600260006101000a81548173ffffffffffffffffffffffffffffffffffffffff021916908373ffffffffffffffffffffffffffffffffffffffff1602179055505050620002a8565b600033905090565b60008060019054906101000a900473ffffffffffffffffffffffffffffffffffffffff16905081600060016101000a81548173ffffffffffffffffffffffffffffffffffffffff021916908373ffffffffffffffffffffffffffffffffffffffff1602179055508173ffffffffffffffffffffffffffffffffffffffff168173ffffffffffffffffffffffffffffffffffffffff167f8be0079c531659141344cd1fd0a4f28419497f9722a3daafe3b4186f6b6457e060405160405180910390a35050565b600080fd5b600073ffffffffffffffffffffffffffffffffffffffff82169050919050565b60006200022982620001fc565b9050919050565b6200023b816200021c565b81146200024757600080fd5b50565b6000815190506200025b8162000230565b92915050565b600080604083850312156200027b576200027a620001f7565b5b60006200028b858286016200024a565b92505060206200029e858286016200024a565b9150509250929050565b6122ae80620002b86000396000f3fe608060405234801561001057600080fd5b506004361061012c5760003560e01c806385b57829116100ad578063ad69ab9511610071578063ad69ab95146102c1578063bbe15627146102df578063cfdd3d8e14610315578063d70980cf14610345578063f2fde38b1461037b5761012c565b806385b578291461022d5780638da5cb5b1461024957806392d2e43814610267578063949df97a146102855780639f47ceff146102a35761012c565b806361707aac116100f457806361707aac146101c3578063715018a6146101df578063785808b0146101e957806381c48bfc146102075780638456cb59146102235761012c565b80633db93e15146101315780633f4ba83a1461014f5780633ff7a7e8146101595780634b5c2db6146101755780635c975abb146101a5575b600080fd5b610139610397565b60405161014691906114c5565b60405180910390f35b6101576103bd565b005b610173600480360381019061016e9190611520565b6103cf565b005b61018f600480360381019061018a9190611520565b61048a565b60405161019c9190611568565b60405180910390f35b6101ad6104aa565b6040516101ba9190611568565b60405180910390f35b6101dd60048036038101906101d89190611520565b6104c0565b005b6101e761057b565b005b6101f161058f565b6040516101fe91906114c5565b60405180910390f35b610221600480360381019061021c91906116ff565b6105b5565b005b61022b610c6f565b005b6102476004803603810190610242919061176e565b610c81565b005b610251610d0c565b60405161025e91906114c5565b60405180910390f35b61026f610d35565b60405161027c91906117bd565b60405180910390f35b61028d610d3b565b60405161029a91906117bd565b60405180910390f35b6102ab610d41565b6040516102b891906117bd565b60405180910390f35b6102c9610d47565b6040516102d691906117bd565b60405180910390f35b6102f960048036038101906102f49190611520565b610d4d565b60405161030c9796959493929190611857565b60405180910390f35b61032f600480360381019061032a91906118cd565b610e57565b60405161033c9190611568565b60405180910390f35b61035f600480360381019061035a9190611916565b610e8d565b6040516103729796959493929190611857565b60405180910390f35b61039560048036038101906103909190611520565b610f97565b005b600160009054906101000a900473ffffffffffffffffffffffffffffffffffffffff1681565b6103c561101a565b6103cd611098565b565b6103d761101a565b600073ffffffffffffffffffffffffffffffffffffffff168173ffffffffffffffffffffffffffffffffffffffff1603610446576040517f08c379a000000000000000000000000000000000000000000000000000000000815260040161043d9061198f565b60405180910390fd5b80600160006101000a81548173ffffffffffffffffffffffffffffffffffffffff021916908373ffffffffffffffffffffffffffffffffffffffff16021790555050565b60076020528060005260406000206000915054906101000a900460ff1681565b60008060009054906101000a900460ff16905090565b6104c861101a565b600073ffffffffffffffffffffffffffffffffffffffff168173ffffffffffffffffffffffffffffffffffffffff1603610537576040517f08c379a000000000000000000000000000000000000000000000000000000000815260040161052e9061198f565b60405180910390fd5b80600260006101000a81548173ffffffffffffffffffffffffffffffffffffffff021916908373ffffffffffffffffffffffffffffffffffffffff16021790555050565b61058361101a565b61058d60006110fa565b565b600260009054906101000a900473ffffffffffffffffffffffffffffffffffffffff1681565b6105bd6111bf565b6000811180156105cd5750600481105b61060c576040517f08c379a0000000000000000000000000000000000000000000000000000000008152600401610603906119fb565b60405180910390fd5b73e7f1725e7734ce288f8367e1bb143e90bb3f051273ffffffffffffffffffffffffffffffffffffffff168273ffffffffffffffffffffffffffffffffffffffff161480610699575073250b0ae6ec23805508e31714e3578b8b4cbe5a3e73ffffffffffffffffffffffffffffffffffffffff168273ffffffffffffffffffffffffffffffffffffffff16145b6106d8576040517f08c379a00000000000000000000000000000000000000000000000000000000081526004016106cf90611a67565b60405180910390fd5b600083511161071c576040517f08c379a000000000000000000000000000000000000000000000000000000000815260040161071390611ad3565b60405180910390fd5b60001515600760003373ffffffffffffffffffffffffffffffffffffffff1673ffffffffffffffffffffffffffffffffffffffff16815260200190815260200160002060009054906101000a900460ff161515146107af576040517f08c379a00000000000000000000000000000000000000000000000000000000081526004016107a690611b3f565b60405180910390fd5b60001515600a846040516107c39190611b9b565b908152602001604051809103902060009054906101000a900460ff16151514610821576040517f08c379a000000000000000000000000000000000000000000000000000000000815260040161081890611bfe565b60405180910390fd5b6000600182036108315760035490505b6002820361083f5760045490505b6003820361084d5760055490505b610858338483611209565b735fbdb2315678afecb367f032d93f642f64180aa373ffffffffffffffffffffffffffffffffffffffff16633328bd2433836040518363ffffffff1660e01b81526004016108a7929190611c1e565b600060405180830381600087803b1580156108c157600080fd5b505af11580156108d5573d6000803e3d6000fd5b505050506108e161141b565b33816040019073ffffffffffffffffffffffffffffffffffffffff16908173ffffffffffffffffffffffffffffffffffffffff16815250508281606001818152505084816020018190525042816080018181525050818160a0018181525050838160c0019073ffffffffffffffffffffffffffffffffffffffff16908173ffffffffffffffffffffffffffffffffffffffff16815250506006600081548092919061098b90611c76565b919050555060065481600001818152505080600860003373ffffffffffffffffffffffffffffffffffffffff1673ffffffffffffffffffffffffffffffffffffffff1681526020019081526020016000206000820151816000015560208201518160010190816109fb9190611eca565b5060408201518160020160006101000a81548173ffffffffffffffffffffffffffffffffffffffff021916908373ffffffffffffffffffffffffffffffffffffffff160217905550606082015181600301556080820151816004015560a0820151816005015560c08201518160060160006101000a81548173ffffffffffffffffffffffffffffffffffffffff021916908373ffffffffffffffffffffffffffffffffffffffff160217905550905050806009600083600001518152602001908152602001600020600082015181600001556020820151816001019081610ae29190611eca565b5060408201518160020160006101000a81548173ffffffffffffffffffffffffffffffffffffffff021916908373ffffffffffffffffffffffffffffffffffffffff160217905550606082015181600301556080820151816004015560a0820151816005015560c08201518160060160006101000a81548173ffffffffffffffffffffffffffffffffffffffff021916908373ffffffffffffffffffffffffffffffffffffffff1602179055509050506001600760003373ffffffffffffffffffffffffffffffffffffffff1673ffffffffffffffffffffffffffffffffffffffff16815260200190815260200160002060006101000a81548160ff0219169083151502179055506001600a86604051610bfc9190611b9b565b908152602001604051809103902060006101000a81548160ff0219169083151502179055507fa31da5bc5ab26bcd803801229e6f71ef382a247f7fafb69420b9035335486e9f3382600001518588868942604051610c609796959493929190611f9c565b60405180910390a15050505050565b610c7761101a565b610c7f611368565b565b610c8961101a565b600082118015610c995750600482105b610cd8576040517f08c379a0000000000000000000000000000000000000000000000000000000008152600401610ccf906119fb565b60405180910390fd5b60018203610ce857806003819055505b60028203610cf857806004819055505b60038203610d0857806005819055505b5050565b60008060019054906101000a900473ffffffffffffffffffffffffffffffffffffffff16905090565b60035481565b60055481565b60065481565b60045481565b6008602052806000526040600020600091509050806000015490806001018054610d7690611ced565b80601f0160208091040260200160405190810160405280929190818152602001828054610da290611ced565b8015610def5780601f10610dc457610100808354040283529160200191610def565b820191906000526020600020905b815481529060010190602001808311610dd257829003601f168201915b5050505050908060020160009054906101000a900473ffffffffffffffffffffffffffffffffffffffff16908060030154908060040154908060050154908060060160009054906101000a900473ffffffffffffffffffffffffffffffffffffffff16905087565b600a818051602081018201805184825260208301602085012081835280955050505050506000915054906101000a900460ff1681565b6009602052806000526040600020600091509050806000015490806001018054610eb690611ced565b80601f0160208091040260200160405190810160405280929190818152602001828054610ee290611ced565b8015610f2f5780601f10610f0457610100808354040283529160200191610f2f565b820191906000526020600020905b815481529060010190602001808311610f1257829003601f168201915b5050505050908060020160009054906101000a900473ffffffffffffffffffffffffffffffffffffffff16908060030154908060040154908060050154908060060160009054906101000a900473ffffffffffffffffffffffffffffffffffffffff16905087565b610f9f61101a565b600073ffffffffffffffffffffffffffffffffffffffff168173ffffffffffffffffffffffffffffffffffffffff160361100e576040517f08c379a000000000000000000000000000000000000000000000000000000000815260040161100590612084565b60405180910390fd5b611017816110fa565b50565b6110226113ca565b73ffffffffffffffffffffffffffffffffffffffff16611040610d0c565b73ffffffffffffffffffffffffffffffffffffffff1614611096576040517f08c379a000000000000000000000000000000000000000000000000000000000815260040161108d906120f0565b60405180910390fd5b565b6110a06113d2565b60008060006101000a81548160ff0219169083151502179055507f5db9ee0a495bf2e6ff9c91a7834c1ba4fdd244a5e8aa4e537bd38aeae4b073aa6110e36113ca565b6040516110f091906114c5565b60405180910390a1565b60008060019054906101000a900473ffffffffffffffffffffffffffffffffffffffff16905081600060016101000a81548173ffffffffffffffffffffffffffffffffffffffff021916908373ffffffffffffffffffffffffffffffffffffffff1602179055508173ffffffffffffffffffffffffffffffffffffffff168173ffffffffffffffffffffffffffffffffffffffff167f8be0079c531659141344cd1fd0a4f28419497f9722a3daafe3b4186f6b6457e060405160405180910390a35050565b6111c76104aa565b15611207576040517f08c379a00000000000000000000000000000000000000000000000000000000081526004016111fe9061215c565b60405180910390fd5b565b8173ffffffffffffffffffffffffffffffffffffffff166323b872dd84600160009054906101000a900473ffffffffffffffffffffffffffffffffffffffff16846040518463ffffffff1660e01b81526004016112689392919061217c565b6020604051808303816000875af1158015611287573d6000803e3d6000fd5b505050506040513d601f19601f820116820180604052508101906112ab91906121df565b50735fbdb2315678afecb367f032d93f642f64180aa373ffffffffffffffffffffffffffffffffffffffff166323b872dd600260009054906101000a900473ffffffffffffffffffffffffffffffffffffffff1685846040518463ffffffff1660e01b815260040161131f9392919061217c565b6020604051808303816000875af115801561133e573d6000803e3d6000fd5b505050506040513d601f19601f8201168201806040525081019061136291906121df565b50505050565b6113706111bf565b60016000806101000a81548160ff0219169083151502179055507f62e78cea01bee320cd4e420270b5ea74000d11b0c9f74754ebdbfc544b05a2586113b36113ca565b6040516113c091906114c5565b60405180910390a1565b600033905090565b6113da6104aa565b611419576040517f08c379a000000000000000000000000000000000000000000000000000000000815260040161141090612258565b60405180910390fd5b565b6040518060e001604052806000815260200160608152602001600073ffffffffffffffffffffffffffffffffffffffff168152602001600081526020016000815260200160008152602001600073ffffffffffffffffffffffffffffffffffffffff1681525090565b600073ffffffffffffffffffffffffffffffffffffffff82169050919050565b60006114af82611484565b9050919050565b6114bf816114a4565b82525050565b60006020820190506114da60008301846114b6565b92915050565b6000604051905090565b600080fd5b600080fd5b6114fd816114a4565b811461150857600080fd5b50565b60008135905061151a816114f4565b92915050565b600060208284031215611536576115356114ea565b5b60006115448482850161150b565b91505092915050565b60008115159050919050565b6115628161154d565b82525050565b600060208201905061157d6000830184611559565b92915050565b600080fd5b600080fd5b6000601f19601f8301169050919050565b7f4e487b7100000000000000000000000000000000000000000000000000000000600052604160045260246000fd5b6115d68261158d565b810181811067ffffffffffffffff821117156115f5576115f461159e565b5b80604052505050565b60006116086114e0565b905061161482826115cd565b919050565b600067ffffffffffffffff8211156116345761163361159e565b5b61163d8261158d565b9050602081019050919050565b82818337600083830152505050565b600061166c61166784611619565b6115fe565b90508281526020810184848401111561168857611687611588565b5b61169384828561164a565b509392505050565b600082601f8301126116b0576116af611583565b5b81356116c0848260208601611659565b91505092915050565b6000819050919050565b6116dc816116c9565b81146116e757600080fd5b50565b6000813590506116f9816116d3565b92915050565b600080600060608486031215611718576117176114ea565b5b600084013567ffffffffffffffff811115611736576117356114ef565b5b6117428682870161169b565b93505060206117538682870161150b565b9250506040611764868287016116ea565b9150509250925092565b60008060408385031215611785576117846114ea565b5b6000611793858286016116ea565b92505060206117a4858286016116ea565b9150509250929050565b6117b7816116c9565b82525050565b60006020820190506117d260008301846117ae565b92915050565b600081519050919050565b600082825260208201905092915050565b60005b838110156118125780820151818401526020810190506117f7565b60008484015250505050565b6000611829826117d8565b61183381856117e3565b93506118438185602086016117f4565b61184c8161158d565b840191505092915050565b600060e08201905061186c600083018a6117ae565b818103602083015261187e818961181e565b905061188d60408301886114b6565b61189a60608301876117ae565b6118a760808301866117ae565b6118b460a08301856117ae565b6118c160c08301846114b6565b98975050505050505050565b6000602082840312156118e3576118e26114ea565b5b600082013567ffffffffffffffff811115611901576119006114ef565b5b61190d8482850161169b565b91505092915050565b60006020828403121561192c5761192b6114ea565b5b600061193a848285016116ea565b91505092915050565b7f43616e206e6f7420736574206164647265737320300000000000000000000000600082015250565b60006119796015836117e3565b915061198482611943565b602082019050919050565b600060208201905081810360008301526119a88161196c565b9050919050565b7f496e76616c6964206f7074696f6e000000000000000000000000000000000000600082015250565b60006119e5600e836117e3565b91506119f0826119af565b602082019050919050565b60006020820190508181036000830152611a14816119d8565b9050919050565b7f496e76616c69642062757920746f6b656e000000000000000000000000000000600082015250565b6000611a516011836117e3565b9150611a5c82611a1b565b602082019050919050565b60006020820190508181036000830152611a8081611a44565b9050919050565b7f496e76616c6964206e616d650000000000000000000000000000000000000000600082015250565b6000611abd600c836117e3565b9150611ac882611a87565b602082019050919050565b60006020820190508181036000830152611aec81611ab0565b9050919050565b7f4164647265737320616c7265616479206861732044414f000000000000000000600082015250565b6000611b296017836117e3565b9150611b3482611af3565b602082019050919050565b60006020820190508181036000830152611b5881611b1c565b9050919050565b600081905092915050565b6000611b75826117d8565b611b7f8185611b5f565b9350611b8f8185602086016117f4565b80840191505092915050565b6000611ba78284611b6a565b915081905092915050565b7f4e616d6520616c72656164792065786973740000000000000000000000000000600082015250565b6000611be86012836117e3565b9150611bf382611bb2565b602082019050919050565b60006020820190508181036000830152611c1781611bdb565b9050919050565b6000604082019050611c3360008301856114b6565b611c4060208301846117ae565b9392505050565b7f4e487b7100000000000000000000000000000000000000000000000000000000600052601160045260246000fd5b6000611c81826116c9565b91507fffffffffffffffffffffffffffffffffffffffffffffffffffffffffffffffff8203611cb357611cb2611c47565b5b600182019050919050565b7f4e487b7100000000000000000000000000000000000000000000000000000000600052602260045260246000fd5b60006002820490506001821680611d0557607f821691505b602082108103611d1857611d17611cbe565b5b50919050565b60008190508160005260206000209050919050565b60006020601f8301049050919050565b600082821b905092915050565b600060088302611d807fffffffffffffffffffffffffffffffffffffffffffffffffffffffffffffffff82611d43565b611d8a8683611d43565b95508019841693508086168417925050509392505050565b6000819050919050565b6000611dc7611dc2611dbd846116c9565b611da2565b6116c9565b9050919050565b6000819050919050565b611de183611dac565b611df5611ded82611dce565b848454611d50565b825550505050565b600090565b611e0a611dfd565b611e15818484611dd8565b505050565b5b81811015611e3957611e2e600082611e02565b600181019050611e1b565b5050565b601f821115611e7e57611e4f81611d1e565b611e5884611d33565b81016020851015611e67578190505b611e7b611e7385611d33565b830182611e1a565b50505b505050565b600082821c905092915050565b6000611ea160001984600802611e83565b1980831691505092915050565b6000611eba8383611e90565b9150826002028217905092915050565b611ed3826117d8565b67ffffffffffffffff811115611eec57611eeb61159e565b5b611ef68254611ced565b611f01828285611e3d565b600060209050601f831160018114611f345760008415611f22578287015190505b611f2c8582611eae565b865550611f94565b601f198416611f4286611d1e565b60005b82811015611f6a57848901518255600182019150602085019450602081019050611f45565b86831015611f875784890151611f83601f891682611e90565b8355505b6001600288020188555050505b505050505050565b600060e082019050611fb1600083018a6114b6565b611fbe60208301896117ae565b611fcb60408301886117ae565b8181036060830152611fdd818761181e565b9050611fec60808301866117ae565b611ff960a08301856114b6565b61200660c08301846117ae565b98975050505050505050565b7f4f776e61626c653a206e6577206f776e657220697320746865207a65726f206160008201527f6464726573730000000000000000000000000000000000000000000000000000602082015250565b600061206e6026836117e3565b915061207982612012565b604082019050919050565b6000602082019050818103600083015261209d81612061565b9050919050565b7f4f776e61626c653a2063616c6c6572206973206e6f7420746865206f776e6572600082015250565b60006120da6020836117e3565b91506120e5826120a4565b602082019050919050565b60006020820190508181036000830152612109816120cd565b9050919050565b7f5061757361626c653a2070617573656400000000000000000000000000000000600082015250565b60006121466010836117e3565b915061215182612110565b602082019050919050565b6000602082019050818103600083015261217581612139565b9050919050565b600060608201905061219160008301866114b6565b61219e60208301856114b6565b6121ab60408301846117ae565b949350505050565b6121bc8161154d565b81146121c757600080fd5b50565b6000815190506121d9816121b3565b92915050565b6000602082840312156121f5576121f46114ea565b5b6000612203848285016121ca565b91505092915050565b7f5061757361626c653a206e6f7420706175736564000000000000000000000000600082015250565b60006122426014836117e3565b915061224d8261220c565b602082019050919050565b6000602082019050818103600083015261227181612235565b905091905056fea26469706673582212209729359176438b72412eb4f2c5db4afcf79b40639d80cf65f6cc1b464f6019a664736f6c63430008120033",
  "linkReferences": {},
  "deployedLinkReferences": {}
}