{
  "_format": "hh-sol-artifact-1",
  "contractName": "AihomeDaoStaking",
  "sourceName": "contracts/AihomeDaoStaking.sol",
  "abi": [
    {
      "inputs": [
        {
          "internalType": "address",
          "name": "_accountReceiveTicketPrice",
          "type": "address"
        },
        {
          "internalType": "address",
          "name": "_accountReceiveStaking",
          "type": "address"
        }
      ],
      "stateMutability": "nonpayable",
      "type": "constructor"
    },
    {
      "anonymous": false,
      "inputs": [
        {
          "indexed": false,
          "internalType": "address",
          "name": "by",
          "type": "address"
        },
        {
          "indexed": false,
          "internalType": "string",
          "name": "name",
          "type": "string"
        },
        {
          "indexed": false,
          "internalType": "uint256",
          "name": "timestamp",
          "type": "uint256"
        },
        {
          "indexed": false,
          "internalType": "uint256",
          "name": "amount",
          "type": "uint256"
        },
        {
          "indexed": false,
          "internalType": "uint256",
          "name": "idDao",
          "type": "uint256"
        }
      ],
      "name": "JoinDao",
      "type": "event"
    },
    {
      "anonymous": false,
      "inputs": [
        {
          "indexed": false,
          "internalType": "address",
          "name": "by",
          "type": "address"
        },
        {
          "indexed": false,
          "internalType": "uint256",
          "name": "timeJoinDao",
          "type": "uint256"
        },
        {
          "indexed": false,
          "internalType": "uint256",
          "name": "idDao",
          "type": "uint256"
        }
      ],
      "name": "LeaveDao",
      "type": "event"
    },
    {
      "anonymous": false,
      "inputs": [
        {
          "indexed": true,
          "internalType": "address",
          "name": "previousOwner",
          "type": "address"
        },
        {
          "indexed": true,
          "internalType": "address",
          "name": "newOwner",
          "type": "address"
        }
      ],
      "name": "OwnershipTransferred",
      "type": "event"
    },
    {
      "anonymous": false,
      "inputs": [
        {
          "indexed": false,
          "internalType": "address",
          "name": "account",
          "type": "address"
        }
      ],
      "name": "Paused",
      "type": "event"
    },
    {
      "anonymous": false,
      "inputs": [
        {
          "indexed": false,
          "internalType": "address",
          "name": "by",
          "type": "address"
        },
        {
          "indexed": false,
          "internalType": "uint256",
          "name": "timeStaking",
          "type": "uint256"
        },
        {
          "indexed": false,
          "internalType": "uint256",
          "name": "idDao",
          "type": "uint256"
        },
        {
          "indexed": false,
          "internalType": "uint256",
          "name": "amount",
          "type": "uint256"
        }
      ],
      "name": "Staking",
      "type": "event"
    },
    {
      "anonymous": false,
      "inputs": [
        {
          "indexed": false,
          "internalType": "address",
          "name": "account",
          "type": "address"
        }
      ],
      "name": "Unpaused",
      "type": "event"
    },
    {
      "inputs": [],
      "name": "accountReceiveStaking",
      "outputs": [
        {
          "internalType": "address",
          "name": "",
          "type": "address"
        }
      ],
      "stateMutability": "view",
      "type": "function"
    },
    {
      "inputs": [],
      "name": "accountReceiveTicketPrice",
      "outputs": [
        {
          "internalType": "address",
          "name": "",
          "type": "address"
        }
      ],
      "stateMutability": "view",
      "type": "function"
    },
    {
      "inputs": [
        {
          "internalType": "uint256",
          "name": "_id",
          "type": "uint256"
        },
        {
          "internalType": "uint256",
          "name": "_index",
          "type": "uint256"
        }
      ],
      "name": "getInfoMemberById",
      "outputs": [
        {
          "components": [
            {
              "internalType": "uint256",
              "name": "id",
              "type": "uint256"
            },
            {
              "internalType": "string",
              "name": "name",
              "type": "string"
            },
            {
              "internalType": "uint256",
              "name": "daoId",
              "type": "uint256"
            },
            {
              "internalType": "address",
              "name": "addressUser",
              "type": "address"
            },
            {
              "internalType": "uint256",
              "name": "amountStaking",
              "type": "uint256"
            },
            {
              "internalType": "uint256",
              "name": "timeJoinDao",
              "type": "uint256"
            },
            {
              "internalType": "uint256",
              "name": "timeLeaveDao",
              "type": "uint256"
            },
            {
              "internalType": "string",
              "name": "status",
              "type": "string"
            }
          ],
          "internalType": "struct AihomeDaoStaking.ProfileMember",
          "name": "",
          "type": "tuple"
        }
      ],
      "stateMutability": "view",
      "type": "function"
    },
    {
      "inputs": [
        {
          "internalType": "string",
          "name": "",
          "type": "string"
        }
      ],
      "name": "isExistName",
      "outputs": [
        {
          "internalType": "bool",
          "name": "",
          "type": "bool"
        }
      ],
      "stateMutability": "view",
      "type": "function"
    },
    {
      "inputs": [
        {
          "internalType": "address",
          "name": "",
          "type": "address"
        }
      ],
      "name": "isMemberDao",
      "outputs": [
        {
          "internalType": "bool",
          "name": "",
          "type": "bool"
        }
      ],
      "stateMutability": "view",
      "type": "function"
    },
    {
      "inputs": [
        {
          "internalType": "address",
          "name": "_address",
          "type": "address"
        }
      ],
      "name": "isMemberOrOwner",
      "outputs": [
        {
          "internalType": "bool",
          "name": "",
          "type": "bool"
        }
      ],
      "stateMutability": "view",
      "type": "function"
    },
    {
      "inputs": [
        {
          "internalType": "uint256",
          "name": "_id",
          "type": "uint256"
        },
        {
          "internalType": "string",
          "name": "_name",
          "type": "string"
        }
      ],
      "name": "joinDao",
      "outputs": [],
      "stateMutability": "nonpayable",
      "type": "function"
    },
    {
      "inputs": [],
      "name": "leaveDao",
      "outputs": [],
      "stateMutability": "nonpayable",
      "type": "function"
    },
    {
      "inputs": [],
      "name": "owner",
      "outputs": [
        {
          "internalType": "address",
          "name": "",
          "type": "address"
        }
      ],
      "stateMutability": "view",
      "type": "function"
    },
    {
      "inputs": [],
      "name": "pause",
      "outputs": [],
      "stateMutability": "nonpayable",
      "type": "function"
    },
    {
      "inputs": [],
      "name": "paused",
      "outputs": [
        {
          "internalType": "bool",
          "name": "",
          "type": "bool"
        }
      ],
      "stateMutability": "view",
      "type": "function"
    },
    {
      "inputs": [
        {
          "internalType": "uint256",
          "name": "",
          "type": "uint256"
        }
      ],
      "name": "profileDaoById",
      "outputs": [
        {
          "internalType": "uint256",
          "name": "totalMember",
          "type": "uint256"
        },
        {
          "internalType": "uint256",
          "name": "totalStake",
          "type": "uint256"
        }
      ],
      "stateMutability": "view",
      "type": "function"
    },
    {
      "inputs": [
        {
          "internalType": "address",
          "name": "",
          "type": "address"
        }
      ],
      "name": "profileMemberDao",
      "outputs": [
        {
          "internalType": "uint256",
          "name": "id",
          "type": "uint256"
        },
        {
          "internalType": "string",
          "name": "name",
          "type": "string"
        },
        {
          "internalType": "uint256",
          "name": "daoId",
          "type": "uint256"
        },
        {
          "internalType": "address",
          "name": "addressUser",
          "type": "address"
        },
        {
          "internalType": "uint256",
          "name": "amountStaking",
          "type": "uint256"
        },
        {
          "internalType": "uint256",
          "name": "timeJoinDao",
          "type": "uint256"
        },
        {
          "internalType": "uint256",
          "name": "timeLeaveDao",
          "type": "uint256"
        },
        {
          "internalType": "string",
          "name": "status",
          "type": "string"
        }
      ],
      "stateMutability": "view",
      "type": "function"
    },
    {
      "inputs": [],
      "name": "renounceOwnership",
      "outputs": [],
      "stateMutability": "nonpayable",
      "type": "function"
    },
    {
      "inputs": [
        {
          "internalType": "uint256",
          "name": "_amount",
          "type": "uint256"
        }
      ],
      "name": "staking",
      "outputs": [],
      "stateMutability": "nonpayable",
      "type": "function"
    },
    {
      "inputs": [
        {
          "internalType": "address",
          "name": "newOwner",
          "type": "address"
        }
      ],
      "name": "transferOwnership",
      "outputs": [],
      "stateMutability": "nonpayable",
      "type": "function"
    },
    {
      "inputs": [],
      "name": "unpause",
      "outputs": [],
      "stateMutability": "nonpayable",
      "type": "function"
    }
  ],
  "bytecode": "0x60806040523480156200001157600080fd5b506040516200338438038062003384833981810160405281019062000037919062000232565b60008060006101000a81548160ff0219169083151502179055506200007162000065620000fb60201b60201c565b6200010360201b60201c565b81600160006101000a81548173ffffffffffffffffffffffffffffffffffffffff021916908373ffffffffffffffffffffffffffffffffffffffff16021790555080600260006101000a81548173ffffffffffffffffffffffffffffffffffffffff021916908373ffffffffffffffffffffffffffffffffffffffff160217905550505062000279565b600033905090565b60008060019054906101000a900473ffffffffffffffffffffffffffffffffffffffff16905081600060016101000a81548173ffffffffffffffffffffffffffffffffffffffff021916908373ffffffffffffffffffffffffffffffffffffffff1602179055508173ffffffffffffffffffffffffffffffffffffffff168173ffffffffffffffffffffffffffffffffffffffff167f8be0079c531659141344cd1fd0a4f28419497f9722a3daafe3b4186f6b6457e060405160405180910390a35050565b600080fd5b600073ffffffffffffffffffffffffffffffffffffffff82169050919050565b6000620001fa82620001cd565b9050919050565b6200020c81620001ed565b81146200021857600080fd5b50565b6000815190506200022c8162000201565b92915050565b600080604083850312156200024c576200024b620001c8565b5b60006200025c858286016200021b565b92505060206200026f858286016200021b565b9150509250929050565b6130fb80620002896000396000f3fe608060405234801561001057600080fd5b506004361061010b5760003560e01c80638da5cb5b116100a2578063bedd205011610071578063bedd205014610287578063cfdd3d8e146102a5578063ea7b21bb146102d5578063f2fde38b146102df578063fd419405146102fb5761010b565b80638da5cb5b146101ff5780638e2965ba1461021d578063b3ea42b91461023b578063b8efe826146102575761010b565b80635c975abb116100de5780635c975abb1461019d57806363b1dec8146101bb578063715018a6146101eb5780638456cb59146101f55761010b565b80631dbb2a2214610110578063202531c81461012c57806336b88202146101635780633f4ba83a14610193575b600080fd5b61012a60048036038101906101259190611d7b565b61032c565b005b61014660048036038101906101419190611e06565b610698565b60405161015a989796959493929190611ee1565b60405180910390f35b61017d60048036038101906101789190611e06565b610810565b60405161018a9190611f88565b60405180910390f35b61019b610830565b005b6101a5610842565b6040516101b29190611f88565b60405180910390f35b6101d560048036038101906101d09190611fa3565b610858565b6040516101e29190612102565b60405180910390f35b6101f3610aaf565b005b6101fd610ac3565b005b610207610ad5565b6040516102149190612124565b60405180910390f35b610225610afe565b6040516102329190612124565b60405180910390f35b61025560048036038101906102509190612274565b610b24565b005b610271600480360381019061026c9190611e06565b611447565b60405161027e9190611f88565b60405180910390f35b61028f61153d565b60405161029c9190612124565b60405180910390f35b6102bf60048036038101906102ba91906122d0565b611563565b6040516102cc9190611f88565b60405180910390f35b6102dd611599565b005b6102f960048036038101906102f49190611e06565b61198d565b005b61031560048036038101906103109190611d7b565b611a10565b604051610323929190612319565b60405180910390f35b610334611a34565b60011515600460003373ffffffffffffffffffffffffffffffffffffffff1673ffffffffffffffffffffffffffffffffffffffff16815260200190815260200160002060009054906101000a900460ff161515146103c7576040517f08c379a00000000000000000000000000000000000000000000000000000000081526004016103be9061238e565b60405180910390fd5b807375b85fab647032f5ce71437a8e18831734acc97573ffffffffffffffffffffffffffffffffffffffff166370a08231336040518263ffffffff1660e01b81526004016104159190612124565b602060405180830381865afa158015610432573d6000803e3d6000fd5b505050506040513d601f19601f8201168201806040525081019061045691906123c3565b1015610497576040517f08c379a000000000000000000000000000000000000000000000000000000000815260040161048e9061243c565b60405180910390fd5b7375b85fab647032f5ce71437a8e18831734acc97573ffffffffffffffffffffffffffffffffffffffff166323b872dd33600160009054906101000a900473ffffffffffffffffffffffffffffffffffffffff16846040518463ffffffff1660e01b815260040161050a9392919061245c565b6020604051808303816000875af1158015610529573d6000803e3d6000fd5b505050506040513d601f19601f8201168201806040525081019061054d91906124bf565b508060056000600360003373ffffffffffffffffffffffffffffffffffffffff1673ffffffffffffffffffffffffffffffffffffffff16815260200190815260200160002060020154815260200190815260200160002060010160008282546105b6919061251b565b9250508190555080600360003373ffffffffffffffffffffffffffffffffffffffff1673ffffffffffffffffffffffffffffffffffffffff168152602001908152602001600020600401600082825461060f919061251b565b925050819055507f949a8db76845fd137ed692e4a5b8de95cd6038978523b30ea532d711a93fbfa73342600360003373ffffffffffffffffffffffffffffffffffffffff1673ffffffffffffffffffffffffffffffffffffffff168152602001908152602001600020600201548460405161068d949392919061254f565b60405180910390a150565b60036020528060005260406000206000915090508060000154908060010180546106c1906125c3565b80601f01602080910402602001604051908101604052809291908181526020018280546106ed906125c3565b801561073a5780601f1061070f5761010080835404028352916020019161073a565b820191906000526020600020905b81548152906001019060200180831161071d57829003601f168201915b5050505050908060020154908060030160009054906101000a900473ffffffffffffffffffffffffffffffffffffffff169080600401549080600501549080600601549080600701805461078d906125c3565b80601f01602080910402602001604051908101604052809291908181526020018280546107b9906125c3565b80156108065780601f106107db57610100808354040283529160200191610806565b820191906000526020600020905b8154815290600101906020018083116107e957829003601f168201915b5050505050905088565b60046020528060005260406000206000915054906101000a900460ff1681565b610838611a7e565b610840611afc565b565b60008060009054906101000a900460ff16905090565b610860611cd6565b600060066000858152602001908152602001600020600084815260200190815260200160002060009054906101000a900473ffffffffffffffffffffffffffffffffffffffff1690506000600360008373ffffffffffffffffffffffffffffffffffffffff1673ffffffffffffffffffffffffffffffffffffffff1681526020019081526020016000206040518061010001604052908160008201548152602001600182018054610910906125c3565b80601f016020809104026020016040519081016040528092919081815260200182805461093c906125c3565b80156109895780601f1061095e57610100808354040283529160200191610989565b820191906000526020600020905b81548152906001019060200180831161096c57829003601f168201915b50505050508152602001600282015481526020016003820160009054906101000a900473ffffffffffffffffffffffffffffffffffffffff1673ffffffffffffffffffffffffffffffffffffffff1673ffffffffffffffffffffffffffffffffffffffff168152602001600482015481526020016005820154815260200160068201548152602001600782018054610a20906125c3565b80601f0160208091040260200160405190810160405280929190818152602001828054610a4c906125c3565b8015610a995780601f10610a6e57610100808354040283529160200191610a99565b820191906000526020600020905b815481529060010190602001808311610a7c57829003601f168201915b5050505050815250509050809250505092915050565b610ab7611a7e565b610ac16000611b5e565b565b610acb611a7e565b610ad3611c23565b565b60008060019054906101000a900473ffffffffffffffffffffffffffffffffffffffff16905090565b600160009054906101000a900473ffffffffffffffffffffffffffffffffffffffff1681565b610b2c611a34565b610b34611cd6565b60001515600460003373ffffffffffffffffffffffffffffffffffffffff1673ffffffffffffffffffffffffffffffffffffffff16815260200190815260200160002060009054906101000a900460ff16151514610bc7576040517f08c379a0000000000000000000000000000000000000000000000000000000008152600401610bbe90612640565b60405180910390fd5b6000151573bfe24856d544e6c42a60d5ba308338dc98be7cb273ffffffffffffffffffffffffffffffffffffffff16634b5c2db6336040518263ffffffff1660e01b8152600401610c189190612124565b602060405180830381865afa158015610c35573d6000803e3d6000fd5b505050506040513d601f19601f82011682018060405250810190610c5991906124bf565b151514610c9b576040517f08c379a0000000000000000000000000000000000000000000000000000000008152600401610c92906126ac565b60405180910390fd5b60001515600783604051610caf9190612708565b908152602001604051809103902060009054906101000a900460ff16151514610d0d576040517f08c379a0000000000000000000000000000000000000000000000000000000008152600401610d049061276b565b60405180910390fd5b6000825111610d51576040517f08c379a0000000000000000000000000000000000000000000000000000000008152600401610d48906127d7565b60405180910390fd5b73bfe24856d544e6c42a60d5ba308338dc98be7cb273ffffffffffffffffffffffffffffffffffffffff16639f47ceff6040518163ffffffff1660e01b8152600401602060405180830381865afa158015610db0573d6000803e3d6000fd5b505050506040513d601f19601f82011682018060405250810190610dd491906123c3565b831115610e16576040517f08c379a0000000000000000000000000000000000000000000000000000000008152600401610e0d90612843565b60405180910390fd5b600073bfe24856d544e6c42a60d5ba308338dc98be7cb273ffffffffffffffffffffffffffffffffffffffff1663d70980cf856040518263ffffffff1660e01b8152600401610e659190612863565b6000604051808303816000875af1158015610e84573d6000803e3d6000fd5b505050506040513d6000823e3d601f19601f82011682018060405250810190610ead9190612903565b9350505050600060018203610ecd5768022b1c8c1227a000009050610ef4565b60028203610ee657680340aad21b3b7000009050610ef3565b68056bc75e2d6310000090505b5b807375b85fab647032f5ce71437a8e18831734acc97573ffffffffffffffffffffffffffffffffffffffff166370a08231336040518263ffffffff1660e01b8152600401610f429190612124565b602060405180830381865afa158015610f5f573d6000803e3d6000fd5b505050506040513d601f19601f82011682018060405250810190610f8391906123c3565b1015610fc4576040517f08c379a0000000000000000000000000000000000000000000000000000000008152600401610fbb906129d2565b60405180910390fd5b62278d00600360003373ffffffffffffffffffffffffffffffffffffffff1673ffffffffffffffffffffffffffffffffffffffff16815260200190815260200160002060060154611015919061251b565b4211611056576040517f08c379a000000000000000000000000000000000000000000000000000000000815260040161104d90612a3e565b60405180910390fd5b7375b85fab647032f5ce71437a8e18831734acc97573ffffffffffffffffffffffffffffffffffffffff166323b872dd33600160009054906101000a900473ffffffffffffffffffffffffffffffffffffffff16846040518463ffffffff1660e01b81526004016110c99392919061245c565b6020604051808303816000875af11580156110e8573d6000803e3d6000fd5b505050506040513d601f19601f8201168201806040525081019061110c91906124bf565b5080600560008781526020019081526020016000206001016000828254611133919061251b565b9250508190555033836060019073ffffffffffffffffffffffffffffffffffffffff16908173ffffffffffffffffffffffffffffffffffffffff16815250508483604001818152505083836020018190525080836080018181525050428360a00181815250506040518060400160405280600681526020017f61637469766500000000000000000000000000000000000000000000000000008152508360e001819052506001600460003373ffffffffffffffffffffffffffffffffffffffff1673ffffffffffffffffffffffffffffffffffffffff16815260200190815260200160002060006101000a81548160ff02191690831515021790555060056000868152602001908152602001600020600001600081548092919061125690612a5e565b9190505550600560008681526020019081526020016000206000015483600001818152505082600360003373ffffffffffffffffffffffffffffffffffffffff1673ffffffffffffffffffffffffffffffffffffffff1681526020019081526020016000206000820151816000015560208201518160010190816112da9190612c52565b506040820151816002015560608201518160030160006101000a81548173ffffffffffffffffffffffffffffffffffffffff021916908373ffffffffffffffffffffffffffffffffffffffff1602179055506080820151816004015560a0820151816005015560c0820151816006015560e082015181600701908161135f9190612c52565b50905050336006600087815260200190815260200160002060008560000151815260200190815260200160002060006101000a81548173ffffffffffffffffffffffffffffffffffffffff021916908373ffffffffffffffffffffffffffffffffffffffff16021790555060016007856040516113dc9190612708565b908152602001604051809103902060006101000a81548160ff0219169083151502179055507fdcb52cb2319d5a89c247a2307cf43c2e7bc046699441fc0a612dcba58988e0fd3385428489604051611438959493929190612d24565b60405180910390a15050505050565b60008073bfe24856d544e6c42a60d5ba308338dc98be7cb273ffffffffffffffffffffffffffffffffffffffff16634b5c2db6846040518263ffffffff1660e01b81526004016114979190612124565b602060405180830381865afa1580156114b4573d6000803e3d6000fd5b505050506040513d601f19601f820116820180604052508101906114d891906124bf565b90506000600460008573ffffffffffffffffffffffffffffffffffffffff1673ffffffffffffffffffffffffffffffffffffffff16815260200190815260200160002060009054906101000a900460ff16905081806115345750805b92505050919050565b600260009054906101000a900473ffffffffffffffffffffffffffffffffffffffff1681565b6007818051602081018201805184825260208301602085012081835280955050505050506000915054906101000a900460ff1681565b6115a1611a34565b6000600360003373ffffffffffffffffffffffffffffffffffffffff1673ffffffffffffffffffffffffffffffffffffffff168152602001908152602001600020905060011515600460003373ffffffffffffffffffffffffffffffffffffffff1673ffffffffffffffffffffffffffffffffffffffff16815260200190815260200160002060009054906101000a900460ff16151514611677576040517f08c379a000000000000000000000000000000000000000000000000000000000815260040161166e90612dca565b60405180910390fd5b7375b85fab647032f5ce71437a8e18831734acc97573ffffffffffffffffffffffffffffffffffffffff166323b872dd600160009054906101000a900473ffffffffffffffffffffffffffffffffffffffff1633600360003373ffffffffffffffffffffffffffffffffffffffff1673ffffffffffffffffffffffffffffffffffffffff168152602001908152602001600020600401546040518463ffffffff1660e01b815260040161172c9392919061245c565b6020604051808303816000875af115801561174b573d6000803e3d6000fd5b505050506040513d601f19601f8201168201806040525081019061176f91906124bf565b50600360003373ffffffffffffffffffffffffffffffffffffffff1673ffffffffffffffffffffffffffffffffffffffff1681526020019081526020016000206004015460056000600360003373ffffffffffffffffffffffffffffffffffffffff1673ffffffffffffffffffffffffffffffffffffffff168152602001908152602001600020600201548152602001908152602001600020600101600082825461181a9190612dea565b925050819055506000600460003373ffffffffffffffffffffffffffffffffffffffff1673ffffffffffffffffffffffffffffffffffffffff16815260200190815260200160002060006101000a81548160ff0219169083151502179055506040518060400160405280600881526020017f696e4163746976650000000000000000000000000000000000000000000000008152508160070190816118bf9190612c52565b506000816004018190555042816006018190555060006007600360003373ffffffffffffffffffffffffffffffffffffffff1673ffffffffffffffffffffffffffffffffffffffff1681526020019081526020016000206001016040516119269190612ea1565b908152602001604051809103902060006101000a81548160ff0219169083151502179055507fd23d99204cc96426a4c580f3d1a6a95f01a1e35535ce2115643f3c99a629b6223342836006015460405161198293929190612eb8565b60405180910390a150565b611995611a7e565b600073ffffffffffffffffffffffffffffffffffffffff168173ffffffffffffffffffffffffffffffffffffffff1603611a04576040517f08c379a00000000000000000000000000000000000000000000000000000000081526004016119fb90612f61565b60405180910390fd5b611a0d81611b5e565b50565b60056020528060005260406000206000915090508060000154908060010154905082565b611a3c610842565b15611a7c576040517f08c379a0000000000000000000000000000000000000000000000000000000008152600401611a7390612fcd565b60405180910390fd5b565b611a86611c85565b73ffffffffffffffffffffffffffffffffffffffff16611aa4610ad5565b73ffffffffffffffffffffffffffffffffffffffff1614611afa576040517f08c379a0000000000000000000000000000000000000000000000000000000008152600401611af190613039565b60405180910390fd5b565b611b04611c8d565b60008060006101000a81548160ff0219169083151502179055507f5db9ee0a495bf2e6ff9c91a7834c1ba4fdd244a5e8aa4e537bd38aeae4b073aa611b47611c85565b604051611b549190612124565b60405180910390a1565b60008060019054906101000a900473ffffffffffffffffffffffffffffffffffffffff16905081600060016101000a81548173ffffffffffffffffffffffffffffffffffffffff021916908373ffffffffffffffffffffffffffffffffffffffff1602179055508173ffffffffffffffffffffffffffffffffffffffff168173ffffffffffffffffffffffffffffffffffffffff167f8be0079c531659141344cd1fd0a4f28419497f9722a3daafe3b4186f6b6457e060405160405180910390a35050565b611c2b611a34565b60016000806101000a81548160ff0219169083151502179055507f62e78cea01bee320cd4e420270b5ea74000d11b0c9f74754ebdbfc544b05a258611c6e611c85565b604051611c7b9190612124565b60405180910390a1565b600033905090565b611c95610842565b611cd4576040517f08c379a0000000000000000000000000000000000000000000000000000000008152600401611ccb906130a5565b60405180910390fd5b565b604051806101000160405280600081526020016060815260200160008152602001600073ffffffffffffffffffffffffffffffffffffffff168152602001600081526020016000815260200160008152602001606081525090565b6000604051905090565b600080fd5b600080fd5b6000819050919050565b611d5881611d45565b8114611d6357600080fd5b50565b600081359050611d7581611d4f565b92915050565b600060208284031215611d9157611d90611d3b565b5b6000611d9f84828501611d66565b91505092915050565b600073ffffffffffffffffffffffffffffffffffffffff82169050919050565b6000611dd382611da8565b9050919050565b611de381611dc8565b8114611dee57600080fd5b50565b600081359050611e0081611dda565b92915050565b600060208284031215611e1c57611e1b611d3b565b5b6000611e2a84828501611df1565b91505092915050565b611e3c81611d45565b82525050565b600081519050919050565b600082825260208201905092915050565b60005b83811015611e7c578082015181840152602081019050611e61565b60008484015250505050565b6000601f19601f8301169050919050565b6000611ea482611e42565b611eae8185611e4d565b9350611ebe818560208601611e5e565b611ec781611e88565b840191505092915050565b611edb81611dc8565b82525050565b600061010082019050611ef7600083018b611e33565b8181036020830152611f09818a611e99565b9050611f186040830189611e33565b611f256060830188611ed2565b611f326080830187611e33565b611f3f60a0830186611e33565b611f4c60c0830185611e33565b81810360e0830152611f5e8184611e99565b90509998505050505050505050565b60008115159050919050565b611f8281611f6d565b82525050565b6000602082019050611f9d6000830184611f79565b92915050565b60008060408385031215611fba57611fb9611d3b565b5b6000611fc885828601611d66565b9250506020611fd985828601611d66565b9150509250929050565b611fec81611d45565b82525050565b600082825260208201905092915050565b600061200e82611e42565b6120188185611ff2565b9350612028818560208601611e5e565b61203181611e88565b840191505092915050565b61204581611dc8565b82525050565b6000610100830160008301516120646000860182611fe3565b506020830151848203602086015261207c8282612003565b91505060408301516120916040860182611fe3565b5060608301516120a4606086018261203c565b5060808301516120b76080860182611fe3565b5060a08301516120ca60a0860182611fe3565b5060c08301516120dd60c0860182611fe3565b5060e083015184820360e08601526120f58282612003565b9150508091505092915050565b6000602082019050818103600083015261211c818461204b565b905092915050565b60006020820190506121396000830184611ed2565b92915050565b600080fd5b600080fd5b7f4e487b7100000000000000000000000000000000000000000000000000000000600052604160045260246000fd5b61218182611e88565b810181811067ffffffffffffffff821117156121a05761219f612149565b5b80604052505050565b60006121b3611d31565b90506121bf8282612178565b919050565b600067ffffffffffffffff8211156121df576121de612149565b5b6121e882611e88565b9050602081019050919050565b82818337600083830152505050565b6000612217612212846121c4565b6121a9565b90508281526020810184848401111561223357612232612144565b5b61223e8482856121f5565b509392505050565b600082601f83011261225b5761225a61213f565b5b813561226b848260208601612204565b91505092915050565b6000806040838503121561228b5761228a611d3b565b5b600061229985828601611d66565b925050602083013567ffffffffffffffff8111156122ba576122b9611d40565b5b6122c685828601612246565b9150509250929050565b6000602082840312156122e6576122e5611d3b565b5b600082013567ffffffffffffffff81111561230457612303611d40565b5b61231084828501612246565b91505092915050565b600060408201905061232e6000830185611e33565b61233b6020830184611e33565b9392505050565b7f596f7520617265206e6f742061206d656d626572206f662064616f0000000000600082015250565b6000612378601b83611e4d565b915061238382612342565b602082019050919050565b600060208201905081810360008301526123a78161236b565b9050919050565b6000815190506123bd81611d4f565b92915050565b6000602082840312156123d9576123d8611d3b565b5b60006123e7848285016123ae565b91505092915050565b7f6e6f7420656e6f756768206d6f6e657920746f207374616b696e670000000000600082015250565b6000612426601b83611e4d565b9150612431826123f0565b602082019050919050565b6000602082019050818103600083015261245581612419565b9050919050565b60006060820190506124716000830186611ed2565b61247e6020830185611ed2565b61248b6040830184611e33565b949350505050565b61249c81611f6d565b81146124a757600080fd5b50565b6000815190506124b981612493565b92915050565b6000602082840312156124d5576124d4611d3b565b5b60006124e3848285016124aa565b91505092915050565b7f4e487b7100000000000000000000000000000000000000000000000000000000600052601160045260246000fd5b600061252682611d45565b915061253183611d45565b9250828201905080821115612549576125486124ec565b5b92915050565b60006080820190506125646000830187611ed2565b6125716020830186611e33565b61257e6040830185611e33565b61258b6060830184611e33565b95945050505050565b7f4e487b7100000000000000000000000000000000000000000000000000000000600052602260045260246000fd5b600060028204905060018216806125db57607f821691505b6020821081036125ee576125ed612594565b5b50919050565b7f596f75206172652061206d656d626572206f662064616f000000000000000000600082015250565b600061262a601783611e4d565b9150612635826125f4565b602082019050919050565b600060208201905081810360008301526126598161261d565b9050919050565b7f596f7520617265206f776e65722064616f000000000000000000000000000000600082015250565b6000612696601183611e4d565b91506126a182612660565b602082019050919050565b600060208201905081810360008301526126c581612689565b9050919050565b600081905092915050565b60006126e282611e42565b6126ec81856126cc565b93506126fc818560208601611e5e565b80840191505092915050565b600061271482846126d7565b915081905092915050565b7f4e616d6520616c72656164792065786973740000000000000000000000000000600082015250565b6000612755601283611e4d565b91506127608261271f565b602082019050919050565b6000602082019050818103600083015261278481612748565b9050919050565b7f496e76616c6964206e616d650000000000000000000000000000000000000000600082015250565b60006127c1600c83611e4d565b91506127cc8261278b565b602082019050919050565b600060208201905081810360008301526127f0816127b4565b9050919050565b7f44616f20696420646f6573206e6f742065786973740000000000000000000000600082015250565b600061282d601583611e4d565b9150612838826127f7565b602082019050919050565b6000602082019050818103600083015261285c81612820565b9050919050565b60006020820190506128786000830184611e33565b92915050565b600061289161288c846121c4565b6121a9565b9050828152602081018484840111156128ad576128ac612144565b5b6128b8848285611e5e565b509392505050565b600082601f8301126128d5576128d461213f565b5b81516128e584826020860161287e565b91505092915050565b6000815190506128fd81611dda565b92915050565b6000806000806080858703121561291d5761291c611d3b565b5b600061292b878288016123ae565b945050602085015167ffffffffffffffff81111561294c5761294b611d40565b5b612958878288016128c0565b9350506040612969878288016128ee565b925050606061297a878288016123ae565b91505092959194509250565b7f6e6f7420656e6f756768206d6f6e657920746f20747261646500000000000000600082015250565b60006129bc601983611e4d565b91506129c782612986565b602082019050919050565b600060208201905081810360008301526129eb816129af565b9050919050565b7f6e6f7420656e6f7567682074696d650000000000000000000000000000000000600082015250565b6000612a28600f83611e4d565b9150612a33826129f2565b602082019050919050565b60006020820190508181036000830152612a5781612a1b565b9050919050565b6000612a6982611d45565b91507fffffffffffffffffffffffffffffffffffffffffffffffffffffffffffffffff8203612a9b57612a9a6124ec565b5b600182019050919050565b60008190508160005260206000209050919050565b60006020601f8301049050919050565b600082821b905092915050565b600060088302612b087fffffffffffffffffffffffffffffffffffffffffffffffffffffffffffffffff82612acb565b612b128683612acb565b95508019841693508086168417925050509392505050565b6000819050919050565b6000612b4f612b4a612b4584611d45565b612b2a565b611d45565b9050919050565b6000819050919050565b612b6983612b34565b612b7d612b7582612b56565b848454612ad8565b825550505050565b600090565b612b92612b85565b612b9d818484612b60565b505050565b5b81811015612bc157612bb6600082612b8a565b600181019050612ba3565b5050565b601f821115612c0657612bd781612aa6565b612be084612abb565b81016020851015612bef578190505b612c03612bfb85612abb565b830182612ba2565b50505b505050565b600082821c905092915050565b6000612c2960001984600802612c0b565b1980831691505092915050565b6000612c428383612c18565b9150826002028217905092915050565b612c5b82611e42565b67ffffffffffffffff811115612c7457612c73612149565b5b612c7e82546125c3565b612c89828285612bc5565b600060209050601f831160018114612cbc5760008415612caa578287015190505b612cb48582612c36565b865550612d1c565b601f198416612cca86612aa6565b60005b82811015612cf257848901518255600182019150602085019450602081019050612ccd565b86831015612d0f5784890151612d0b601f891682612c18565b8355505b6001600288020188555050505b505050505050565b600060a082019050612d396000830188611ed2565b8181036020830152612d4b8187611e99565b9050612d5a6040830186611e33565b612d676060830185611e33565b612d746080830184611e33565b9695505050505050565b7f796f7520617265206e6f742061206d656d626572206f662064616f0000000000600082015250565b6000612db4601b83611e4d565b9150612dbf82612d7e565b602082019050919050565b60006020820190508181036000830152612de381612da7565b9050919050565b6000612df582611d45565b9150612e0083611d45565b9250828203905081811115612e1857612e176124ec565b5b92915050565b60008154612e2b816125c3565b612e3581866126cc565b94506001821660008114612e505760018114612e6557612e98565b60ff1983168652811515820286019350612e98565b612e6e85612aa6565b60005b83811015612e9057815481890152600182019150602081019050612e71565b838801955050505b50505092915050565b6000612ead8284612e1e565b915081905092915050565b6000606082019050612ecd6000830186611ed2565b612eda6020830185611e33565b612ee76040830184611e33565b949350505050565b7f4f776e61626c653a206e6577206f776e657220697320746865207a65726f206160008201527f6464726573730000000000000000000000000000000000000000000000000000602082015250565b6000612f4b602683611e4d565b9150612f5682612eef565b604082019050919050565b60006020820190508181036000830152612f7a81612f3e565b9050919050565b7f5061757361626c653a2070617573656400000000000000000000000000000000600082015250565b6000612fb7601083611e4d565b9150612fc282612f81565b602082019050919050565b60006020820190508181036000830152612fe681612faa565b9050919050565b7f4f776e61626c653a2063616c6c6572206973206e6f7420746865206f776e6572600082015250565b6000613023602083611e4d565b915061302e82612fed565b602082019050919050565b6000602082019050818103600083015261305281613016565b9050919050565b7f5061757361626c653a206e6f7420706175736564000000000000000000000000600082015250565b600061308f601483611e4d565b915061309a82613059565b602082019050919050565b600060208201905081810360008301526130be81613082565b905091905056fea264697066735822122096e4c91499d4a6f65fa7f3b4506839d7b01b84f83a26e76abbeed99aeb9fb4ef64736f6c63430008120033",
  "linkReferences": {},
  "deployedLinkReferences": {}
}