{
  "_format": "hh-sol-artifact-1",
  "contractName": "ContractSwap",
  "sourceName": "contracts/ContractSwap.sol",
  "abi": [
    {
      "inputs": [
        {
          "internalType": "address",
          "name": "_accountReceiveSendingToken",
          "type": "address"
        },
        {
          "internalType": "address",
          "name": "_BUSD",
          "type": "address"
        },
        {
          "internalType": "address",
          "name": "_HOMES",
          "type": "address"
        }
      ],
      "stateMutability": "nonpayable",
      "type": "constructor"
    },
    {
      "anonymous": false,
      "inputs": [
        {
          "indexed": false,
          "internalType": "address",
          "name": "by",
          "type": "address"
        },
        {
          "indexed": false,
          "internalType": "uint256",
          "name": "amount",
          "type": "uint256"
        },
        {
          "indexed": false,
          "internalType": "uint256",
          "name": "timeStamp",
          "type": "uint256"
        }
      ],
      "name": "Faucet",
      "type": "event"
    },
    {
      "anonymous": false,
      "inputs": [
        {
          "indexed": false,
          "internalType": "uint8",
          "name": "version",
          "type": "uint8"
        }
      ],
      "name": "Initialized",
      "type": "event"
    },
    {
      "anonymous": false,
      "inputs": [
        {
          "indexed": true,
          "internalType": "address",
          "name": "previousOwner",
          "type": "address"
        },
        {
          "indexed": true,
          "internalType": "address",
          "name": "newOwner",
          "type": "address"
        }
      ],
      "name": "OwnershipTransferred",
      "type": "event"
    },
    {
      "anonymous": false,
      "inputs": [
        {
          "indexed": false,
          "internalType": "address",
          "name": "account",
          "type": "address"
        }
      ],
      "name": "Paused",
      "type": "event"
    },
    {
      "anonymous": false,
      "inputs": [
        {
          "indexed": false,
          "internalType": "address",
          "name": "by",
          "type": "address"
        },
        {
          "indexed": false,
          "internalType": "address",
          "name": "token",
          "type": "address"
        },
        {
          "indexed": false,
          "internalType": "uint256",
          "name": "amount",
          "type": "uint256"
        },
        {
          "indexed": false,
          "internalType": "uint256",
          "name": "timeStamp",
          "type": "uint256"
        }
      ],
      "name": "Swap",
      "type": "event"
    },
    {
      "anonymous": false,
      "inputs": [
        {
          "indexed": false,
          "internalType": "address",
          "name": "account",
          "type": "address"
        }
      ],
      "name": "Unpaused",
      "type": "event"
    },
    {
      "inputs": [],
      "name": "BUSD",
      "outputs": [
        {
          "internalType": "address",
          "name": "",
          "type": "address"
        }
      ],
      "stateMutability": "view",
      "type": "function"
    },
    {
      "inputs": [],
      "name": "HOMES",
      "outputs": [
        {
          "internalType": "address",
          "name": "",
          "type": "address"
        }
      ],
      "stateMutability": "view",
      "type": "function"
    },
    {
      "inputs": [],
      "name": "accountSendingToken",
      "outputs": [
        {
          "internalType": "address",
          "name": "",
          "type": "address"
        }
      ],
      "stateMutability": "view",
      "type": "function"
    },
    {
      "inputs": [],
      "name": "faucet",
      "outputs": [],
      "stateMutability": "nonpayable",
      "type": "function"
    },
    {
      "inputs": [],
      "name": "owner",
      "outputs": [
        {
          "internalType": "address",
          "name": "",
          "type": "address"
        }
      ],
      "stateMutability": "view",
      "type": "function"
    },
    {
      "inputs": [],
      "name": "pause",
      "outputs": [],
      "stateMutability": "nonpayable",
      "type": "function"
    },
    {
      "inputs": [],
      "name": "paused",
      "outputs": [
        {
          "internalType": "bool",
          "name": "",
          "type": "bool"
        }
      ],
      "stateMutability": "view",
      "type": "function"
    },
    {
      "inputs": [],
      "name": "renounceOwnership",
      "outputs": [],
      "stateMutability": "nonpayable",
      "type": "function"
    },
    {
      "inputs": [
        {
          "internalType": "uint256",
          "name": "_amount",
          "type": "uint256"
        }
      ],
      "name": "swap",
      "outputs": [],
      "stateMutability": "nonpayable",
      "type": "function"
    },
    {
      "inputs": [
        {
          "internalType": "address",
          "name": "newOwner",
          "type": "address"
        }
      ],
      "name": "transferOwnership",
      "outputs": [],
      "stateMutability": "nonpayable",
      "type": "function"
    },
    {
      "inputs": [],
      "name": "unpause",
      "outputs": [],
      "stateMutability": "nonpayable",
      "type": "function"
    }
  ],
  "bytecode": "0x608060405234801561001057600080fd5b50604051610cd4380380610cd483398101604081905261002f91610154565b610037610079565b609980546001600160a01b039485166001600160a01b031991821617909155609780549385169382169390931790925560988054919093169116179055610197565b600054610100900460ff16156100e55760405162461bcd60e51b815260206004820152602760248201527f496e697469616c697a61626c653a20636f6e747261637420697320696e697469604482015266616c697a696e6760c81b606482015260840160405180910390fd5b60005460ff90811614610136576000805460ff191660ff9081179091556040519081527f7f26b83ff96e1f2b6a682f133852f6798a09c465da95921460cefb38474024989060200160405180910390a15b565b80516001600160a01b038116811461014f57600080fd5b919050565b60008060006060848603121561016957600080fd5b61017284610138565b925061018060208501610138565b915061018e60408501610138565b90509250925092565b610b2e806101a66000396000f3fe608060405234801561001057600080fd5b50600436106100a95760003560e01c80638da5cb5b116100715780638da5cb5b1461010e57806394b918de1461011f578063cf37eefd14610132578063de5f72fd14610145578063e8658d591461014d578063f2fde38b1461016057600080fd5b80633f4ba83a146100ae578063484f4ea9146100b85780635c975abb146100e8578063715018a6146100fe5780638456cb5914610106575b600080fd5b6100b6610173565b005b6097546100cb906001600160a01b031681565b6040516001600160a01b0390911681526020015b60405180910390f35b60335460ff1660405190151581526020016100df565b6100b6610185565b6100b6610197565b6065546001600160a01b03166100cb565b6100b661012d366004610a01565b6101a7565b6099546100cb906001600160a01b031681565b6100b66103c0565b6098546100cb906001600160a01b031681565b6100b661016e366004610a1a565b6104f4565b61017b61056d565b6101836105c7565b565b61018d61056d565b6101836000610619565b61019f61056d565b61018361066b565b6101af6106a8565b6097546098546040516370a0823160e01b81523360048201526001600160a01b039283169290911690839083906370a0823190602401602060405180830381865afa158015610202573d6000803e3d6000fd5b505050506040513d601f19601f820116820180604052508101906102269190610a4a565b10156102795760405162461bcd60e51b815260206004820152601760248201527f4e6f7420656e6f7567682062616c616e6365204255534400000000000000000060448201526064015b60405180910390fd5b6099546040516370a0823160e01b81526001600160a01b03918216600482015284918316906370a0823190602401602060405180830381865afa1580156102c4573d6000803e3d6000fd5b505050506040513d601f19601f820116820180604052508101906102e89190610a4a565b10156103365760405162461bcd60e51b815260206004820152601860248201527f4e6f7420656e6f7567682062616c616e636520484f4d455300000000000000006044820152606401610270565b60995461035090839033906001600160a01b0316866106ee565b6099546103699082906001600160a01b031633866106ee565b609754604080513381526001600160a01b03909216602083015281018490524260608201527ffa2dda1cc1b86e41239702756b13effbc1a092b5c57e3ad320fbe4f3b13fe2359060800160405180910390a1505050565b6103c86106a8565b6097546099546040516370a0823160e01b81526001600160a01b03918216600482015291169068056bc75e2d631000009082906370a0823190602401602060405180830381865afa158015610421573d6000803e3d6000fd5b505050506040513d601f19601f820116820180604052508101906104459190610a4a565b10156104885760405162461bcd60e51b81526020600482015260126024820152714e6f7420656e6f7567682062616c616e636560701b6044820152606401610270565b6099546104aa9082906001600160a01b03163368056bc75e2d631000006106ee565b6040805133815268056bc75e2d631000006020820152428183015290517f214e597359607d253d273b990ec10788316369f1c0a60fd7d46d8ad75beb7f8e9181900360600190a150565b6104fc61056d565b6001600160a01b0381166105615760405162461bcd60e51b815260206004820152602660248201527f4f776e61626c653a206e6577206f776e657220697320746865207a65726f206160448201526564647265737360d01b6064820152608401610270565b61056a81610619565b50565b6065546001600160a01b031633146101835760405162461bcd60e51b815260206004820181905260248201527f4f776e61626c653a2063616c6c6572206973206e6f7420746865206f776e65726044820152606401610270565b6105cf61074e565b6033805460ff191690557f5db9ee0a495bf2e6ff9c91a7834c1ba4fdd244a5e8aa4e537bd38aeae4b073aa335b6040516001600160a01b03909116815260200160405180910390a1565b606580546001600160a01b038381166001600160a01b0319831681179093556040519116919082907f8be0079c531659141344cd1fd0a4f28419497f9722a3daafe3b4186f6b6457e090600090a35050565b6106736106a8565b6033805460ff191660011790557f62e78cea01bee320cd4e420270b5ea74000d11b0c9f74754ebdbfc544b05a2586105fc3390565b60335460ff16156101835760405162461bcd60e51b815260206004820152601060248201526f14185d5cd8589b194e881c185d5cd95960821b6044820152606401610270565b604080516001600160a01b0385811660248301528416604482015260648082018490528251808303909101815260849091019091526020810180516001600160e01b03166323b872dd60e01b179052610748908590610797565b50505050565b60335460ff166101835760405162461bcd60e51b815260206004820152601460248201527314185d5cd8589b194e881b9bdd081c185d5cd95960621b6044820152606401610270565b60006107ec826040518060400160405280602081526020017f5361666545524332303a206c6f772d6c6576656c2063616c6c206661696c6564815250856001600160a01b03166108719092919063ffffffff16565b905080516000148061080d57508080602001905181019061080d9190610a63565b61086c5760405162461bcd60e51b815260206004820152602a60248201527f5361666545524332303a204552433230206f7065726174696f6e20646964206e6044820152691bdd081cdd58d8d9595960b21b6064820152608401610270565b505050565b60606108808484600085610888565b949350505050565b6060824710156108e95760405162461bcd60e51b815260206004820152602660248201527f416464726573733a20696e73756666696369656e742062616c616e636520666f6044820152651c8818d85b1b60d21b6064820152608401610270565b600080866001600160a01b031685876040516109059190610aa9565b60006040518083038185875af1925050503d8060008114610942576040519150601f19603f3d011682016040523d82523d6000602084013e610947565b606091505b509150915061095887838387610963565b979650505050505050565b606083156109d25782516000036109cb576001600160a01b0385163b6109cb5760405162461bcd60e51b815260206004820152601d60248201527f416464726573733a2063616c6c20746f206e6f6e2d636f6e74726163740000006044820152606401610270565b5081610880565b61088083838151156109e75781518083602001fd5b8060405162461bcd60e51b81526004016102709190610ac5565b600060208284031215610a1357600080fd5b5035919050565b600060208284031215610a2c57600080fd5b81356001600160a01b0381168114610a4357600080fd5b9392505050565b600060208284031215610a5c57600080fd5b5051919050565b600060208284031215610a7557600080fd5b81518015158114610a4357600080fd5b60005b83811015610aa0578181015183820152602001610a88565b50506000910152565b60008251610abb818460208701610a85565b9190910192915050565b6020815260008251806020840152610ae4816040850160208701610a85565b601f01601f1916919091016040019291505056fea26469706673582212204337e03312808e14ebbe6929ac741734a5c53b707659ecfe685331a507fc76a364736f6c63430008120033",
  "linkReferences": {},
  "deployedLinkReferences": {}
}