{
  "_format": "hh-sol-artifact-1",
  "contractName": "ContractSwap",
  "sourceName": "contracts/ContractSwap.sol",
  "abi": [
    {
      "inputs": [
        {
          "internalType": "address",
          "name": "_accountReceiveSendingToken",
          "type": "address"
        },
        {
          "internalType": "address",
          "name": "_BUSD",
          "type": "address"
        },
        {
          "internalType": "address",
          "name": "_HOMES",
          "type": "address"
        }
      ],
      "stateMutability": "nonpayable",
      "type": "constructor"
    },
    {
      "anonymous": false,
      "inputs": [
        {
          "indexed": false,
          "internalType": "address",
          "name": "by",
          "type": "address"
        },
        {
          "indexed": false,
          "internalType": "uint256",
          "name": "amount",
          "type": "uint256"
        },
        {
          "indexed": false,
          "internalType": "uint256",
          "name": "timeStamp",
          "type": "uint256"
        }
      ],
      "name": "Faucet",
      "type": "event"
    },
    {
      "anonymous": false,
      "inputs": [
        {
          "indexed": false,
          "internalType": "uint8",
          "name": "version",
          "type": "uint8"
        }
      ],
      "name": "Initialized",
      "type": "event"
    },
    {
      "anonymous": false,
      "inputs": [
        {
          "indexed": true,
          "internalType": "address",
          "name": "previousOwner",
          "type": "address"
        },
        {
          "indexed": true,
          "internalType": "address",
          "name": "newOwner",
          "type": "address"
        }
      ],
      "name": "OwnershipTransferred",
      "type": "event"
    },
    {
      "anonymous": false,
      "inputs": [
        {
          "indexed": false,
          "internalType": "address",
          "name": "account",
          "type": "address"
        }
      ],
      "name": "Paused",
      "type": "event"
    },
    {
      "anonymous": false,
      "inputs": [
        {
          "indexed": false,
          "internalType": "address",
          "name": "by",
          "type": "address"
        },
        {
          "indexed": false,
          "internalType": "address",
          "name": "token",
          "type": "address"
        },
        {
          "indexed": false,
          "internalType": "uint256",
          "name": "amount",
          "type": "uint256"
        },
        {
          "indexed": false,
          "internalType": "uint256",
          "name": "timeStamp",
          "type": "uint256"
        }
      ],
      "name": "Swap",
      "type": "event"
    },
    {
      "anonymous": false,
      "inputs": [
        {
          "indexed": false,
          "internalType": "address",
          "name": "account",
          "type": "address"
        }
      ],
      "name": "Unpaused",
      "type": "event"
    },
    {
      "inputs": [],
      "name": "BUSD",
      "outputs": [
        {
          "internalType": "address",
          "name": "",
          "type": "address"
        }
      ],
      "stateMutability": "view",
      "type": "function"
    },
    {
      "inputs": [],
      "name": "HOMES",
      "outputs": [
        {
          "internalType": "address",
          "name": "",
          "type": "address"
        }
      ],
      "stateMutability": "view",
      "type": "function"
    },
    {
      "inputs": [],
      "name": "accountSendingToken",
      "outputs": [
        {
          "internalType": "address",
          "name": "",
          "type": "address"
        }
      ],
      "stateMutability": "view",
      "type": "function"
    },
    {
      "inputs": [],
      "name": "faucet",
      "outputs": [],
      "stateMutability": "nonpayable",
      "type": "function"
    },
    {
      "inputs": [],
      "name": "owner",
      "outputs": [
        {
          "internalType": "address",
          "name": "",
          "type": "address"
        }
      ],
      "stateMutability": "view",
      "type": "function"
    },
    {
      "inputs": [],
      "name": "pause",
      "outputs": [],
      "stateMutability": "nonpayable",
      "type": "function"
    },
    {
      "inputs": [],
      "name": "paused",
      "outputs": [
        {
          "internalType": "bool",
          "name": "",
          "type": "bool"
        }
      ],
      "stateMutability": "view",
      "type": "function"
    },
    {
      "inputs": [],
      "name": "renounceOwnership",
      "outputs": [],
      "stateMutability": "nonpayable",
      "type": "function"
    },
    {
      "inputs": [
        {
          "internalType": "uint256",
          "name": "_amount",
          "type": "uint256"
        }
      ],
      "name": "swap",
      "outputs": [],
      "stateMutability": "nonpayable",
      "type": "function"
    },
    {
      "inputs": [
        {
          "internalType": "address",
          "name": "newOwner",
          "type": "address"
        }
      ],
      "name": "transferOwnership",
      "outputs": [],
      "stateMutability": "nonpayable",
      "type": "function"
    },
    {
      "inputs": [],
      "name": "unpause",
      "outputs": [],
      "stateMutability": "nonpayable",
      "type": "function"
    }
  ],
  "bytecode": "0x60806040523480156200001157600080fd5b506040516200199138038062001991833981810160405281019062000037919062000243565b620000476200011360201b60201c565b82609960006101000a81548173ffffffffffffffffffffffffffffffffffffffff021916908373ffffffffffffffffffffffffffffffffffffffff16021790555081609760006101000a81548173ffffffffffffffffffffffffffffffffffffffff021916908373ffffffffffffffffffffffffffffffffffffffff16021790555080609860006101000a81548173ffffffffffffffffffffffffffffffffffffffff021916908373ffffffffffffffffffffffffffffffffffffffff16021790555050505062000383565b600060019054906101000a900460ff161562000166576040517f08c379a00000000000000000000000000000000000000000000000000000000081526004016200015d9062000326565b60405180910390fd5b60ff801660008054906101000a900460ff1660ff1614620001d75760ff6000806101000a81548160ff021916908360ff1602179055507f7f26b83ff96e1f2b6a682f133852f6798a09c465da95921460cefb384740249860ff604051620001ce919062000366565b60405180910390a15b565b600080fd5b600073ffffffffffffffffffffffffffffffffffffffff82169050919050565b60006200020b82620001de565b9050919050565b6200021d81620001fe565b81146200022957600080fd5b50565b6000815190506200023d8162000212565b92915050565b6000806000606084860312156200025f576200025e620001d9565b5b60006200026f868287016200022c565b935050602062000282868287016200022c565b925050604062000295868287016200022c565b9150509250925092565b600082825260208201905092915050565b7f496e697469616c697a61626c653a20636f6e747261637420697320696e69746960008201527f616c697a696e6700000000000000000000000000000000000000000000000000602082015250565b60006200030e6027836200029f565b91506200031b82620002b0565b604082019050919050565b600060208201905081810360008301526200034181620002ff565b9050919050565b600060ff82169050919050565b620003608162000348565b82525050565b60006020820190506200037d600083018462000355565b92915050565b6115fe80620003936000396000f3fe608060405234801561001057600080fd5b50600436106100a95760003560e01c80638da5cb5b116100715780638da5cb5b1461010857806394b918de14610126578063cf37eefd14610142578063de5f72fd14610160578063e8658d591461016a578063f2fde38b14610188576100a9565b80633f4ba83a146100ae578063484f4ea9146100b85780635c975abb146100d6578063715018a6146100f45780638456cb59146100fe575b600080fd5b6100b66101a4565b005b6100c06101b6565b6040516100cd9190610d5a565b60405180910390f35b6100de6101dc565b6040516100eb9190610d90565b60405180910390f35b6100fc6101f3565b005b610106610207565b005b610110610219565b60405161011d9190610d5a565b60405180910390f35b610140600480360381019061013b9190610de6565b610243565b005b61014a6104f3565b6040516101579190610d5a565b60405180910390f35b610168610519565b005b6101726106ad565b60405161017f9190610d5a565b60405180910390f35b6101a2600480360381019061019d9190610e3f565b6106d3565b005b6101ac610756565b6101b46107d4565b565b609760009054906101000a900473ffffffffffffffffffffffffffffffffffffffff1681565b6000603360009054906101000a900460ff16905090565b6101fb610756565b6102056000610837565b565b61020f610756565b6102176108fd565b565b6000606560009054906101000a900473ffffffffffffffffffffffffffffffffffffffff16905090565b61024b610960565b6000609760009054906101000a900473ffffffffffffffffffffffffffffffffffffffff1690506000609860009054906101000a900473ffffffffffffffffffffffffffffffffffffffff169050828273ffffffffffffffffffffffffffffffffffffffff166370a08231336040518263ffffffff1660e01b81526004016102d39190610d5a565b602060405180830381865afa1580156102f0573d6000803e3d6000fd5b505050506040513d601f19601f820116820180604052508101906103149190610e81565b1015610355576040517f08c379a000000000000000000000000000000000000000000000000000000000815260040161034c90610f0b565b60405180910390fd5b828173ffffffffffffffffffffffffffffffffffffffff166370a08231609960009054906101000a900473ffffffffffffffffffffffffffffffffffffffff166040518263ffffffff1660e01b81526004016103b19190610d5a565b602060405180830381865afa1580156103ce573d6000803e3d6000fd5b505050506040513d601f19601f820116820180604052508101906103f29190610e81565b1015610433576040517f08c379a000000000000000000000000000000000000000000000000000000000815260040161042a90610f77565b60405180910390fd5b6104618233609960009054906101000a900473ffffffffffffffffffffffffffffffffffffffff16866109aa565b61048f81609960009054906101000a900473ffffffffffffffffffffffffffffffffffffffff1633866109aa565b7ffa2dda1cc1b86e41239702756b13effbc1a092b5c57e3ad320fbe4f3b13fe23533609760009054906101000a900473ffffffffffffffffffffffffffffffffffffffff1685426040516104e69493929190610fa6565b60405180910390a1505050565b609960009054906101000a900473ffffffffffffffffffffffffffffffffffffffff1681565b610521610960565b6000609760009054906101000a900473ffffffffffffffffffffffffffffffffffffffff16905068056bc75e2d631000008173ffffffffffffffffffffffffffffffffffffffff166370a08231609960009054906101000a900473ffffffffffffffffffffffffffffffffffffffff166040518263ffffffff1660e01b81526004016105ad9190610d5a565b602060405180830381865afa1580156105ca573d6000803e3d6000fd5b505050506040513d601f19601f820116820180604052508101906105ee9190610e81565b101561062f576040517f08c379a000000000000000000000000000000000000000000000000000000000815260040161062690611037565b60405180910390fd5b61066681609960009054906101000a900473ffffffffffffffffffffffffffffffffffffffff163368056bc75e2d631000006109aa565b7f214e597359607d253d273b990ec10788316369f1c0a60fd7d46d8ad75beb7f8e3368056bc75e2d63100000426040516106a29392919061109c565b60405180910390a150565b609860009054906101000a900473ffffffffffffffffffffffffffffffffffffffff1681565b6106db610756565b600073ffffffffffffffffffffffffffffffffffffffff168173ffffffffffffffffffffffffffffffffffffffff160361074a576040517f08c379a000000000000000000000000000000000000000000000000000000000815260040161074190611145565b60405180910390fd5b61075381610837565b50565b61075e610a33565b73ffffffffffffffffffffffffffffffffffffffff1661077c610219565b73ffffffffffffffffffffffffffffffffffffffff16146107d2576040517f08c379a00000000000000000000000000000000000000000000000000000000081526004016107c9906111b1565b60405180910390fd5b565b6107dc610a3b565b6000603360006101000a81548160ff0219169083151502179055507f5db9ee0a495bf2e6ff9c91a7834c1ba4fdd244a5e8aa4e537bd38aeae4b073aa610820610a33565b60405161082d9190610d5a565b60405180910390a1565b6000606560009054906101000a900473ffffffffffffffffffffffffffffffffffffffff16905081606560006101000a81548173ffffffffffffffffffffffffffffffffffffffff021916908373ffffffffffffffffffffffffffffffffffffffff1602179055508173ffffffffffffffffffffffffffffffffffffffff168173ffffffffffffffffffffffffffffffffffffffff167f8be0079c531659141344cd1fd0a4f28419497f9722a3daafe3b4186f6b6457e060405160405180910390a35050565b610905610960565b6001603360006101000a81548160ff0219169083151502179055507f62e78cea01bee320cd4e420270b5ea74000d11b0c9f74754ebdbfc544b05a258610949610a33565b6040516109569190610d5a565b60405180910390a1565b6109686101dc565b156109a8576040517f08c379a000000000000000000000000000000000000000000000000000000000815260040161099f9061121d565b60405180910390fd5b565b610a2d846323b872dd60e01b8585856040516024016109cb9392919061123d565b604051602081830303815290604052907bffffffffffffffffffffffffffffffffffffffffffffffffffffffff19166020820180517bffffffffffffffffffffffffffffffffffffffffffffffffffffffff8381831617835250505050610a84565b50505050565b600033905090565b610a436101dc565b610a82576040517f08c379a0000000000000000000000000000000000000000000000000000000008152600401610a79906112c0565b60405180910390fd5b565b6000610ae6826040518060400160405280602081526020017f5361666545524332303a206c6f772d6c6576656c2063616c6c206661696c65648152508573ffffffffffffffffffffffffffffffffffffffff16610b4c9092919063ffffffff16565b9050600081511480610b08575080806020019051810190610b07919061130c565b5b610b47576040517f08c379a0000000000000000000000000000000000000000000000000000000008152600401610b3e906113ab565b60405180910390fd5b505050565b6060610b5b8484600085610b64565b90509392505050565b606082471015610ba9576040517f08c379a0000000000000000000000000000000000000000000000000000000008152600401610ba09061143d565b60405180910390fd5b6000808673ffffffffffffffffffffffffffffffffffffffff168587604051610bd291906114ce565b60006040518083038185875af1925050503d8060008114610c0f576040519150601f19603f3d011682016040523d82523d6000602084013e610c14565b606091505b5091509150610c2587838387610c31565b92505050949350505050565b60608315610c93576000835103610c8b57610c4b85610ca6565b610c8a576040517f08c379a0000000000000000000000000000000000000000000000000000000008152600401610c8190611531565b60405180910390fd5b5b829050610c9e565b610c9d8383610cc9565b5b949350505050565b6000808273ffffffffffffffffffffffffffffffffffffffff163b119050919050565b600082511115610cdc5781518083602001fd5b806040517f08c379a0000000000000000000000000000000000000000000000000000000008152600401610d1091906115a6565b60405180910390fd5b600073ffffffffffffffffffffffffffffffffffffffff82169050919050565b6000610d4482610d19565b9050919050565b610d5481610d39565b82525050565b6000602082019050610d6f6000830184610d4b565b92915050565b60008115159050919050565b610d8a81610d75565b82525050565b6000602082019050610da56000830184610d81565b92915050565b600080fd5b6000819050919050565b610dc381610db0565b8114610dce57600080fd5b50565b600081359050610de081610dba565b92915050565b600060208284031215610dfc57610dfb610dab565b5b6000610e0a84828501610dd1565b91505092915050565b610e1c81610d39565b8114610e2757600080fd5b50565b600081359050610e3981610e13565b92915050565b600060208284031215610e5557610e54610dab565b5b6000610e6384828501610e2a565b91505092915050565b600081519050610e7b81610dba565b92915050565b600060208284031215610e9757610e96610dab565b5b6000610ea584828501610e6c565b91505092915050565b600082825260208201905092915050565b7f4e6f7420656e6f7567682062616c616e63652042555344000000000000000000600082015250565b6000610ef5601783610eae565b9150610f0082610ebf565b602082019050919050565b60006020820190508181036000830152610f2481610ee8565b9050919050565b7f4e6f7420656e6f7567682062616c616e636520484f4d45530000000000000000600082015250565b6000610f61601883610eae565b9150610f6c82610f2b565b602082019050919050565b60006020820190508181036000830152610f9081610f54565b9050919050565b610fa081610db0565b82525050565b6000608082019050610fbb6000830187610d4b565b610fc86020830186610d4b565b610fd56040830185610f97565b610fe26060830184610f97565b95945050505050565b7f4e6f7420656e6f7567682062616c616e63650000000000000000000000000000600082015250565b6000611021601283610eae565b915061102c82610feb565b602082019050919050565b6000602082019050818103600083015261105081611014565b9050919050565b6000819050919050565b6000819050919050565b600061108661108161107c84611057565b611061565b610db0565b9050919050565b6110968161106b565b82525050565b60006060820190506110b16000830186610d4b565b6110be602083018561108d565b6110cb6040830184610f97565b949350505050565b7f4f776e61626c653a206e6577206f776e657220697320746865207a65726f206160008201527f6464726573730000000000000000000000000000000000000000000000000000602082015250565b600061112f602683610eae565b915061113a826110d3565b604082019050919050565b6000602082019050818103600083015261115e81611122565b9050919050565b7f4f776e61626c653a2063616c6c6572206973206e6f7420746865206f776e6572600082015250565b600061119b602083610eae565b91506111a682611165565b602082019050919050565b600060208201905081810360008301526111ca8161118e565b9050919050565b7f5061757361626c653a2070617573656400000000000000000000000000000000600082015250565b6000611207601083610eae565b9150611212826111d1565b602082019050919050565b60006020820190508181036000830152611236816111fa565b9050919050565b60006060820190506112526000830186610d4b565b61125f6020830185610d4b565b61126c6040830184610f97565b949350505050565b7f5061757361626c653a206e6f7420706175736564000000000000000000000000600082015250565b60006112aa601483610eae565b91506112b582611274565b602082019050919050565b600060208201905081810360008301526112d98161129d565b9050919050565b6112e981610d75565b81146112f457600080fd5b50565b600081519050611306816112e0565b92915050565b60006020828403121561132257611321610dab565b5b6000611330848285016112f7565b91505092915050565b7f5361666545524332303a204552433230206f7065726174696f6e20646964206e60008201527f6f74207375636365656400000000000000000000000000000000000000000000602082015250565b6000611395602a83610eae565b91506113a082611339565b604082019050919050565b600060208201905081810360008301526113c481611388565b9050919050565b7f416464726573733a20696e73756666696369656e742062616c616e636520666f60008201527f722063616c6c0000000000000000000000000000000000000000000000000000602082015250565b6000611427602683610eae565b9150611432826113cb565b604082019050919050565b600060208201905081810360008301526114568161141a565b9050919050565b600081519050919050565b600081905092915050565b60005b83811015611491578082015181840152602081019050611476565b60008484015250505050565b60006114a88261145d565b6114b28185611468565b93506114c2818560208601611473565b80840191505092915050565b60006114da828461149d565b915081905092915050565b7f416464726573733a2063616c6c20746f206e6f6e2d636f6e7472616374000000600082015250565b600061151b601d83610eae565b9150611526826114e5565b602082019050919050565b6000602082019050818103600083015261154a8161150e565b9050919050565b600081519050919050565b6000601f19601f8301169050919050565b600061157882611551565b6115828185610eae565b9350611592818560208601611473565b61159b8161155c565b840191505092915050565b600060208201905081810360008301526115c0818461156d565b90509291505056fea2646970667358221220fdbb59b647df726c6de34990bf00e2166a9aafa00c721e72d33558ff638be90e64736f6c63430008120033",
  "linkReferences": {},
  "deployedLinkReferences": {}
}